:020000040800F2
:10000000904B002065020008790300087103000886
:10001000750300086B030008F904000800000000E5
:10002000000000000000000000000000CD010008FA
:100030006F030008000000001102000865040008BA
:100040007F0200087F0200087F0200087F0200088C
:100050007F0200087F0200087F0200087F0200087C
:100060007F0200087F0200087F0200087F0200086C
:100070007F0200087F0200087F0200087F0200085C
:100080007F0200087F0200087F0200087F0200084C
:100090007F0200087F0200087F0200087F0200083C
:1000A0007F0200087F0200087F0200087F0200082C
:1000B0007F0200087F0200087F0200087F0200081C
:1000C0007F0200087F0200087F0200087F0200080C
:1000D0007F0200087F0200087F0200087F020008FC
:1000E0007F0200087F0200087F0200087F020008EC
:1000F0007F0200087F0200087F0200087F020008DC
:100100007F0200087F0200087F0200087F020008CB
:100110007F0200087F0200087F0200087F020008BB
:100120007F0200087F0200087F0200087F020008AB
:1001300000F002F800F03AF80AA090E8000C8244BF
:100140008344AAF10107DA4501D100F02FF8AFF29C
:10015000090EBAE80F0013F0010F18BFFB1A43F0A5
:1001600001031847BC0E0000DC0E0000103A24BF4B
:1001700078C878C1FAD8520724BF30C830C144BF0C
:1001800004680C607047000000230024002500264E
:10019000103A28BF78C1FBD8520728BF30C148BFEA
:1001A0000B6070471FB51FBD10B510BD00F0A4F85F
:1001B0001146FFF7F7FF00F0A1F900F0C2F803B411
:1001C000FFF7F2FF03BC00F0C9F80000224B1968EA
:1001D0000868B0E8F00F80F30988BFF36F8F4FF025
:1001E000000080F311884EF00D0E704700000000F3
:1001F00006480068006880F3088862B661B6BFF3FD
:100200004F8FBFF36F8F00DF00BF00BF08ED00E02E
:10021000EFF30980BFF36F8F0F4B1A6820E9F00FDF
:10022000106008B54FF0BF0080F31188BFF34F8F07
:10023000BFF36F8F00F0FCFC4FF0000080F31188DB
:10024000BDE8084019680868B0E8F00F80F3098835
:10025000BFF36F8F704700BF04000020EFF30580ED
:10026000704700000948804709480047FEE7FEE75D
:10027000FEE7FEE7FEE7FEE7FEE7FEE7FEE7FEE756
:1002800004480549054A064B7047000099040008D8
:100290003101000890450020904B0020904700203D
:1002A000904700204FF0000200B513469446964652
:1002B000203922BFA0E80C50A0E80C50B1F1200179
:1002C000BFF4F7AF090728BFA0E80C5048BF0CC027
:1002D0005DF804EB890028BF40F8042B08BF704785
:1002E00048BF20F8022B11F0804F18BF00F8012BF7
:1002F0007047704770477047754600F02BF8AE4660
:1003000005006946534620F00700854618B020B521
:10031000FFF7B6FFBDE820404FF000064FF00007A2
:100320004FF000084FF0000B21F00701AC46ACE89D
:10033000C009ACE8C009ACE8C009ACE8C0098D460A
:10034000704710B50446AFF300802046BDE810406A
:10035000FFF735BF004870472C45002001491820A1
:10036000ABBEFEE726000200704700BFFEE7704705
:1003700000BFFEE700BFFEE7704710B500F002F8CF
:1003800010BD00000CB500200190009033480068BB
:1003900040F480303149086000BF3048006800F404
:1003A000003000900198401C0190009818B9019805
:1003B000B0F5A06FF1D12948006800F4003010B109
:1003C0000120009001E0002000900098012843D116
:1003D0002348006840F01000214908600846006882
:1003E00020F0070008600846006840F0020008603E
:1003F0001A484068194948600846406848600846FD
:10040000406840F4806048600846406820F47C10F2
:1004100048600846406840F4E810486008460068B4
:1004200040F08070086000BF0C48006800F0007069
:100430000028F9D00948406820F0030007494860C7
:100440000846406840F00200486000BF034840682A
:1004500000F00C000828F9D10CBD0000001002408B
:100460000020024010B500BFBF2080F31188BFF309
:100470004F8FBFF36F8F00BF00F044FC18B14FF0F7
:1004800080500449086000BF002080F3118800BF3D
:1004900010BD000004ED00E010B51348006840F006
:1004A00001001149086008464068104908400E499B
:1004B0004860084600680E4908400B490860084635
:1004C000006820F4802008600846406820F4FE00A0
:1004D00048604FF41F008860FFF74FFF4FF0006047
:1004E0000449086010BD0000001002400000FFF841
:1004F000FFFFF6FE08ED00E000BFFEE71CB50020A0
:1005000001210BA30A22CDE900100EA10F4800F033
:10051000DDFB0020012106A30A22CDE900100CA179
:100520000D4800F0D3FB00F055FB00BFFEE70000D4
:100530005461736B20302069732072756E6E696E22
:10054000670000005461736B30000000B50A0008BA
:100550005461736B31000000CD0A000810B50446E9
:1005600000F0E4FA32480068401C31490860314824
:10057000006840B92F4804600846006801280DD182
:1005800000F07AF90AE02C48006838B92948006878
:10059000C06AE16A884201D826480460274800689A
:1005A000401C2649086000BF94F82C1001208840A8
:1005B0002349096808432249086000BFE16A01EB4A
:1005C0008101204A02EB81014868A0608268E260F4
:1005D000211D826851608160E16A01EB8101194A45
:1005E00002EB81026261E16A01EB8101154A52F876
:1005F0002110491CE26A02EB8202124B43F82210DE
:1006000000BF00BF00F0A4FA0B48006878B100BF3B
:1006100008480068C06AE16A884207D24FF08050FB
:1006200009490860BFF34F8FBFF36F8F00BF10BD44
:1006300014000020040000202000002030000020D2
:100640001C0000206400002004ED00E010B516E05E
:1006500000F06CFA0C48C068C468201D00F042FA33
:100660000A480068401E0949086009480068401EA1
:100670000749086000F06CFA204600F06CF8044866
:1006800000680028E4D110BD0401002014000020FF
:1006900010000020F0B587B001260027002408E0F4
:1006A00012A0005D03A9085503A8005D00B902E08F
:1006B000641C102CF4DB00BF002510E00D4F0E4829
:1006C00000EB850000210B468022CDE9001003A934
:1006D000384600F0FBFA064606B902E06D1C012D13
:1006E000ECDB00BF304607B0F0BD000049444C458C
:1006F00000000000D5070008380000202DE9FF5F4A
:100700000746884616469946DDE90EABB00000F074
:100710003FF9054675B14C2000F03AF904462CB17A
:100720004C212046FFF7BEFD256304E0284600F07B
:100730001FFA00E0002454B100204B4632464146E7
:10074000CDE900ABCDE90240384600F057F820462D
:1007500004B0BDE8F09F10B50446206B00F008FA25
:10076000204600F005FA10BD30B54FF48843144818
:1007700000F007042CB1C01D20F00700104C041B32
:100780001B1B104C206000240E4D6C60C218083AF0
:1007900022F007020C4C226000240B4D2D686C6087
:1007A000094D2D682C600146541A4C60064C246893
:1007B0000C60064D4C682C60054D4C682C6030BDBB
:1007C0002C010020440000204C0000205400002098
:1007D0005000002000BFFFF739FF064800680128DD
:1007E000F9D94FF0805004490860BFF34F8FBFF331
:1007F0006F8FF0E76400002004ED00E02DE9FF5F5B
:1008000080460E469146DDE90E7A109CA9F1010062
:10081000216B01EB800B2BF0070B7EB1002507E06D
:10082000715D04F134004155705D00B902E06D1C4A
:10083000102DF5D300BF002143200155052F00D313
:100840000427E762201D00F06EF904F1180000F0A3
:100850006AF92461C7F10500A06164624146584607
:10086000039A00F015F92060BAF1000F01D0CAF820
:100870000040BDE8FF9F000010B5002407E004EB36
:1008800084010F4A02EB810000F040F9641C052C42
:10089000F5D30C4800F03AF90B4800F037F90B4853
:1008A00000F034F90A4800F031F90A4800F02EF956
:1008B00004480949086004480849086010BD000060
:1008C00064000020C8000020DC000020F0000020B0
:1008D0000401002018010020080000200C00002066
:1008E00010B50146164800E0006803688B42FBD350
:1008F0000246436813448B4204D143684C68234446
:10090000436001460A464B6813440468A34211D170
:100910000C4C03682468A34208D04B6804686468E0
:1009200023444B6003681B680B6005E0054B1B68A4
:100930000B6001E003680B60884200D0016010BDCD
:10094000440000204C00002009480068006808B9F5
:10095000012000E0002020B14FF0FF300549086081
:1009600005E003480068C0680068024908607047F5
:10097000080000203400002000BFBF2080F3118851
:10098000BFF34F8FBFF36F8F00BF00BFFEE70000C4
:100990002DE9F04704464FF00009DCB114F1090FCE
:1009A00001D9012000E0002098B9083404F00700C4
:1009B00080B104F00700C0F10808C8F1FF30A04280
:1009C00001D2012000E0002008B9444402E00024E4
:1009D00000E0002400F024F92848006808B9FFF777
:1009E000C3FE012000EBE470002841D0002C3FD072
:1009F0002348006884423BD8224E3046056801E017
:100A00002E462D686868A04202D228680028F7D1D7
:100A10001A48006885422BD0306800F10809286820
:100A200030606868001B102807D92F196868001B00
:100A300078606C60306838603760114968680968B0
:100A4000081A0F490860084600680F49096888427B
:100A500003D20B4800680C490860686840F0004009
:100A600068600020286009480068401C0749086049
:100A700000F018FA4846BDE8F08700004C0000205E
:100A800050000020440000205400002058000020A6
:100A9000001F4FF080730360001F21F0010303600B
:100AA000001F034B036014380260203870470000B9
:100AB0007909000805E00120024908700020024978
:100AC0000870F8E7000000200100002005E0002089
:100AD00002490870012002490870F8E70000002070
:100AE0000100002001460A69D1E901309860D1E98E
:100AF000010358605068884201D188685060002026
:100B000008611068401E10601068704700F108010D
:100B100041604FF0FF31816000F10801C160016167
:100B200000210160704700210161704700BFBF20B4
:100B300080F31188BFF34F8FBFF36F8F00BF03485F
:100B40000068401C014908607047000060000020F8
:100B500006480068401E054908600846006820B93C
:100B6000002080F3118800BF00BF704760000020A4
:100B700070B506463546E6B1083D2C466068C00FA4
:100B8000B8B12068A8B9606820F00040606000F04B
:100B900047F8084960680968084406490860204623
:100BA000FFF79EFE04480068401C0349086000F0FF
:100BB00079F970BD500000205C00002000204FF04B
:100BC000E021086188610248486107200861704798
:100BD0003F19010010B5FFF75DFD0446012C14D14B
:100BE00000BFBF2080F31188BFF34F8FBFF36F8F1B
:100BF00000BF4FF0FF30064908600120054908603A
:100C000000200549086000F047F80448006810BD5E
:100C10003400002020000020180000203C000020AC
:100C200002480068401C01490860704740000020ED
:100C30001448006818B101201349086021E0002021
:100C40001149086000BF11480068B0FA80F0C0F197
:100C50001F0100BF01EB81020D4B03EB82004268D4
:100C60005268426000F108024368934201D1C268B1
:100C700042604268D268074B1A6000BF00BF184646
:100C80000068704740000020280000201C00002061
:100C9000640000200400002010B50A48006840F4F9
:100CA0007F00084908600846006840F07F400860FF
:100CB000FFF784FF002004490860FFF799FA00203D
:100CC00010BD000020ED00E0600000202DE9FC5F79
:100CD00006460F4690469946DDE90CAB4B46424628
:100CE00039463046CDE900ABFFF708FD054625B192
:100CF0002846FFF733FC012401E04FF0FF34204683
:100D0000BDE8FC9F2DE9F04100275B480068002802
:100D10007DD15A480068451C5848056095B900BF08
:100D20005748D0F800805748006855490860554832
:100D3000C0F8008054480068401C53490860FFF721
:100D400003FE00BF5148006885427DD300BF4C4878
:100D50000068006808B9012000E0002020B14FF0D1
:100D6000FF304A4908606EE045480068C068C468C2
:100D70006668B54202D24548066064E000BF60691B
:100D8000D4E902128A60D4E902214A60211D426836
:100D90008A4201D1E1684160002262610168491E16
:100DA000016000BFA06AA0B100BFA06AD4E9071229
:100DB0008A60D4E907214A6004F1180142688A4236
:100DC00001D1216A41600022A2620168491E0160CE
:100DD00000BF00BF94F82C10012088402C490968FE
:100DE00008432B49086000BFE16A01EB8101294AF1
:100DF00002EB81014868A0608268E260211D826880
:100E000051608160E16A01EB8101224A00E02BE040
:100E100002EB81026261E16A01EB81011D4A52F835
:100E20002110491CE26A02EB82021A4B43F822109D
:100E300000BF00BF1849E06A0968C96A884286D9BC
:100E4000012784E700E000BF13480068C06A00EB98
:100E50008000104951F82000012800D901270F48CF
:100E6000006800B1012704E00D480068401C0C49EF
:100E700008603846BDE8F0814000002018000020DE
:100E8000080000200C0000202C000020340000206E
:100E90001C00002064000020040000202800002026
:100EA000240000202DE9F04100240027FFF73EFE3A
:100EB000002552480068401E5049086008460068F6
:100EC00000286ED14E48006800286AD064E04D4882
:100ED000C068C46800BFA06AD4E907128A60D4E978
:100EE00007214A6004F1180142688A4201D1216A4F
:100EF00041600022A2620168491E016000BF00BF7C
:100F00006069D4E902128A60D4E902214A60211D95
:100F100042688A4201D1E168416000226261016851
:100F2000491E016000BF00BF94F82C1001208840CA
:100F30003549096808433449086000BFE16A01EB9C
:100F40008101324A02EB81014868A0608268E26058
:100F5000211D826851608160E16A01EB81012B4AA9
:100F600002EB81026261E16A01EB8101274A52F8DA
:100F70002110491CE26A02EB8202244B43F8221042
:100F800000BF00BF2249E06A0968C96A884203D9E4
:100F90000120204941F825001A48006810B90120B5
:100FA00001E026E00020002891D00CB1FFF7CCFC36
:100FB000194806686EB100BFFFF7A4FE18B1012002
:100FC000144941F82500761E002EF5D10020124963
:100FD0000860104850F8250058B1012700BF0C48A0
:100FE000006838070D490860BFF34F8FBFF36F8F5C
:100FF00000BFFFF7ADFD3846BDE8F081400000209E
:1010000014000020F00000201C00002064000020DC
:1010100004000020280000202400002004ED00E04F
:101020004010000800000020640000006C0100086F
:10103000A4100008640000202C4B00008801000868
:1010400000000000000000000000000000000000A0
:101050000000000000000000000000000000000090
:101060000000000000000000000000000000000080
:10107000000000000000000000000000040000006C
:101080000000000000000000000000000000000060
:101090000000000000000000000000000000000050
:0410A000AAAAAAAAA4
:0400000508000131BD
:00000001FF
