:020000040800F2
:100000002004002045010008F1080008F50500085B
:10001000ED080008BF040008610D000800000000A2
:10002000000000000000000000000000910A00082D
:10003000C304000800000000F30800087D0B00085E
:100040005F0100085F0100085F0100085F01000810
:100050005F0100085F0100085F0100085F01000800
:100060005F0100085F0100085F0100085F010008F0
:100070005F0100085F0100085F0100085F010008E0
:100080005F0100085F0100085F0100085F010008D0
:100090005F0100085F0100085F0100085F010008C0
:1000A0005F0100085F0100085F0100085F010008B0
:1000B0005F010008E10B00085F0100085F01000814
:1000C0005F0100085F0100085F0100085F01000890
:1000D0005F0100085F0100085F0100085F01000880
:1000E0005F0100085F0100085F0100085F01000870
:1000F0005F0100085F0100085F0100085F01000860
:100100005F0100085F0100085F0100085F0100084F
:100110005F0100085F0100085F0100085F0100083F
:100120005F0100085F0100085F0100085F0100082F
:10013000DFF80CD000F0A2F9004800476910000871
:10014000200400200648804706480047FEE7FEE7F7
:10015000FEE7FEE7FEE7FEE7FEE7FEE7FEE7FEE777
:10016000810B0008310100082DE9FE4F81EA0304EC
:1001700004F0004421F0004100944FF0000B23F004
:10018000004350EA01045ED052EA03045BD0C3F39B
:100190000A54C1F30A552C44A4F2F3340194A0FB91
:1001A0000254C1F3130141F48011C3F3130343F468
:1001B000801301FB024400FB034E840A970A44EAC1
:1001C000815447EA8357A4FB076802958D0A05FB13
:1001D00007854FEA932C04FB0C542705029D4FEA38
:1001E000065847EA1637B5EB08056EEB070C870E85
:1001F000920E47EA811742EA8312A7FB0201B6EB8F
:100200000B0164EB00042B0D43EA0C335E1844EB46
:100210001C50DA465146E7FB0201C5F313044FEACE
:100220000B3343EA14534FEA0432019C43EA0603BA
:10023000A4F10C040294009CCDE900B400F0D0F8C5
:1002400003B0BDE8F08F00200146F9E72DE9F04D3D
:1002500081EA030404F0004B21F0004514464FF0FE
:10026000000A23F0004150EA050220D054EA0102BE
:100270001DD0C5F30A570246C5F31303C1F313009B
:10028000C1F30A5640F4801543F48013A7EB060827
:10029000101BD64608F2FD3873EB050002D308F1B7
:1002A000010801E092185B41B8F1000F03DA002069
:1002B0000146BDE8F08D00204FF4801106468446CB
:1002C0000EE0171B73EB050705D3121B63EB050349
:1002D00006434CEA010C49084FEA300092185B4192
:1002E00050EA0107EDD152EA030012D082EA04007D
:1002F00083EA0501084305D0101BAB4106D2012259
:10030000002306E000224FF0004302E06FF00102FC
:1003100053101AEB06004CEB085110EB0A0041EBAE
:100320000B01BDE8F04D00F04CB80EB540F2334182
:1003300002910021CDE900110A460B4600F050F869
:1003400003B000BDC1F30A5210B5C1F3130140F26E
:10035000FF3341F480119A4201DA002010BD40F2CF
:1003600033439A42A2F2334203DC524200F019F8BE
:1003700010BD904010BD30B50B4601460020202234
:10038000012409E021FA02F59D4205D303FA02F5A2
:10039000491B04FA02F52844151EA2F10102F1DC02
:1003A00030BD202A04DB203A21FA02F000217047F8
:1003B00021FA02F3D040C2F12002914008431946CD
:1003C000704710B5141E73F1000408DA401C41F1A7
:1003D000000192185B411A4301D120F0010010BDC9
:1003E0002DE9F04D92469B4611B1B1FA81F202E03F
:1003F000B0FA80F22032904600F052F804460F46E0
:1004000040EA0A0041EA0B0153465A46084313D01A
:10041000114653EA010019D0C8F140025046FFF7D7
:10042000C0FF05460E4650465946424600F038F891
:10043000084305D0012004E020463946BDE8F08D90
:100440000020054346EAE0762C4337430A986305CB
:10045000E40AA0EB08000022FD0A44EA47540A30EF
:1004600002D500200146E9E7010510196941DDE9DF
:10047000084500196941BDE8F04DA2E7064C074D5B
:1004800006E0E06840F0010394E807009847103464
:10049000AC42F6D3FFF750FE50110008701100086F
:1004A000202A04DB203A00FA02F100207047914034
:1004B000C2F1200320FA03F319439040704700BFB4
:1004C000FEE770472DE9F041024600250026002096
:1004D00000230024002791F803C00CF00F0591F8C9
:1004E00003C00CF0100CBCF1000F03D091F802C057
:1004F0004CEA050591F800C0BCF1000F31D014683A
:1005000000202BE04FF0010C0CFA00F3B1F800C012
:100510000CEA03069E4220D183004FF00F0C0CFA28
:1005200003F7BC4305FA03FC4CEA040491F803C04A
:10053000BCF1280F06D14FF0010C0CFA00FCC2F8F8
:1005400014C00AE091F803C0BCF1480F05D14FF088
:10055000010C0CFA00FCC2F810C0401C0828D1D3D2
:100560001460B1F800C0BCF1FF0F34DD5468002006
:100570002EE000F1080C4FF0010808FA0CF3B1F876
:1005800000C00CEA03069E4221D183004FF00F0CFD
:100590000CFA03F7BC4305FA03FC4CEA040491F897
:1005A00003C0BCF1280F05D100F1080C08FA0CF8C3
:1005B000C2F8148091F803C0BCF1480F07D100F1D4
:1005C000080C4FF0010808FA0CF8C2F81080401C23
:1005D0000828CED35460BDE8F0810246002093681D
:1005E0000B400BB1012000E00020704741617047D3
:1005F0000161704700BFFEE770B505460E46144620
:1006000033462A463146284600F002F9201200F00F
:10061000E9F8E0B200F0E6F870BD70B50446EF23EB
:1006200040F23F120021084600F0F2F8002506E0F3
:10063000201200F0D7F8E0B200F0D4F86D1CB5F548
:10064000963FF5D370BD000000B587B001210803C7
:1006500000F050F90121042000F04CF90121102094
:1006600000F048F910208DF81B008020ADF818002C
:1006700003208DF81A0006A94A48FFF723FF8021BE
:100680004848FFF7B5FF18208DF81B00A020ADF8F3
:10069000180003208DF81A0006A94348FFF712FF3F
:1006A00048208DF81B004020ADF8180003208DF87D
:1006B0001A0006A93C48FFF705FF10208DF81B0023
:1006C000ADF8180003208DF81A0006A93648FFF788
:1006D000F9FE10208DF81B006020ADF818000320F3
:1006E0008DF81A0006A92F48FFF7ECFE0020ADF8A0
:1006F00010004FF48270ADF806000020ADF8040041
:10070000ADF80800ADF80C00ADF80A00ADF8120025
:100710004FF40070ADF80E000720ADF8140001A9E9
:10072000224800F097F90121204800F079F92021B2
:100730001C48FFF75BFF0020009002E00098401C7F
:1007400000901B4900988842F8DB20211548FFF7EC
:100750004FFF0020009002E00098401C00901449D8
:1007600000988842F8DB362000F026F8E82000F0F8
:1007700039F83A2000F020F8552000F033F8112025
:1007800000F01AF80020009002E00098401C009051
:10079000084900988842F8DB292000F00DF807B0DE
:1007A00000BD000000100140000801400030014081
:1007B00020A10700400D030010B504461021074892
:1007C000FFF714FF40210648FFF710FF204600F016
:1007D0000BF910210148FFF70BFF10BD0008014085
:1007E0000010014010B5044610210748FFF7FEFE37
:1007F00040210648FFF7FCFE204600F0F5F81021E6
:100800000148FFF7F5FE10BD00080140001001404F
:100810002DE9F04104460D4616461F462A20FFF7F3
:10082000CBFF2012FFF7DEFFE0B2FFF7DBFF301255
:10083000FFF7D8FFF0B2FFF7D5FF2B20FFF7BCFF83
:100840002812FFF7CFFFE8B2FFF7CCFF3812FFF70F
:10085000C9FFF8B2FFF7C6FF2C20FFF7ADFFBDE8D8
:10086000F081000000B585B00121880300F042F856
:100870000121042000F03EF818208DF813004FF4F9
:100880000070ADF8100003208DF8120004A915487F
:10089000FFF718FE48208DF813004FF48060ADF884
:1008A000100003208DF8120004A90E48FFF70AFE7D
:1008B0004FF4E13000900020ADF80C000C20ADF8B2
:1008C0000A000020ADF80800ADF80600ADF80400FD
:1008D0006946054800F0D4F90121034800F0B6F953
:1008E00005B000BD000801400038014000BFFEE730
:1008F0007047704729B1064A92690243044B9A61D6
:1009000004E0034A92698243014B9A6170470000F8
:100910000010024030B500210022002400232D4D9C
:100920006D6805F00C0121B1042905D0082923D1F7
:1009300005E0294D056022E0274D05601FE0254DAB
:100940006D6805F47012234D6D6805F4803402253E
:1009500005EB92421CB9214D554305600BE01D4D3E
:100960006D6805F400351DB11C4D5543056002E06E
:10097000194D5543056002E0174D056000BF00BFEB
:10098000144D6D6805F0F0010909154D6B5C0568A3
:10099000DD4045600F4D6D6805F4E061090A104DBA
:1009A0006B5C4568DD4085600A4D6D6805F46051FB
:1009B000C90A0B4D6B5C4568DD40C560054D6D682F
:1009C00005F44041890B074D6B5CC568B5FBF3F539
:1009D000056130BD0010024000127A0000093D00A0
:1009E000000000201000002010B5044600BF0221C6
:1009F0000A4800F021F80028F9D02146074800F005
:100A000027F800BF0121054800F016F80028F9D0AA
:100A1000024800F01AF8C0B210BD000000300140DA
:100A200021B1028842F04002028004E002884FF6C1
:100A3000BF731A40028070470246002013890B40A2
:100A40000BB1012000E00020704701468889704703
:100A50008181704710B50022028802F441520B8850
:100A60004C8823438C882343CC8823430C8923431D
:100A70004C8923438C892343CC8923431A43028026
:100A8000838B4FF2FF74234083830B8A038210BD54
:100A9000704710B500F002F810BD00000CB5002042
:100AA000019000903348006840F48030314908607C
:100AB00000BF3048006800F4003000900198401CEE
:100AC0000190009818B90198B0F5A06FF1D12948AC
:100AD000006800F4003010B10120009001E0002017
:100AE00000900098012843D12348006840F010008E
:100AF000214908600846006820F0070008600846A1
:100B0000006840F0020008601A48406819494860CF
:100B10000846406848600846406840F48060486085
:100B20000846406820F47C1048600846406840F45D
:100B3000E81048600846006840F08070086000BF18
:100B40000C48006800F000700028F9D0094840689F
:100B500020F00300074948600846406840F0020062
:100B6000486000BF0348406800F00C000828F9D135
:100B70000CBD000000100240002002407047000041
:100B800010B51348006840F001001149086008469C
:100B90004068104908400E494860084600680E4900
:100BA00008400B4908600846006820F4802008606F
:100BB0000846406820F4FE0048604FF41F0088603B
:100BC000FFF767FF4FF000600449086010BD0000A8
:100BD000001002400000FFF8FFFFF6FE08ED00E005
:100BE00010B501210C4800F020F898B10B4800889E
:100BF000401C0A49088008460088B0F5FA6F05D104
:100C0000012007490870002004490880012102489A
:100C100000F008F810BD000000040040160000209D
:100C200014000020CA430282704730B502460020FB
:100C300000230024158A05EA0103958905EA0104C9
:100C400013B10CB1012000E0002030BD21B1828938
:100C500042F40052828104E082894DF6FF731A400B
:100C60008281704702460020B1F5007F00D100BFAD
:100C700013880B400BB1012000E0002070470000FA
:100C80002DE9F04786B005460E460024A24600BF77
:100C9000A1460027B08900B100BF2F462C8A4CF630
:100CA000FF700440F08804432C82AC894EF6F310A8
:100CB0000440B08831890843718908430443AC81FA
:100CC000AC8A4FF6FF400440B0890443AC8201A8CF
:100CD000FFF720FE1F48874202D1DDF810A001E097
:100CE000DDF80CA0A88900F4004040B10AEBCA006E
:100CF00000EB0A1031684900B0FBF1F807E00AEB9D
:100D0000CA0000EB0A1031688900B0FBF1F86420DA
:100D1000B8FBF0F004012009642101FB1089A889C7
:100D200000F4004040B1322000EBC900B0FBF1F00C
:100D300000F00700044308E0322000EB09106421B2
:100D4000B0FBF1F000F00F0004432C8106B0BDE8C9
:100D5000F087000000380140C1F30802828070472C
:100D600000BFFEE770B504460D46902000F042F843
:100D70002080D02000F03EF8288070BD08B5012109
:100D80001020FFF7B7FD0720ADF8000010208DF808
:100D9000030003208DF8020069460E48FFF792FB1E
:100DA0000820ADF8000048208DF803006946094886
:100DB000FFF788FB1020ADF8000048208DF80300F5
:100DC00069460448FFF77EFB02210248FFF710FC4A
:100DD00008BD00000010014010B510210448FFF7C5
:100DE000FCFB012801D1002010BD0120FCE7000020
:100DF0000010014070B50546002402210B48FFF7A2
:100E0000F5FB284600F032F800F012F804464FF6E1
:100E1000FF7000EA042400F00BF80443E410022100
:100E20000248FFF7E5FB204670BD000000100140BE
:100E300070B50024002512E06006040E01210A4866
:100E4000FFF7D6FB08210848FFF7C7FB08B144F0BD
:100E5000010401210448FFF7C9FB681CC5B2082D35
:100E6000EADB204670BD00000010014070B504466A
:100E7000002517E004F0800020B104210B48FFF7A3
:100E8000B7FB03E004210948FFF7B0FB6006040E3E
:100E900001210648FFF7ACFB01210448FFF7A6FB40
:100EA000681CC5B2082DE5DB70BD000000100140D4
:100EB0000FB4054B10B503A9044A029800F018F8C6
:100EC00010BC5DF814FB000045100008180000205D
:100ED00002E008C8121F08C1002AFAD17047704703
:100EE000002001E001C1121F002AFBD17047000061
:100EF0002DE9FF4F89B09B460446002506E02528D2
:100F00000BD05A460B999047641C6D1C2078002822
:100F1000F5D10DB02846BDE8F08F0027B846012274
:100F2000474900E0074314F8013F203B02FA03F071
:100F30000842F7D120782E2819D114F8010F47F074
:100F400004072A280ED06FF02F022078A0F130017C
:100F500009290CD808EB880102EB410100EB0108DC
:100F6000641CF2E70A98641C50F8048B0A902078FD
:100F70000028CED0642808D0692806D075281ED055
:100F80005A460B9990476D1C58E00A994FF00A0990
:100F900001C90A91002802DA40422D2102E03905F8
:100FA00004D52B218DF82010012103E0F90704D08E
:100FB0002021F7E78A4608AE0DE00021FAE70A99FA
:100FC0004FF00A0901C90A91F7E74946FFF7D3F93B
:100FD000303106F8011D0028F7D1ADEB060000F115
:100FE0002009780701D44FF00108C84502DDA8EBBD
:100FF000090000E000208046002706E008A85A46C5
:10100000C05D0B9990476D1C7F1C5745F6DB04E0D3
:1010100030205A460B9990476D1CB8F10001A8F199
:101020000108F5DC05E016F8010B5A460B999047CC
:101030006D1CB9F10001A9F10109F4DC641C65E73C
:101040000928010070B504460D4600BF80210548FF
:10105000FFF708FE0028F9D0E1B20248FFF77CFE56
:10106000204670BD003801401CB500200190009062
:10107000FFF7F8FBFFF7E8FAFFF780FE4FF6FF7087
:10108000FFF7CBFA43E0FFF7A7FE01283CD1694602
:1010900001A8FFF767FEBDF90020BDF904101CA0F0
:1010A000FFF706FFBDF80010C83988B2FFF73DF919
:1010B000804600221D4BFFF7C9F8064600221C4B54
:1010C000FFF752F80446FFF73DF91FFA80FABDF822
:1010D0000410A1F5A57188B2FFF727F98046002218
:1010E000144BFFF7B3F806460022134BFFF73CF80A
:1010F0000446FFF727F91FFA80FB4FF47842514668
:101100005846FFF779FA02E00CA0FFF7D1FEBAE7E4
:10111000546F756368656420617420583A202564B3
:101120002C20593A2025640A000000000098AC40A9
:1011300000006E4000E4AB40000074404E6F20742D
:101140006F7563682064657465637465640A000084
:1011500070110008000000201C000000D00E0008E4
:101160008C1100081C00002004040000E00E0008A0
:10117000000000000102030401020304060708093D
:0C1180000204060800000000000000004F
:0400000508000131BD
:00000001FF
