:020000040800F2
:10000000F0EE002045010008130A00087B070008F5
:100010000F0A0008FF050008390E00080000000064
:10002000000000000000000000000000710B00084C
:100030000306000800000000850A00085D0C0008A7
:100040005F0100085F0100085F0100085F01000810
:100050005F0100085F0100085F0100085F01000800
:100060005F0100085F0100085F0100085F010008F0
:100070005F0100085F0100085F0100085F010008E0
:100080005F0100085F0100085F0100085F010008D0
:100090005F0100085F0100085F0100085F010008C0
:1000A0005F0100085F0100085F0100085F010008B0
:1000B0005F010008C10C00085F0100085F01000833
:1000C0005F0100085F0100085F0100085F01000890
:1000D0005F0100085F0100085F0100085F01000880
:1000E0005F0100085F0100085F0100085F01000870
:1000F0005F0100085F0100085F0100085F01000860
:100100005F0100085F0100085F0100085F0100084F
:100110005F0100085F0100085F0100085F0100083F
:100120005F0100085F0100085F0100085F0100082F
:10013000DFF80CD000F026FA00480047A19602082C
:10014000F0EE00200648804706480047FEE7FEE73D
:10015000FEE7FEE7FEE7FEE7FEE7FEE7FEE7FEE777
:10016000610C0008310100082DE9F05F0546002010
:1001700092469B4688460646814640241BE0284618
:1001800041464746224600F090F953465A46C01A67
:10019000914110D311461846224600F077F92D1AE6
:1001A00067EB01084F4622460120002100F06EF95E
:1001B00017EB00094E41201EA4F10104DFDC484684
:1001C00031462A464346BDE8F09F10B5431A934294
:1001D00009D28318881803E010F8011D03F8011DE7
:1001E000521EF9D210BD40EA01039B0703D009E07B
:1001F00008C9121F08C0042AFAD203E011F8013B13
:1002000000F8013B521EF9D210BDD2B201E000F855
:10021000012B491EFBD270470022F6E710B51346AA
:100220000A4604461946FFF7F0FF204610BD421C5F
:1002300010F8011B0029FBD1801A704710B500226D
:1002400000E0521C835C8C5CA34201D1002BF8D1EE
:10025000D8B2E1B2401A10BD034611F8012B00F8E4
:10026000012B002AF9D1184670472DE9FE4F81EA8B
:10027000030404F0004421F0004100944FF0000B0F
:1002800023F0004350EA01045ED052EA03045BD03D
:10029000C3F30A54C1F30A552C44A4F2F334019475
:1002A000A0FB0254C1F3130141F48011C3F3130303
:1002B00043F4801301FB024400FB034E840A970AB7
:1002C00044EA815447EA8357A4FB076802958D0AE4
:1002D00005FB07854FEA932C04FB0C542705029D70
:1002E0004FEA065847EA1637B5EB08056EEB070CE0
:1002F000870E920E47EA811742EA8312A7FB02019A
:10030000B6EB0B0164EB00042B0D43EA0C335E18D3
:1003100044EB1C50DA465146E7FB0201C5F31304D7
:100320004FEA0B3343EA14534FEA0432019C43EA89
:100330000603A4F10C040294009CCDE900B400F083
:10034000D3F803B0BDE8F08F00200146F9E72DE9AE
:10035000F04D81EA030404F0004B21F000451446FF
:100360004FF0000A23F0004150EA050220D054EA81
:1003700001021DD0C5F30A570246C5F31303C1F3AA
:100380001300C1F30A5640F4801543F48013A7EB21
:100390000608101BD64608F2FD3873EB050002D3A1
:1003A00008F1010801E092185B41B8F1000F03DA8F
:1003B00000200146BDE8F08D00204FF48011064674
:1003C00084460EE0171B73EB050705D3121B63EB86
:1003D000050306434CEA010C49084FEA3000921825
:1003E0005B4150EA0107EDD152EA030012D082EAE4
:1003F000040083EA0501084305D0101BAB4106D277
:100400000122002306E000224FF0004302E06FF0DB
:10041000010253101AEB06004CEB085110EB0A00D6
:1004200041EB0B01BDE8F04D00F04FB80EB5C10F28
:1004300080EAE0700844CA07002140F233438DE8A7
:100440000E000A460B4600F04FF803B000BD70B531
:10045000C1F30A5201F000450024C1F3130140F238
:10046000FF3341F480119A4201DA002070BD40F25E
:1004700033439A42A2F2334203DC524200F015F8B1
:1004800000E090402C43F1D0404270BD202A04DBB4
:10049000203A00FA02F1002070479140C2F1200397
:1004A00020FA03F3194390407047202A04DB203AD6
:1004B00021FA02F00021704721FA02F3D040C2F184
:1004C0002002914008431946704710B5141E73F17D
:1004D000000408DA401C41F1000192185B411A4304
:1004E00001D120F0010010BD2DE9F04D92469B4650
:1004F00011B1B1FA81F202E0B0FA80F220329046F6
:10050000FFF7C4FF04460F4640EA0A0041EA0B0128
:1005100053465A46084313D0114653EA010019D0F6
:10052000C8F140025046FFF7C0FF05460E46504650
:1005300059464246FFF7AAFF084305D0012004E0D0
:1005400020463946BDE8F08D0020054346EAE076B6
:100550002C4337430A986305E40AA0EB0800002205
:10056000FD0A44EA47540A3002D500200146E9E773
:10057000010510196941DDE9084500196941BDE827
:10058000F04DA2E7064C074D06E0E06840F001039D
:1005900094E8070098471034AC42F6D3FFF7CCFD3F
:1005A000BC450308DC45030870B58C1810F8015BE6
:1005B00015F0070301D110F8013B2A1106D110F8FC
:1005C000012B03E010F8016B01F8016B5B1EF9D100
:1005D0002B0705D40023521E0DD401F8013BFAE786
:1005E00010F8013BCB1A921C03E013F8015B01F8F1
:1005F000015B521EF9D5A142D8D3002070BD00BFC7
:10060000FEE7704700B5034603E04FF47A7000F050
:1006100005F8181EA3F10103F7D100BD00EBC001DE
:10062000C9004FF0E0225161002191610521116163
:1006300000BF4FF0E021096901F480310029F8D0B2
:1006400004214FF0E022116170472DE9F04102468C
:1006500000250026002000230024002791F803C075
:100660000CF00F0591F803C00CF0100CBCF1000F5A
:1006700003D091F802C04CEA050591F800C0BCF126
:10068000000F31D0146800202BE04FF0010C0CFA61
:1006900000F3B1F800C00CEA03069E4220D18300AB
:1006A0004FF00F0C0CFA03F7BC4305FA03FC4CEABD
:1006B000040491F803C0BCF1280F06D14FF0010CDF
:1006C0000CFA00FCC2F814C00AE091F803C0BCF1B7
:1006D000480F05D14FF0010C0CFA00FCC2F810C015
:1006E000401C0828D1D31460B1F800C0BCF1FF0F42
:1006F00034DD546800202EE000F1080C4FF00108B2
:1007000008FA0CF3B1F800C00CEA03069E4221D1AE
:1007100083004FF00F0C0CFA03F7BC4305FA03FCFF
:100720004CEA040491F803C0BCF1280F05D100F194
:10073000080C08FA0CF8C2F8148091F803C0BCF158
:10074000480F07D100F1080C4FF0010808FA0CF827
:10075000C2F81080401C0828CED35460BDE8F08158
:100760000246002093680B400BB1012000E00020FE
:100770007047416170470161704700BFFEE770B587
:1007800005460E46144633462A463146284600F0B2
:1007900015F9201200F0FCF8E0B200F0F9F870BD95
:1007A0002DE9F05F05460E46174698460A9C4FF025
:1007B0000009781B401C1FFA80FBA8EB0600401CB8
:1007C0001FFA80FA43463A463146284600F0F6F8CA
:1007D00000BF09E02188081200F0DAF8207800F064
:1007E000D7F8A41C09F101090BFB0AF04845F1D820
:1007F000BDE8F09F00B587B00121080300F054F96F
:100800000121042000F050F90121102000F04CF9E2
:1008100010208DF81B008020ADF8180003208DF803
:100820001A0006A94A48FFF710FF80214848FFF741
:10083000A2FF18208DF81B00A020ADF8180003209F
:100840008DF81A0006A94348FFF7FFFE48208DF8EF
:100850001B004020ADF8180003208DF81A0006A9EF
:100860003C48FFF7F2FE10208DF81B00ADF8180091
:1008700003208DF81A0006A93648FFF7E6FE10207F
:100880008DF81B006020ADF8180003208DF81A00C9
:1008900006A92F48FFF7D9FE0020ADF810004FF44D
:1008A0008270ADF806000020ADF80400ADF8080035
:1008B000ADF80C00ADF80A00ADF812004FF400706E
:1008C000ADF80E000720ADF8140001A9224800F091
:1008D00031F90121204800F013F920211C48FFF7CD
:1008E00048FF0020009002E00098401C00901B4947
:1008F00000988842F8DB20211548FFF73CFF0020D4
:10090000009002E00098401C009014490098884232
:10091000F8DB362000F026F8E82000F039F83A201D
:1009200000F020F8552000F033F8112000F01AF8FC
:100930000020009002E00098401C009008490098B8
:100940008842F8DB292000F00DF807B000BD000058
:1009500000100140000801400030014020A10700C4
:10096000400D030010B5044610210748FFF701FFB2
:1009700040210648FFF7FDFE204600F0A5F81021B3
:100980000148FFF7F8FE10BD0008014000100140CB
:1009900010B5044610210748FFF7EBFE402106483A
:1009A000FFF7E9FE204600F08FF810210148FFF71D
:1009B000E2FE10BD00080140001001402DE9F041A9
:1009C00004460D4616461F462A20FFF7CBFF20128D
:1009D000FFF7DEFFE0B2FFF7DBFF3012FFF7D8FFD3
:1009E000F0B2FFF7D5FF2B20FFF7BCFF2812FFF76F
:1009F000CFFFE8B2FFF7CCFF3812FFF7C9FFF8B21C
:100A0000FFF7C6FF2C20FFF7ADFFBDE8F08100BF68
:100A1000FEE7704770B5002100230F22C47804B3AD
:100A2000154C246804F4E064C4F5E064210AC1F1C3
:100A30000403CA40447804FA03F184781440214343
:100A400009010E4C0678A155047804F01F05012415
:100A5000AC4005786D11AD0005F1E025C5F8004109
:100A600009E0047804F01F050124AC40044D067829
:100A7000761145F8264070BD0CED00E000E400E082
:100A800080E100E07047000029B1064AD2690243C4
:100A9000044BDA6104E0034AD2698243014BDA6114
:100AA000704700000010024029B1064A92690243D3
:100AB000044B9A6104E0034A92698243014B9A61B4
:100AC000704700000010024010B5044600BF02212C
:100AD0000A4800F021F80028F9D02146074800F024
:100AE00027F800BF0121054800F016F80028F9D0CA
:100AF000024800F01AF8C0B210BD000000300140FA
:100B000021B1028842F04002028004E002884FF6E0
:100B1000BF731A40028070470246002013890B40C1
:100B20000BB1012000E00020704701468889704722
:100B30008181704710B50022028802F441520B886F
:100B40004C8823438C882343CC8823430C8923433C
:100B50004C8923438C892343CC8923431A43028045
:100B6000838B4FF2FF74234083830B8A038210BD73
:100B7000704710B500F002F810BD00000CB5002061
:100B8000019000903348006840F48030314908609B
:100B900000BF3048006800F4003000900198401C0D
:100BA0000190009818B90198B0F5A06FF1D12948CB
:100BB000006800F4003010B10120009001E0002036
:100BC00000900098012843D12348006840F01000AD
:100BD000214908600846006820F0070008600846C0
:100BE000006840F0020008601A48406819494860EF
:100BF0000846406848600846406840F480604860A5
:100C00000846406820F47C1048600846406840F47C
:100C1000E81048600846006840F08070086000BF37
:100C20000C48006800F000700028F9D009484068BE
:100C300020F00300074948600846406840F0020081
:100C4000486000BF0348406800F00C000828F9D154
:100C50000CBD000000100240002002407047000060
:100C600010B51348006840F00100114908600846BB
:100C70004068104908400E494860084600680E491F
:100C800008400B4908600846006820F4802008608E
:100C90000846406820F4FE0048604FF41F0088605A
:100CA000FFF767FF4FF000600449086010BD0000C7
:100CB000001002400000FFF8FFFFF6FE08ED00E024
:100CC00010B50121054800F04AF830B10121034870
:100CD00000F036F8012027F065FE10BD000400404A
:100CE0001FB501210220FFF7CFFE0020ADF80A005A
:100CF000ADF8060040F2E730ADF808004720ADF847
:100D0000040001A90D4800F045F8012211460B48E6
:100D100000F036F81D208DF8000001208DF803004A
:100D200000208DF801008DF802006846FFF772FE82
:100D30000121024800F007F81FBD00000004004038
:100D4000CA430282704721B1028842F00102028048
:100D500004E002884FF6FE731A400280704730B5F7
:100D60000246002000230024158A05EA0103958924
:100D700005EA010413B10CB1012000E0002030BDF0
:100D80001AB183890B43838102E083898B4383817A
:100D900070470000002202881D4B98420ED01D4B68
:100DA00098420BD0B0F1804F08D01B4B984205D031
:100DB0001A4B984202D01A4B984204D14FF68F73C7
:100DC0001A404B881A43174B984207D0164B98424B
:100DD00004D04FF6FF431A40CB881A4302808B8819
:100DE00083850B8803850A4B98420BD0094B9842A8
:100DF00008D00E4B984205D00D4B984202D00D4BB7
:100E0000984201D10B7A0386012383827047000048
:100E1000002C014000340140000400400008004064
:100E2000000C004000100040001400400040014051
:100E3000004401400048014000BFFEE72DE9FC47A7
:100E400004468946902000F075F8A0F5A57A504632
:100E5000FFF7ECFA07460022144BFFF778FA054635
:100E60000022134BFFF701FACDE90001FFF7EFFA7B
:100E700000B22080D02000F05DF8A0F1C80A5046F2
:100E8000FFF7D4FA054600220A4BFFF760FA07463F
:100E90000022094BFFF7E9F9CDE90001FFF7D7FA86
:100EA00000B2A9F80000BDE8FC87000000E4AB40F8
:100EB000000074400098AC4000006E4008B501216D
:100EC0001020FFF7F1FD0720ADF8000010208DF88D
:100ED000030003208DF8020069460E48FFF7B5FBBA
:100EE0000820ADF8000048208DF803006946094845
:100EF000FFF7ABFB1020ADF8000048208DF8030091
:100F000069460448FFF7A1FB02210248FFF733FCC2
:100F100008BD00000010014010B510210448FFF783
:100F20001FFC012801D1002010BD0120FCE70000BA
:100F30000010014070B50546002402210B48FFF760
:100F400018FC284600F032F800F012F804464FF67C
:100F5000FF7000EA042400F00BF80443E4100221BF
:100F60000248FFF708FC204670BD00000010014059
:100F700070B50024002512E06006040E01210A4825
:100F8000FFF7F9FB08210848FFF7EAFB08B144F036
:100F9000010401210448FFF7ECFB681CC5B2082DD1
:100FA000EADB204670BD00000010014070B5044629
:100FB000002517E004F0800020B104210B48FFF762
:100FC000DAFB03E004210948FFF7D3FB6006040EB7
:100FD00001210648FFF7CFFB01210448FFF7C9FBB9
:100FE000681CC5B2082DE5DB70BD00000010014093
:100FF00002E008C8121F08C1002AFAD170477047E2
:10100000002001E001C1121F002AFBD1704770B51A
:101010000446002508E02168481C20600878303824
:1010200005EB850100EB41052168087800F004F824
:101030000028F0D1284670BD0146302903DB39294C
:1010400001DC012070470020FCE7000010B54421BE
:10105000074801F02AF800221E21064827F00AFD61
:101060000549086002F0F2FB00200449087010BD39
:10107000201D00202D39000884010020800100205F
:101080002DE9F04F87B007460C4615462946204605
:1010900000F066F920B94FF0FF3007B0BDE8F08FDF
:1010A00000222946204600F0FDF808B10020F4E7B0
:1010B0000026204613F0B8F9401E00B204902046E6
:1010C00013F023F9401E00B2039068886188401A2B
:1010D0000FFA80FABAF1000F16DD2088ADF814007F
:1010E0006088ADF81600A088ADF8180060885044FC
:1010F00000B2ADF81A003046711C4EB207EBC000CA
:101100000599016006994160E8886188411A039851
:10111000401A0FFA80FBBBF1000F1CDDB5F9060089
:10112000B4F90610884216DA2088ADF81400E88871
:10113000ADF81600A088ADF81800E888584400B251
:10114000ADF81A003046711C4EB207EBC00005998D
:10115000016006994160B5F90200B4F902108842B5
:1011600002DDB5F9020001E0B4F902008046B5F9EC
:101170000600B4F90610884202DAB5F9060001E06B
:10118000B4F9060002900298A0EB08000FFA80F96B
:1011900028882188401A00B20190019800281BDDA0
:1011A000B9F1000F18DD2088ADF81400ADF81680F5
:1011B00021880198084400B2ADF8180008EB090036
:1011C00000B2ADF81A003046711C4EB207EBC000F9
:1011D0000599016006994160A8882188411A049800
:1011E000401A00B200900098002818DDA888ADF8D9
:1011F0001400ADF81680A9880098084400B2ADF834
:10120000180008EB090000B2ADF81A003046711C56
:101210004EB207EBC0000599016006994160304667
:101220003BE730B50346B1F90040B2F90050AC429B
:1012300002DDB1F9004001E0B2F900401C80B1F9D3
:101240000240B2F90250AC4202DDB1F9024001E0C5
:10125000B2F902405C80B1F90440B2F90450AC42EA
:1012600002DAB1F9044001E0B2F904409C80B1F91E
:101270000640B2F90650AC4202DAB1F9064001E08C
:10128000B2F90640DC800120B3F90040B3F9045004
:10129000AC4205DCB3F90240B3F90650AC4200DDC4
:1012A000002030BDF8B504460D4616460027B4F9B7
:1012B0000000B5F90010884212DBB4F90200B5F95C
:1012C000021088420CDBB4F90400B5F9041088421E
:1012D00006DCB4F90600B5F90610884200DC0127E7
:1012E0000FB90020F8BD0EB90120FBE72088ADF84A
:1012F00000006088ADF8020032466946284600F0DA
:10130000A7F808B90020EDE7A088ADF800006088D4
:10131000ADF8020032466946284600F099F808B94F
:101320000020DFE72088ADF80000E088ADF802007B
:1013300032466946284600F08BF808B90020D1E70C
:10134000A088ADF80000E088ADF80200324669469A
:10135000284600F07DF808B90020C3E70120C1E766
:101360000246B2F90000B1F90430984213DCB2F938
:101370000400B1F9003098420DDBB2F90200B1F976
:101380000630984207DCB2F90600B1F90230984203
:1013900001DB012070470020FCE7F8B504460D464C
:1013A0001646B4F90400B5F90010884211DBB4F90F
:1013B0000600B5F9021088420BDBB4F90000B5F95C
:1013C0000410884205DCB4F90200B5F90610884221
:1013D00001DD0120F8BD0EB90020FBE72088ADF843
:1013E00000006088ADF8020032466946284600F0E9
:1013F0002FF808B10020EDE7A088ADF80000608864
:10140000ADF8020032466946284600F021F808B1DE
:101410000020DFE72088ADF80000E088ADF802008A
:1014200032466946284600F013F808B10020D1E79B
:10143000A088ADF80000E088ADF8020032466946A9
:10144000284600F005F808B10020C3E70120C1E7F5
:101450002DE9FC5F05460E4614464FF0000AB6F92A
:101460000000B5F90010884213DBB6F90000B5F9A9
:10147000041088420DDCB6F90200B5F9021088426A
:1014800007DBB6F90200B5F90610884201DC4FF01F
:10149000010ABAF1000F02D10020BDE8FC9F002C28
:1014A00001DC0120F9E7284612F0BEFF834600EB7D
:1014B000DB704710284612F028FF834600EBDB70F4
:1014C0004FEA6008474501DA384600E04046814669
:1014D0004C4500DD4C462888ADF8000028882044A3
:1014E00000B2ADF804006888ADF8020068882044B6
:1014F00000B2ADF80600002231466846FFF7A8FFAB
:1015000080B1BDF80400204400B2ADF80400BDF87D
:101510000600204400B2ADF806003146684624F0CB
:101520006BF8BAE7E888001B00B2ADF80200E88863
:10153000ADF80600002231466846FFF789FF80B10A
:10154000BDF80400204400B2ADF80400BDF802006C
:10155000001B00B2ADF802003146684624F04CF89A
:101560009BE7A888001B00B2ADF80000A888ADF882
:101570000400002231466846FFF76AFF80B1BDF8DB
:101580000000001B00B2ADF80000BDF80200001B17
:1015900000B2ADF802003146684624F02DF87CE731
:1015A0006888ADF802006888204400B2ADF80600F3
:1015B000002231466846FFF74BFF80B1BDF80000BE
:1015C000001B00B2ADF80000BDF80600204400B2D8
:1015D000ADF806003146684624F00EF85DE70120BC
:1015E0005BE710B5B1F90030B2F90040A34202DA6E
:1015F000B1F9003001E0B2F900300380B1F90230F6
:10160000B2F90240A34202DAB1F9023001E0B2F9C4
:1016100002304380B1F90430B2F90440A34202DD44
:10162000B1F9043001E0B2F904308380B1F9063039
:10163000B2F90640A34202DDB1F9063001E0B2F989
:101640000630C38010BD0000F8B5054627F09AF9B2
:1016500007460020009035B14C49E86808602846EC
:1016600027F020FB03E015F0A9FD48490860474931
:101670000968086923F054FE44480068406920B1B5
:1016800042490968486923F04BFE40490968C86926
:1016900023F046FE3D490968086A23F041FE3B48B5
:1016A0000068006938B9002038490968A1F850017C
:1016B00000BF00BFF8BD24F069F829F0F5FD29F05E
:1016C0002FFA32480068B0F85001002856D02F4851
:1016D00000680068007C00F0010040B32B480068FF
:1016E0000068C068406810B3002419E0274800680B
:1016F00000F59870005D00B110E02448006800F526
:10170000AC7000F034FD064620480068303000EB35
:10171000C400016831604068706000BF601C84B222
:101720001A480068B0F85001A042DFDC00BF4FF457
:1017300080711648006830301DF08AFE2021134861
:10174000006800F598701DF083FE00200F490968BD
:10175000A1F85001384627F007F900900B480068BF
:101760000068406A50B10949096808680749096872
:1017700009684B6A06490A68009998471DF0E0FB22
:1017800000F03EF800F006F800BF93E73C000020B0
:101790003800002010B5002416E0C4EBC4000C494A
:1017A00051F8200030B1C4EBC401094A52F82100BD
:1017B0001DF078FCC4EBC401054A02EB81001C213A
:1017C0001DF046FE601CC4B2042CE6DB10BD000018
:1017D000FC1D00200146094A10680BE042688A425D
:1017E00002D002688A4204D1027E22F00102521C19
:1017F000027640690028F1D17047000010000020F7
:101800007047000010B50421014800F04EFC10BDE7
:10181000141D002010B52021014800F046FC10BD29
:101820002C1D00202DE9FF4704460D4616461F4695
:10183000DDE90C896FB9B8F5807F0AD100202080DE
:101840006080681E00B2A080701E00B2E080BDE81B
:10185000FF8700200090019002900390ADF80450A3
:10186000ADF80A60ADF80C50ADF80E604B4642463C
:101870003946684623F0F6FD4B464246394601A8F4
:1018800023F0F0FD4B464246394602A823F0EAFD1C
:101890004B464246394603A823F0E4FDBDF900005B
:1018A000BDF90410884202DABDF9000001E0BDF97B
:1018B0000400BDF90810BDF90C20914202DABDF90F
:1018C000081001E0BDF90C1088420BDABDF90000E8
:1018D000BDF90410884202DABDF900000DE0BDF93F
:1018E00004000AE0BDF90800BDF90C10884202DAD4
:1018F000BDF9080001E0BDF90C00801E00B2208097
:10190000BDF90000BDF90410884202DDBDF90000F8
:1019100001E0BDF90400BDF90810BDF90C209142A9
:1019200002DDBDF9081001E0BDF90C1088420BDDA5
:10193000BDF90000BDF90410884202DDBDF90000C8
:101940000DE0BDF904000AE0BDF90800BDF90C1076
:10195000884202DDBDF9080001E0BDF90C00801CE1
:1019600000B2A080BDF90210BDF90600814202DA82
:10197000BDF9020001E0BDF90600BDF90A20BDF97C
:101980000E108A4202DABDF90A1001E0BDF90E100C
:1019900088420BDABDF90210BDF90600814202DA75
:1019A000BDF902000DE0BDF906000AE0BDF90A101C
:1019B000BDF90E00814202DABDF90A0001E0BDF96D
:1019C0000E00801E00B26080BDF90210BDF9060055
:1019D000814202DDBDF9020001E0BDF90600BDF95A
:1019E0000A20BDF90E108A4202DDBDF90A1001E09D
:1019F000BDF90E1088420BDDBDF90210BDF90600DD
:101A0000814202DDBDF902000DE0BDF906000AE0E9
:101A1000BDF90A10BDF90E00814202DDBDF90A00D0
:101A200001E0BDF90E00801C00B2E08000BF0EE7AF
:101A30002DE9F743054616460024134C26F0A2FF75
:101A40008046334629462046019A1AF075FF07461C
:101A50005FB900BF00BF2C2120461DF0F9FC4FF0FC
:101A60000040A0620020BDE8FE830020A062E06983
:101A700018B9404626F078FFE061E06908B9012016
:101A8000E0612046EFE70000501D002010B5142152
:101A9000114800F00AFB1AF001FF044600BF1CB910
:101AA00000BF00BF00BFFEE700BF14B900BF00BF0A
:101AB00010BD0A4920461AF0D9FF094920461AF0FC
:101AC000D7FF084920461AF0D5FF074920461AF0EB
:101AD000CBFF00BFECE70000381D00204DC001081F
:101AE00021C50108A9C7010815C0010870B5044641
:101AF0000D46102128461DF0ABFC20680078012817
:101B000004D1A08A2880E08A68800CE020680078F0
:101B1000022802D1E068686005E0206800780428A7
:101B200001D10A2068602068406820B120682946F9
:101B30004268904701E000BF00BF70BD2DE9FE4F35
:101B40000446A08A18B9E08A08B9BDE8FE8FE66AA3
:101B500096B920460CF070FF064606B9F5E7204618
:101B600010F0DEF900220921304619F0B9FA607848
:101B7000C0F3400000B1E8E700274FF48078B14699
:101B800016E00021484621F095F8384407B20021BC
:101B9000484621F0CBF88246C0170AEB10600012CD
:101BA00000FB08F00FFA80F848461FF019FC814648
:101BB000B9F1000FE5D117B9B8F5807F11D078429F
:101BC00007B24FF4803090FBF8F00FFA80F8002055
:101BD00000906B464246394604F1140023F042FC63
:101BE00000BF00200290019094F8400000F00F0028
:101BF000032812D130461FF011FD824630461FF0F7
:101C000095FC834603200090B4F9141053465A46BD
:101C100030460CF009FA029012E030461FF080FDC9
:101C2000824630461FF0F4FB83460C200090B4F946
:101C300016105B46524630460CF0F6F9019000BF94
:101C400030461FF045FC054605F0010028B9BDF9F6
:101C50000800002801DD0020029005F0020028B9EC
:101C6000BDF90800002801DA0020029005F0040008
:101C700028B9BDF90400002801DD0020019005F01D
:101C8000080028B9BDF90400002801DA00200190FD
:101C900001AA02A9204629F07FFFBDF90420BDF961
:101CA0000810304600F0FCFA6078C0F3400000B144
:101CB0004BE7208BBDF80810084401B22183608BEC
:101CC000BDF80410084401B2618300BF3DE72DE96F
:101CD000F84F0446D4F82CB0BBF1000F01D1BDE899
:101CE000F88F94F8400000F00F0000B9F7E71BF000
:101CF00065F906463068477E4021584621F0D0F904
:101D000010B90021E183A18358461FF0F5FC8046FD
:101D100058461FF0FBFC054694F8400000F00F0009
:101D20000C2843D10021A1831DBBB4F91E00C7F1CB
:101D300064014843642190FBF1F001B2E18358460D
:101D40001FF066FB814658461FF0EAFC82460C20D5
:101D50000090B4F91E104B46524658460CF064F9F8
:101D6000E083B4F91E2000231946584622F044FDB2
:101D700069E0204629F067FF00900021E1836A4670
:101D8000204629F009FFBDF9003041F6FF725142AB
:101D900058460DF043F88146BDF80000484402B2B1
:101DA00001230021584622F027FD4CE094F8400022
:101DB00000F00F00032846D10021E183B8F1000FA5
:101DC00023D1B4F91C00C7F164014843642190FB9E
:101DD000F1F001B2A18358461FF0A8FB8146584696
:101DE0001FF01CFC824603200090B4F91C105346DF
:101DF0004A4658460CF018F9A083B4F91C10002389
:101E00001A46584622F0F8FC1DE0204629F000FF53
:101E100000900021A18300226946204629F0BCFEE3
:101E2000BDF9003041F6FF72514258460CF05CFF9C
:101E30008146BDF80000484401B201230022584603
:101E400022F0DAFC00BFA08B002860D1E08B0028D4
:101E50005DD11DBB58461FF063FC814658461FF0FC
:101E6000D7FA8246B9F1000F02DCBAF1000F14DD97
:101E7000B9F1000F06DA01234A460021584622F044
:101E8000BBFC0AE0BAF1000F07DA0123CAF1000037
:101E900002B20021584622F0AFFC00BFB8F1000F9B
:101EA00023D158461FF042FB814658461FF0B6FB2F
:101EB0008246B9F1000F02DCBAF1000F14DDB9F16E
:101EC000000F06DA012300224946584622F094FC0E
:101ED0000AE0BAF1000F07DA01230022CAF100007C
:101EE00001B2584622F088FC00BF32460A2158460B
:101EF00019F0F6F86078C0F3400000B1EFE694F80E
:101F0000400020F00F0184F840100021E16200BF82
:101F1000E5E62DE9FF4104460F4614B915F04EF9E8
:101F200004460CB9BDE8FF81204615F0E0F900B980
:101F3000F8E794F82800C0F3800010B100BF00BF9C
:101F4000F0E71FB90020A4F85001EBE70020ADF83E
:101F50000800ADF80A00204615F048F9401E00B20E
:101F6000ADF80C00204615F0A7F9401E00B2ADF800
:101F70000E0002AA39466846FFF753F9064606B92D
:101F8000D0E72068007CC0F3400060B10298206375
:101F9000039860630120A4F85001606810B1606884
:101FA00026F08CFEBEE72068806918B1206869467B
:101FB0008269904700250BE004F1300000EBC50179
:101FC00000226846FFF76EF900B1ABE7681C85B2E6
:101FD000B4F85001A842EFDCB4F85001202809DA27
:101FE000B4F8502104F1300101EBC200694612F04F
:101FF000F3F80BE00020A4F85001B4F8502104F1EC
:10200000300101EBC20002A912F0E6F8B4F8500169
:10201000401CA4F85001606810B1606826F04EFEC4
:1020200000BF7FE770B50546284600F013F8044668
:1020300000260CE02146284600F024F806462146FA
:10204000284600F0C0F820461DF02CF83446002C3D
:10205000F0D170BD014609B9002070474868FCE71F
:1020600070B5064600243046FFF7F4FF054605E04C
:10207000641C2946304600F005F80546002DF7D1CE
:10208000204670BD02460B461068001D03441868C8
:10209000704702460B4610680344186870470146B3
:1020A00009B9002070478868FCE70022426082601E
:1020B000CA1C22F003010160704770B50446216814
:1020C00001F108001CF010FF0546A5B100222946C9
:1020D000204627F0EFFF29462046626827F0DCFF04
:1020E000606820B12A462046616827F0E3FF6560FA
:1020F000A06800B9A560284670BD2DE9F0410646EC
:102100000D4606B115B90020BDE8F0813046FFF755
:10211000A1FFA84206D13046FFF7CFFF044624BBFB
:102120000020F1E7316801F108001CF0DDFE0446F3
:102130000CB90020E8E729463046FFF7AAFF07461A
:1021400022463946304627F0A7FF3A462146304618
:1021500027F0B0FF22462946304627F0ABFF2A463B
:102160002146304627F098FF00BF2046CCE770B5E7
:102170000446216801F108001CF0B6FE0546A5B131
:1021800000222946204627F087FF29462046A268DC
:1021900027F090FFA06820B12A462046A16827F0CA
:1021A0007BFFA560606800B96560284670BD014688
:1021B00009B901207047486818B9886808B9012032
:1021C000F8E70020F6E72DE9F04104460D460CB98A
:1021D000BDE8F0812046FFF73DFFA8420FD1294618
:1021E0002046FFF74FFF6060606810B90020A060D4
:1021F0002FE000222046616827F05CFF29E020469E
:10220000FFF74DFFA8420FD129462046FFF741FFB7
:10221000A060A06810B9002060601AE0002220468B
:10222000A16827F039FF14E029462046FFF731FF67
:10223000064629462046FFF725FF07463A4631461F
:10224000204627F029FF32463946204627F032FF44
:1022500000BF00BFBCE710B504462068806818B115
:1022600020682146826890472068006828B120686D
:10227000006820602046FFF7EEFF10BD0146886829
:1022800018B18868B0F9160070470020FCE70146D5
:10229000886818B18868807E800970470020FCE754
:1022A0002DE9F04104460D4616461DB916B9012028
:1022B000BDE8F08120461DF0DFFFA068008A2844B9
:1022C00000B2A1680882A068408A304401B2A068C8
:1022D0004182012332462946204621F07DFB00221F
:1022E0000B21204618F0FCFE0746012F01D038468E
:1022F000DEE7204621F098FA0120D9E7F7B582B051
:1023000004460E4614B9049805B0F0BD00BF622221
:102310003146204620F054FB0190019D00BFBDB125
:102320002868A8B100BF63223146204620F048FB50
:1023300001900198C0B207464FB13A462B68284633
:10234000049998470190BDF80400ADF8100000BF53
:102350000498D9E72DE9F04F95B004468B46914695
:102360009A461E9D608C20F0080008306084A4F816
:1023700020902A895946204620F022FB1490A4F888
:1023800020A02A895946204620F01AFB1390608C21
:1023900020F008006084DDE9131088420CD1DDE9EB
:1023A0001310884208D1BDF85000BDF84C10884287
:1023B00002D115B0BDE8F08FA4F820902A895946C3
:1023C000204620F0FDFA1490A4F820A0594620469B
:1023D0000EF010FB12902989129A1068149A24F0BA
:1023E0008FFF28890B2833D147F6FF711498884254
:1023F00002D0139888422BD1204620F0F4FD0090A3
:1024000000EBD070471020461EF09AFF009000EBC2
:10241000D0704FEA600847F6FF711498884208D1DF
:10242000781C08F10101884200DA01E008F101009E
:10243000149047F6FF711398884208D1781C08F170
:102440000101884200DA01E008F10100139000BFA9
:102450002348FFF732FE064600BF1EB900BF00BF8B
:1024600000BFFEE700BF06B9A3E71498F060139819
:10247000306134602889B080C6F808B001A810F037
:1024800073FF314601A811F021F8164901A810F098
:10249000EEFF1548039000BF144901A810F0F5FFA6
:1024A000FF22002101A811F001F8298801A810F0ED
:1024B000F3FF698801A810F0D5FFE868089000BF15
:1024C00001A8002190F8422061F3000280F8422028
:1024D00000BF2869079001A811F010F800BF68E755
:1024E000441D0020EDF4020895F70208C5F6020825
:1024F00010B514210148FFF7D8FD10BD441D002080
:102500002DE9FE4F04460F4690464FF00009002586
:102510004CE1E06800EBC5004068C0F3406000B1EA
:1025200043E1E16801EBC501496821F07F4022F0F9
:10253000BDFE064626EA070008B9012000E000209B
:10254000029026EA080008B9012000E0002001906E
:10255000DDE90101814270D0E06850F835A04FF00C
:10256000000B6A461021504624F0A2FA10B14FF039
:10257000010B98E06A461121504624F099FA10B1F7
:102580004FF0010B8FE06A461221504624F090FA7A
:1025900010B14FF0010B86E06A461321504624F03B
:1025A00087FA10B14FF0010B7DE06A4615215046C5
:1025B00024F07EFA10B14FF0010B74E06A4614214A
:1025C000504624F075FA10B14FF0010B6BE06A46EB
:1025D0000A21504624F06CFA10B14FF0010B62E072
:1025E0006A466B21504624F063FA10B14FF0010B9C
:1025F00059E06A466C21504624F05AFA10B14FF067
:10260000010B50E06A460121504624F051FA10B106
:102610004FF0010B47E06A460421504624F048FA87
:1026200010B14FF0010B3EE06A460221504624F003
:102630003FFA18B14FF0010B35E0B5E06A460321CF
:10264000504624F035FA10B14FF0010B2BE06A46EA
:102650000521504624F02CFA10B14FF0010B22E076
:102660006A460621504624F023FA10B14FF0010BC0
:1026700019E06A463221504624F01AFA10B14FF0A0
:10268000010B10E06A466E21504624F011FA10B199
:102690004FF0010B07E06A466D21504624F008FA1E
:1026A00008B14FF0010BBBF1000F02D00320BDE8D1
:1026B000FE8F6A466921504624F0FAF910B14FF0B6
:1026C000020970E06A466A21504624F0F1F910B11F
:1026D0004FF0020967E06A466E21504624F0E8F99F
:1026E00010B14FF002095EE06A466D21504624F0B9
:1026F000DFF910B14FF0020955E06A463721504624
:1027000024F0D6F910B14FF002094CE06A463821A6
:10271000504624F0CDF910B14FF0020943E06A466B
:102720003521504624F0C4F910B14FF002093AE0C7
:102730006A464021504624F0BBF910B14FF002091F
:1027400031E06A464521504624F0B2F910B14FF00D
:10275000020928E06A464121504624F0A9F910B147
:102760004FF002091FE06A464221504624F0A0F9CA
:1027700010B14FF0020916E06A464321504624F09A
:1027800097F910B14FF002090DE06A464921504611
:1027900024F08EF910B14FF0020904E0B9F1000FF6
:1027A00001D14FF0010900BF00BF6D1C608CC0F368
:1027B0000510A8423FF6ADAE484678E701480068EC
:1027C000704700003C00002070470146C1F304122E
:1027D000072A00DD0722D0B27047000001464FF6FD
:1027E000FF70814201D11F20704709B90020FBE72B
:1027F000712902DA0948405CF6E7A1F1710081B263
:102800000748006838B107480068814203D204488D
:102810000068405CE8E70020E6E70000B43E0308FB
:10282000A8010020BC01002010B518210348FFF7C3
:102830003CFC012026F05AF910BD0000F01C0020DD
:102840002DE9F04105460F4616460DB9BDE8F08169
:102850002846FDF7ECFC8046394628460A4A1268AD
:1028600090470746E8193146074A126890470646DE
:102870003C4603E0A019285C2855641CA8EB060020
:10288000A042F7D200BFE1E7EC0100202DE9F041C2
:1028900006460C4617461D4629463046084A126829
:1028A00090472060206830B1296888190021044AC7
:1028B0001268904700E000203860BDE8F081000019
:1028C000E40100202DE9F04F87B004460F46924600
:1028D0009846DDE910560DB1002028801CB9002073
:1028E00007B0BDE8F08F207808B90020F8E70FB9ED
:1028F0000020F5E74FF0000906F0020010B906F0DD
:10290000040098B1002000E0401C215C0A2905D099
:10291000215C0D2902D0215C0029F5D1215C01B197
:10292000401C15B14FF0FF312980D9E706F00200B5
:1029300008B141F6FF7800200690059038E00020AD
:102940000490059808B9012000E0002006A904AA17
:10295000CDE90062CDE90210059960184346524660
:10296000394626F02BFB83460498A8EB00000FFAAB
:1029700080F8049848440FFA80F9BBF1000F00D1A9
:102980001CE005985844059020780A2802D0207849
:102990000D2800D112E00598205C0A2803D0059884
:1029A000205C0D2803D10598401C059006E000BF6F
:1029B0000598205C10B1B8F1000FC0DC00BF05988D
:1029C00070B905A92046094A12689047834635B177
:1029D00000225946384618F007FD0FFA80F900BF6B
:1029E0000DB1A5F8009005987AE70000E4010020F9
:1029F0002DE9F04706468846174606B10FB9BDE8EF
:102A0000F0873046FDF713FC81463846FDF70FFC92
:102A1000044604B9F3E704EB090A414630460B4A81
:102A2000126890478046554603E0281B305C70557D
:102A30006D1E08EB0400A842F7D906EB08002246F9
:102A400039461CF0BFFC00BFD9E70000EC010020B4
:102A5000024600200FA31B788B4211D113781BB9BB
:102A60000123137001200BE01378012B02D1002306
:102A7000137005E01378022B02D10023137001209C
:102A80001378012B04D1202901D1022313700120D6
:102A9000704700002300000073B582B0064603981B
:102AA0000190324600210846019B26F0A7FD05460D
:102AB000002001900024681C1CF016FA044600BF98
:102AC0001CB900BF00BF00BFFEE700BF14B9002063
:102AD00004B070BD002060553246691C2046039B3F
:102AE00026F08CFD2046F3E72DE9F04781460E469F
:102AF00014461F46DDF820A035461BE0600800FBA9
:102B0000075529464846D047B0F1000809DD04F0D2
:102B1000010080F00100C0EB5404E81905460646A8
:102B200008E0B8F1000F02DA6408354602E02846F2
:102B3000BDE8F087002CE1D10020F9E72DE9FF4F37
:102B400085B08346DDE9158ADDE91349DDE91775AE
:102B5000129E05F00200F8B94FB105F0010030B146
:102B6000B9F1000F02D105F00C0000B17F1E03E0A7
:102B700030222046641C3254544501D2202CF7D315
:102B800003E030222046641C325405F0010018B1E5
:102B9000BC4201D2202CF4D305F01000B0B305F4F0
:102BA000806050B94CB1544501D0BC4205D1641E7F
:102BB0001CB1B8F1100F00D1641EB8F1100F09D18B
:102BC00005F0200030B9202C04D278222046641C65
:102BD000325415E0B8F1100F09D105F0200030B1E2
:102BE000202C04D258222046641C325408E0B8F14C
:102BF000020F05D1202C03D262222046641C3254DD
:102C0000202C03D230222046641C3254202C16D2B1
:102C1000B9F1000F04D02D222046641C32540EE07E
:102C200005F0040020B12B222046641C325406E03B
:102C300005F0080018B120222046641C3254CDE96A
:102C40000275CDE90064584606A90EC900F0A2F845
:102C500009B0BDE8F08F2DE9FF4F8FB08046DDE968
:102C60001FABDDE91D96219D1C9C00270CB925F0AA
:102C7000100505F4806000B1E4B100BFB4FBF6F1CB
:102C800006FB1141C8B20A2802DA00F1300107E060
:102C900005F0200109B1412100E0612101440A3918
:102CA000CBB239467F1C07AA5354B4FBF6F40CB1DF
:102CB000202FE3D307A8CDE904AB8DE8810203966A
:102CC0000695404610A90EC9FFF738FF13B0BDE8BE
:102CD000F08F2DE9FF4F8FB0DDE9217BDDF890808B
:102CE000209EDDE91C454FF00009002184EA010027
:102CF0006940084301D128F0100808F4806028B129
:102D0000002184EA0100694008432DD000BF32460B
:102D10003B4620462946FDF727FA02F0FF0ABAF1A2
:102D20000A0F02DA0AF1300007E008F0200008B1CB
:102D3000412000E0612050440A38C2B2484609F1FF
:102D4000010907A90A5432463B4620462946FDF7A9
:102D50000BFA04460D46002184EA0100694008434D
:102D600002D0B9F1200FD2D32398CDE9036BCDE97E
:102D7000050807A91E98CDE9001902900FA80FC8F1
:102D8000FFF7DCFE13B0BDE8F08F9A4200D2885402
:102D9000704770472DE9FF5F05461446DDE90EA632
:102DA000DDE91087A34607F0020078B907F00100BB
:102DB00060B9B14607E02246641C2020039B0199BC
:102DC000A84709F10109C145F5D300BF08E0224633
:102DD000641C711E0E461AF80100039B0199A84756
:102DE000002EF4D107F0020050B105E02246641C29
:102DF0002020039B0199A847A4EB0B004045F5D385
:102E0000204604B0BDE8F09F2DE9FF4F8BB0074688
:102E100000250C9800B9FA4FEAE20E9800782528B0
:102E20000AD02A466D1C0E990878DDE90C13B847C4
:102E30000E98401C0E90DBE20E98401C0E90002471
:102E400000BF0E9800782B2819D004DC20281ED053
:102E500023282CD123E02D2809D0302827D144F075
:102E600001040E98401C0E9001200A9022E044F0CC
:102E700002040E98401C0E9001200A901AE044F0C3
:102E800004040E98401C0E9001200A9012E044F0B9
:102E900008040E98401C0E9001200A900AE044F0AD
:102EA00010040E98401C0E9001200A9002E00020B1
:102EB0000A9000BF00BF0A980028C2D180460E9930
:102EC0000878FEF7B9F820B10EA8FEF7A0F8804602
:102ED00012E00E9800782A280ED1189901C918918D
:102EE000002804DA44F00204C0F1000800E0804643
:102EF0000E99491C0E9100BF4FF000090E98007802
:102F00002E281FD144F480640E98401C0E900E9918
:102F10000878FEF791F820B10EA8FEF778F8814600
:102F200010E00E9800782A280CD1189901C9189140
:102F3000002801DD014600E0002189460E99491C68
:102F40000E9100BF0E9800786C280AD004DC682827
:102F500016D06A2835D128E0742820D07A2830D1BC
:102F600029E044F480740E98401C0E900E9800786E
:102F70006C2804D144F400740E98401C0E9021E09B
:102F800044F080040E98401C0E900E98007868283B
:102F900004D144F040040E98401C0E9012E044F41A
:102FA00080740E98401C0E900CE044F400740E984F
:102FB000401C0E9006E044F480740E98401C0E9065
:102FC00000E000BF00BF0E98007869281DD00EDC1D
:102FD000622821D006DC25287ED050281AD0582817
:102FE0007BD115E0632879D06428F9D10CE07328EF
:102FF00075D004DC6F280ED07028F1D109E0752857
:1030000004D07828ECD102E000BF00BF00BF00BFB1
:1030100000BF00BF00BF00BF0E980078782803D023
:103020000E980078582801D1102623E00E980078D9
:10303000702803D00E98007850280CD1102644F048
:10304000100444F480740E984078562812D10E98DB
:10305000401C0E900EE00E9800786F2801D10826D3
:1030600008E00E980078622801D1022602E00A26C4
:1030700024F010040E980078582803D00E98007899
:10308000502801D144F020040E980078692805D01A
:103090000E980078642801D024F00C0404F48060B9
:1030A00008B124F001040E980078692803D00E9826
:1030B000007864287CD104F40070B8B31898C01D5F
:1030C00020F007001890D0E900AB189A0832189247
:1030D0000020CDE9069803E073E17CE1F2E01CE119
:1030E000CDE904600894BAEB00017BEB000001DA43
:1030F000012000E00020002102900846B1EB0A0107
:1031000070EB0B0002DA5046594605E000200146FC
:10311000B0EB0A0061EB0B01CDE900012A4638460D
:10312000DDE90C13FFF7D5FD0546C7E0FFE704F422
:103130008070D0B1189850F804AB18904FEADA704C
:10314000CDE9039802960594BAF1000F01DD5146CE
:1031500001E0CAF10001CDE900102A463846DDE958
:103160000C13FFF778FD0546A8E004F0400028B1F5
:10317000189810F8041B1890C8B20DE004F08000F5
:1031800028B1189830F8041B189008B204E0189879
:1031900000681899091D189182464FEADA70CDE946
:1031A000039802960594BAF1000F02DD514602E041
:1031B0000BE0CAF10001CDE900102A463846DDE9EE
:1031C0000C13FFF748FD054678E00E980078562866
:1031D00018D1189850F804AB1890DAF80400006879
:1031E000099009980090DAF800300D98421B0C986D
:1031F00041193846FFF708FE0544002009905DE0BC
:10320000932D000804F40070D0B11898C01D20F070
:103210000700CDE90698089418900020CDE90460D5
:103220000290189903C9189A08321892CDE9000142
:103230002A463846DDE90C13FFF74BFD05463DE015
:1032400004F4807098B10022CDE9039802960594A9
:10325000189800681899091DCDE9000218912A46AE
:103260003846DDE90C13FFF7F6FC054626E004F0CE
:10327000400028B1189810F8041B1890C8B20DE04F
:1032800004F0800028B1189830F8041B189088B218
:1032900004E0189800681899091D189182460020CA
:1032A000CDE900A0CDE90398029605942A46384658
:1032B000DDE90C13FFF7CFFC054600BF0E98401C5C
:1032C0000E9093E0012604F0020050B905E02A4672
:1032D0006D1C2020DDE90C13B8473046761C4045B4
:1032E000F5D3189911F8043BD8B22A466D1C1891F1
:1032F000DDE90C13B84704F0020050B105E02A469E
:103300006D1C2020DDE90C13B8473046761C404583
:10331000F5D30E98401C0E9068E0189850F804AB56
:1033200018905046B9F1000F01D0494601E04FF026
:10333000FF310A46014600E0491C0B781BB1131E01
:10334000A2F10102F8D10E1A04F4806028B14E45B2
:1033500001D2304600E04846064604F0020050B96B
:1033600005E02A466D1C2020DDE90C13B8473046E5
:10337000761C4045F5D306E01AF8010B2A466D1C71
:10338000DDE90C13B8479AF8000040B104F48060FE
:103390000028F1D0B9F10000A9F10109ECD104F045
:1033A000020050B105E02A466D1C2020DDE90C1317
:1033B000B8473046761C4045F5D30E98401C0E9019
:1033C00014E02A466D1C2520DDE90C13B8470E9841
:1033D000401C0E900AE02A466D1C0E990878DDE923
:1033E0000C13B8470E98401C0E9000BF00BF00BFE2
:1033F0000E98007800287FF410AD0D98854201D218
:10340000284601E00D98401E02460020DDE90C131D
:10341000B84728460FB0BDE8F08F2DE9F0410446CB
:103420000E46002774B13146204600F02DF80546BF
:10343000B5F5803F05D20C2D01D9284600E00C20BF
:10344000074600BF3846BDE8F081024600BF481E6F
:10345000084018B100BF00BF00BFFEE700BF481E14
:103460001040101A704710B502464B1E13444C1EF4
:1034700023EA040000BF4B1E0B401BB100BF00BF7E
:1034800000BFFEE700BF10BD024600BF481E084057
:1034900018B100BF00BF00BFFEE700BF481E1044C8
:1034A0004B1E9843704700002DE9F04180460E46C0
:1034B000444601206086002500270DE056F82700CD
:1034C00025A1FCF7BBFE10B1681C85B202E0608E3E
:1034D000401C6086781C87B256F8270020B156F849
:1034E000270000780028E9D1208EA84201D1BDE84C
:1034F000F081A06A20B1A06A1BF0D4FD0020A06278
:10350000E06A20B1E06A1BF0CDFD0020E062E80037
:103510001BF0EAFCA06200BFA06A18B900BF00BFA0
:1035200000BFFEE700BF68001BF0DEFCE06200BFEA
:10353000E06A18B900BF00BF00BFFEE700BFA06A85
:1035400008B1E06A00B900256900E06A1BF080FF5D
:10355000258600BFCBE700000A0000002DE9F84FE8
:1035600081460E46924699F8090000F007000228AD
:1035700001D1304600E050468346564501DD3046D5
:1035800000E050460746032000EB470020F0030010
:1035900000F110053948006839490968A0EB0108B5
:1035A000002405EB080037490968884206D23348F1
:1035B0000468606820F0004060603AE031480068CC
:1035C000854221D813E04FF0FF3000900022694679
:1035D0002D480FF01BFA002269462C480FF016FA0E
:1035E0002648006826490968A0EB010800BF08EBDF
:1035F0000500244909688842E5D8204804686068C5
:1036000020F00040606014E028461BF06DFC04468A
:1036100000BF1CB900BF00BF00BFFEE700BF14B968
:103620000020BDE8F88F606820F0004000F1004005
:10363000606032465946484602F0F5F820606068FE
:1036400000F04040401C6060606820F08040606096
:10365000A781A4F80EB06068C00F20B1204600F129
:103660001001A16008E0054800681030A060034820
:1036700000682844014908602046D2E74400002041
:10368000A4010020400000201BEA00088D2A010848
:10369000F0B585B006460D463446002004900390F0
:1036A000029065480088A84202D0FF206349087054
:1036B0006148058094F83C0000F0030020B1012827
:1036C00038D0022866D000BF94F83C0000F0030018
:1036D0005A49097888421BD02620005D00EB001073
:1036E00000EB4000142190FBF1F0554908702720B1
:1036F000005D00EB001000EB4000142190FBF1F0A6
:103700005049087094F83C0000F003004B490870E1
:1037100002A803A9CDE9001005EB45014FF6FF72A1
:1037200002EA410004AB47490A78454909780AF0A2
:1037300048FE5FE094F83C0000F003003F49097840
:1037400088421AD0A08C00EB400040024FF4B471C4
:10375000B0FBF1F03C4908802720005D00EB001031
:1037600000EB4000142190FBF1F03649087094F80A
:103770003C0000F003003149087002A803A9CDE91C
:103780000010E9B204AB2F4802782F4800880AF0F5
:1037900018FE2FE094F83C0000F003002749097858
:1037A00088421AD0A08C00EB400040024FF4B47164
:1037B000B0FBF1F0244908802620005D00EB0010EA
:1037C00000EB4000142190FBF1F01D49087094F8C3
:1037D0003C0000F003001949087002A803A9EAB2EE
:1037E00004ABCDE9001016480178174800880AF0AC
:1037F000E8FD00BF00BF9DF810009DF80C109DF87B
:103800000820D708BDF8003067F304038F08009341
:10381000BDF8003067F34A13C7080093BDF80030C5
:1038200067F3CF230093BDF800703B460193BDF8CA
:103830000410084605B0F0BDC0000020BE00002006
:10384000BC000020BD000020BA00002010B50120FF
:10385000074908700748FEF7FDFB20B906480068D5
:1038600025F020FA03E00448006825F027FA10BD8F
:1038700080010020201D00208401002010B5044696
:1038800094F84200C0F3400070B9B4F8400000283A
:103890000ADDB4F840004FF6FF71884204D0B4F856
:1038A0004000401EA4F84000B4F84000D0B9A06B1E
:1038B00020B194F84200C0F3400098B121461A4864
:1038C000FEF781FCFFF7C2FFE06810B12046E16817
:1038D0008847206910B120462169884720461BF09F
:1038E000E1FB1FE0E06B40422063A06BD0B194F895
:1038F0004210C1F3400111B9616B4942216394F850
:1039000042104908C94394F8422061F3410284F807
:103910004220206AA16A2162A062E06AA16BE16292
:10392000A06300BF10BD0000201D00202DE9F04164
:1039300080464248006825F017F80646404800785F
:1039400080F001003E4908703E48FEF783FB0446C4
:103950006BE000203C49087094F84200C0F38000FE
:1039600037490978884253D0354801783034A07CF3
:1039700061F38200A07420688719A07C303CC0F3FA
:10398000C00010BB206B00281FDC002F1DDB94F84B
:10399000420000F0010060B9606950B120466169E1
:1039A00088470546206A28442062A06A2844A0620D
:1039B00000BFA06810B12046A168884794F8420073
:1039C00020F00800083084F84200206B3044206367
:1039D000206B00281BDBD4E90B10884201DDE06A74
:1039E00020632046E16988470546606AA84206D000
:1039F0006562606818B12946D4E900029047D4E9AD
:103A00000B10884202DB2046FFF738FF00BF00BFE3
:103A10000D48007820B10B48FEF71CFB044604E07B
:103A200021460848FEF72EFB0446002C91D124F0D5
:103A3000A9FF02490860BDE8F08100007C01002078
:103A400081010020201D00208001002070B5044667
:103A50000D46606818B129466068FFF7F7FF2068D7
:103A600018B1294620462268904770BD70B50546BA
:103A70000C46A1B2284610F0DCFA70BD70B50546C0
:103A80000C46A1B2284610F025FB70BD2DE9FF4F72
:103A90008FB01F46DDF888801C980E901D980D9001
:103AA00000200B902398042806D0052809D006286A
:103AB0000CD014281AD114E000200C904FF0020909
:103AC00017E001200C904FF0030912E001200C9048
:103AD0004FF00209FEF772FE05462868008F0B9032
:103AE00007E001200C904FF0020902E013B0BDE89E
:103AF000F08F00BF002489E11E9860430E9901EB0E
:103B000020201C901F9860430D9901EB20201D90F0
:103B10001C9805121D980612002D07DB109885428F
:103B200004DA002E02DB1198864203DB002008F83D
:103B3000040069E11C98C0B20A901D9800F0FF0AC9
:103B40000A98802807DA4FF0FF3B0A98C0F17F00FF
:103B500040000A9005E04FF0010B0A9880384000C1
:103B60000A90BAF1800F07DA4FF0FF300990CAF1DE
:103B70007F004FEA400A05E001200990AAF1800089
:103B80004FEA400A0F98089006FB07F000FB09F087
:103B900005FB090108980844089005EB0B00002874
:103BA0007EDB05EB0B011098401E814278DC099802
:103BB00030440028F4DB099831181198401E8142E6
:103BC000F4DC0898079008980BFB09000690099808
:103BD00000FB07F1089801FB090005900C980028EC
:103BE0007FD0239B052B06D1079B9878059B99785E
:103BF000069B9A783BE0239B142B18D1DDF844C038
:103C000007FB0CFCDDF83CE00EEB4C0306FB073C2D
:103C10001CF8050006FB073CAC441CF80B20DDF843
:103C200024C0B4440CFB073C1CF805101FE0239B88
:103C3000062B19D1079B1B88BDF82CC063450BD000
:103C4000059B1B88BDF82CC0634505D0069B1B88CF
:103C5000BDF82CC0634503D1002308F80430D3E03D
:103C6000FF20FF21FF2202E0FF20FF21FF228142EF
:103C700007D001FB0AF3CAF5807C00FB0C33C3F3C9
:103C80000721824209D00A9B5343DDF828C0CCF5B6
:103C9000807C00FB0C33C3F307228B185B1000E021
:103CA00059E008F8043018F8043003B9ACE0079B79
:103CB00093F800C05B780CEB03239BB20493059B45
:103CC00093F800C05B780CEB03239BB20393069B35
:103CD00093F800C05B780CEB03239BB202930CE0DB
:103CE000FFE70798008804900698008802900598DE
:103CF00000880390FF2008F80400BDF81000BDF80C
:103D00000C1088420CD1BDF81000BDF80810884294
:103D100006D1219800EB4400BDF81010018019E095
:103D20000AF0FF02DDE9030112F0CCFC03900A98CF
:103D3000C2B20499029812F0C5FC02907F22DDE91C
:103D4000020112F0BFFC0190219800EB4400BDF885
:103D50000410018057E008990A78497802EB0121A4
:103D60008AB2219921F814202399052904D0062923
:103D700005D0142919D10EE00899887817E0219907
:103D800031F81410BDF82C20914201D1002100E03F
:103D9000FF2108460BE0119A07FB02F10F9A02EB94
:103DA000410106FB0711485D01E0FF2000BF00BF95
:103DB00015B9BBF1000F06DB1099491EA9420BD1C2
:103DC000BBF1000F08DD0A99C1F1FF014143C1F3C6
:103DD000072108F8041015E016B90999002906DB37
:103DE0001199491EB1420AD10999002907DDCAF18A
:103DF000FF014143C1F3072108F8041002E000214C
:103E000008F8041000BF00BF601C04B22098844270
:103E1000FFF672AE00BF69E62DE9F84F04468C4606
:103E200090469946109FDDE90A56AA460096002062
:103E300032E00C9941430AEB21250D994143DDF80D
:103E400000B00BEB21262A123312002A05DB624553
:103E500003DA002B01DB434502DB0021395419E072
:103E6000214603FB09FB0BEB4B0B02EB420EF34429
:103E7000594491F800B091F801E00BEB0E2B1FFABA
:103E80008BFEDDF83CB02BF810E091F802B007F89B
:103E900000B000BF411C08B20E998842C9DBBDE8E2
:103EA000F88F000030B591B004462546A88F18B9A8
:103EB000204626F0B1FA1EE068460FF055FA294672
:103EC00068460FF007FB0D4968460FF0D6FAA98F38
:103ED00068460FF0E5FA0122002168460FF0F2FA79
:103EE000074968460FF0CDFA0648039000BF6846C0
:103EF0000FF004FB00BF11B030BD0000A1A4020808
:103F000053340108A3A4020870B504460D4600BF4F
:103F1000204600F03BF818B100BF00BF00BFFEE72D
:103F200000BF284600F050F9001D61680844606039
:103F3000204600F03AF8204670BD70B505460C46A4
:103F4000284600F041F904F11001884201D3012014
:103F500070BD0020FCE70146A1F1080070477CB568
:103F600005460C46204600F02FF906466A4601A990
:103F700025F0C0FE21462846DDE900320EF0A2F809
:103F80007CBD0146087900F00100704710B5044679
:103F9000204600F019F908B9012010BD0020FCE707
:103FA0000146087900F00200704770B504462046CB
:103FB00000F097F805462C60284670BD7CB5064693
:103FC0000C4600200190009000256CB16A4601A9C2
:103FD000204625F0ACFE01980A2805DA6A4601A9B8
:103FE000304627F061FF054685B100BF284600F046
:103FF000EBF8A04203D200BF00BF00BFFEE700BF46
:1040000029463046DDE9003227F0FAFA28467CBD21
:1040100070B504462046FFF7C8FF0546284600F065
:10402000BEF8204600F0B6F870BD70B504462046D4
:1040300000F057F80546284600F0B6F8204600F094
:10404000BEF870BD70B506460D46284600F049F82A
:10405000044600BF1CB900BF00BF00BFFEE700BFA1
:104060002046FFF78EFF90B100BF2846FFF78EFF76
:1040700018B100BF00BF00BFFEE700BF21463046B9
:1040800000F076F821462846FFF73EFF0546284611
:1040900070BD70B506460D462846FFF781FFF0B1AA
:1040A000284600F057F8044600BF1CB900BF00BF07
:1040B00000BFFEE700BF00BF2046FFF762FF18B950
:1040C00000BF00BF00BFFEE700BF2146304600F042
:1040D0004FF829462046FFF717FF054600BF284640
:1040E00070BD2DE9F0410446204600F06DF8061F32
:1040F000204600F0B8F80746314626F095F8054608
:1041000000BF2046FFF742FF18B100BF00BF00BF4D
:10411000FEE700BF2846BDE8F0812DE9F0410646E4
:104120000C461546002794B100BF1DB900BF00BF63
:1041300000BFFEE700BF2A462146304600F097F850
:104140002046FFF772FF204600F08DF807463846FC
:10415000BDE8F08110B5044600BF2046FFF720FF00
:1041600018B900BF00BF00BFFEE700BF206810BD48
:104170007CB505460C46204600F026F806466A4601
:1041800001A925F0B7FD21462846DDE9003227F0D8
:1041900037FA7CBD416841F00101416070474168D8
:1041A00041F0020141607047416821F00201416025
:1041B0007047426802F003030B4343607047416855
:1041C00021F00101416070470146486820F003007A
:1041D00070472DE9F04706460C46304600F043F89C
:1041E0008046211F26F020F807463046FFF7ECFFF7
:1041F000211D451A00BF384600F035F88146384683
:1042000000F031F880460421FFF72DF9814503D0F5
:1042100000BF00BF00BFFEE700BF00BF3046FFF792
:10422000D3FF2919091D884203D000BF00BF00BF7A
:10423000FEE700BF29463846FFF7BBFF00BF384600
:10424000FFF7C2FF0C2803D200BF00BF00BFFEE78C
:1042500000BF21463046FFF7ACFF3846FFF7D8FED7
:104260003846BDE8F087014601F1080070472DE9A6
:10427000F04106460C46154600BF2046FFF781FE7A
:1042800018B900BF00BF00BFFEE700BF29462046A7
:10429000FFF753FE78B129462046FFF79AFF0746FD
:1042A0002046FFF782FE3846FFF779FF3946304651
:1042B000FFF755FE00BFBDE8F0812DE9F04106464D
:1042C0000C46154600BF2046FFF75BFE18B100BF45
:1042D00000BF00BFFEE700BF29462046FFF72DFEC6
:1042E00088B129462046FFF774FF07463846FFF796
:1042F0005BFF39463046FFF7A5FE07463946304694
:10430000FFF72DFE00BFBDE8F08100007CB504463C
:10431000204616F0DFFE0546002128461CF0F9FE77
:10432000064609A11AF08CFA0020002141EA511139
:1043300041EAD0010091BDF8002011460022284634
:10434000019120F0A7FE7CBD436C69636B6564211D
:10435000000000002DE9F8430646344618F02EFE12
:104360008046404618F06FFE78BB304616F0C7FB1B
:1043700038B3304616F033FA208FE18E884212D0DF
:10438000E08E2087E08E00906A461C21304616F0B1
:10439000A7FE0746012F02D03846BDE8F883304615
:1043A0001FF042FA00BF404618F05DFE0546042D9E
:1043B00006D130461CF0BAFF0746002117F066FD13
:1043C00009E0304616F0FEFB05E0FFE7208FE086AF
:1043D00030461FF029FA0120DFE72DE9F0410446BD
:1043E000204616F077FE054628461CF0F9FF0646E3
:1043F000284610F009FF074600223946304623F0D0
:10440000A9FCBDE8F0810146C1F3002070470146D8
:10441000C1F3C01070470146C1F300207047014648
:10442000C1F3402070470146C1F3001070470146B8
:10443000C1F3801070470146C1F3802070470146E8
:10444000C1F3C02070470146C1F34010704700001F
:104450002DE9F04F89B004460D46002120461CF09E
:1044600058FE30B91C2128461AF0F2FF09B0BDE809
:10447000F08F2946204600F00BFB2946204600F02D
:104480007DF8002120461EF07FF80890002120468C
:104490001EF0D6F90790002120461DF034FE0128B9
:1044A00000D100E000208146002120461EF06EFC75
:1044B0000746002120461DF00DFF064642F2D1704E
:1044C000874205D1608CC0F3C02008B9012000E00C
:1044D0000020824620461CF0BCFE069000BF4FF034
:1044E000000824480288414620461EF069FA0390DD
:1044F0000398C0B200BF8346AA6829692868CDE93D
:104500000209CDE900125A465146089B06980CF064
:10451000FDFA288342F2D170864205D1608CC0F347
:10452000802008B9012000E00020059020461CF002
:1045300071FE049000BF4FF000080F48028841460A
:1045400020461EF03DFA03900398C0B200BF834698
:104550000023EA6869686869CDE90213CDE90002C1
:104560005A46079BDDE904010CF0D0FA688300BFCE
:104570007CE70000480100204C0100202DE9F34FAA
:1045800087B00C4607980BF013FB804607981CF089
:1045900060FE0690404601F0DCFA20612169480087
:1045A0001AF0ECFC2060216948001AF0E7FCA060DA
:1045B000002548E05848029038F9150041F69A71F4
:1045C00088423FD10020019029E0019907981CF012
:1045D000A0FD0090514900981EF06DFD00B11BE058
:1045E00000980BF003FB8246BAF1010F00D013E0F4
:1045F00000980BF0EBFA8346AB4500D00CE0009836
:104600001EF0F1FC0299884201DA029802E000985B
:104610001EF0E9FC029000BF0198401C0190079831
:104620001CF095FD01998842CFD80298002804DB40
:104630000298A16821F8150003E00021A06820F885
:10464000151000BF6D1C2069A842B3D80026B146E2
:1046500000251BE038F9150041F69B71884202DB0A
:10466000411A0E4411E041F69A71884206D1A168C0
:1046700031F8151049440FFA81F906E0A16821F8D4
:10468000150009EB00010FFA81F96D1C2069A842A1
:10469000E0D8002107981DF077FF05902169491E99
:1046A000DDE9050200FB112000B206900698A0EBA0
:1046B000090007B2002F00DA00274FF0FF30049006
:1046C00000200390002513E038F9150041F69B7196
:1046D00088420CDB421A11B207FB01F2B2FBF6F280
:1046E00012B2A36823F815200495039100BF6D1C36
:1046F0002069A842E8D8049800280ADB0398301AF9
:104700007843B0FBF6F0381A01B2A268049822F898
:10471000101009B0BDE8F08F01E0FFFF01000600B6
:104720002DE9FC5F054600221146284620F0F4F9E9
:10473000002128461DF043FD8146002128461EF039
:10474000A3F8484407B2002128461DF081FE4844E2
:104750000FFA80FA28461DF037FC384450440FFA0F
:1047600080FB3B4E28461CF0F2FC01904FF0000805
:104770005CE0A868006850F82840364920461EF0E2
:104780009AFC00B150E020461FF0C6F8002839D14D
:10479000002120461DF049FC0090009830B101280E
:1047A00007D0022804D0032815D100E000BF00BFC5
:1047B00000BFB4F91A10B5F91600081A401CB0422F
:1047C00001DA304605E0B4F91A10B5F91600081AF6
:1047D000401C06B214E0002120461EF0FBFA70B91E
:1047E00004F114000FF059FD3844B04201DA3046AC
:1047F00004E004F114000FF050FD384406B200BF8D
:1048000000BF10E0B4F91A10B5F91600081A401CE0
:10481000B04201DA304605E0B4F91A10B5F91600D5
:10482000081A401C06B200BF08F101080198804533
:104830009FD30748864209D006EB0A0006B25E45C0
:1048400002DD3046BDE8FC9F5846FBE75846F9E7D5
:1048500001E0FFFF010004002DE9FC5F0546002296
:104860001146284620F03CF9002128461DF0A7FCFF
:104870008246002128461DF053FF50440FFA80F86D
:10488000002128461DF0B0FE50440FFA80F928465A
:104890001DF0AAFB4844404400B20190724C2846E7
:1048A0001CF055FC8346002128461DF0FCFB012826
:1048B00066D100265BE0A868006850F826706B4956
:1048C00038461EF0F8FB00B150E038461FF024F8DF
:1048D000002839D1002138461DF0A7FB0090009830
:1048E00030B1032805D0062804D0082815D102E0ED
:1048F00000BF00BF00BFB5F91800B7F91410401A87
:10490000401CA04201DA204605E0B5F91800B7F9CD
:104910001410401A401C04B214E0002138461EF066
:104920004DFA70B907F114000FF02AFD4044A0427F
:1049300001DA204604E007F114000FF021FD4044A5
:1049400004B200BF00BF10E0B5F91800B7F91410A9
:10495000401A401CA04201DA204605E0B5F91800D3
:10496000B7F91410401A401C04B200BF761C5E4513
:10497000A1D33D48844269D004EB090004B265E04C
:1049800000265BE0A868006850F826703749384672
:104990001EF091FB00B150E038461EF0BDFF80BB19
:1049A000002138461DF041FB0090009830B10128ED
:1049B00005D0042804D0072815D102E000BF00BFAD
:1049C00000BFB7F91800B5F91410401A401CA042F6
:1049D00001DA204605E0B7F91800B5F91410401ABD
:1049E000401C04B215E0002138461EF0F3F978B9F6
:1049F00007F114000FF0C4FC4844A04202DA20463C
:104A000005E008E007F114000FF0BAFC484404B2D6
:104A100000BF00BF10E0B7F91800B5F91410401A34
:104A2000401CA04201DA204605E0B7F91800B5F9AC
:104A30001410401A401C04B200BF761C5E45A1D37E
:104A40000948844202D004EB080004B206488442BC
:104A500002D10198BDE8FC9F0198844201DD204607
:104A6000F8E70198F6E7000001E0FFFF010004000D
:104A700010B5044620681AF0FDFA60681AF0FAFAD8
:104A8000A0681AF0F7FAE0681AF0F4FA10BD000016
:104A90002DE9F34F87B00C4607980BF04DFE80468A
:104AA000404601F056F86061616948001AF066FA04
:104AB0006060616948001AF061FAE060002547E033
:104AC0005948029038F9150041F69A7188423ED152
:104AD0004FF0000A29E0514607981CF01AFB01909C
:104AE000524901981EF0E7FA00B11CE001980BF062
:104AF000E5FE8346BBF1010F00D014E001980BF0F6
:104B0000CDFE00900098A84200D00CE001981CF067
:104B100017FC0299884201DA029802E001981CF021
:104B20000FFC029000BF0AF1010A07981CF00FFB6E
:104B30005045D0D80298002804DB0298E16821F89B
:104B4000150003E00020E16821F8150000BF6D1C8E
:104B50006069A842B4D80026B14600251BE038F9A8
:104B6000150041F69B71884202DB411A0E4411E0A8
:104B700041F69A71884206D1E16831F8151049442E
:104B80000FFA81F906E0E16821F8150009EB000150
:104B90000FFA81F96D1C6069A842E0D800210798DE
:104BA0001DF04EFE069007981CF034FB014662692A
:104BB000521E069800FB121000B205900598A0EB5B
:104BC000090007B2002F00DA00274FF0FF300490F1
:104BD00000200390002513E038F9150041F69B7181
:104BE00088420CDB421A11B207FB01F2B2FBF6F26B
:104BF00012B2E36823F815200495039100BF6D1CE1
:104C00006069A842E8D8049800280ADB0398301AA3
:104C10007843B0FBF6F0381A01B2E268049822F843
:104C2000101009B0BDE8F08F01E0FFFF01000600A1
:104C300038B5044600256E22294620461DF0C0FEE8
:104C40000090009800B208B1022038BD00256D2206
:104C5000294620461DF0B4FE0090009800B2B0F541
:104C6000807F01D00220F0E70025612229462046FE
:104C70001DF0A6FE00900098C0B2FF2801D00120D0
:104C8000E3E700256822294620461DF099FE0090A2
:104C90000098C0B208B10120D7E70020D5E77CB565
:104CA00004460D46164628882189084400B2ADF80E
:104CB000000068886189084400B2ADF80200A88845
:104CC0002189084400B2ADF80400E88861890844ED
:104CD00000B2ADF80600324669462046636998473F
:104CE0007CBD0000F8B505460E462C46A06B58B1B9
:104CF000284623F021FC0746114909688847A16B23
:104D0000884201D30020F8BD606B10B1606B007861
:104D100008B90120F7E7002000900AE06946094A37
:104D2000606B126890470746B74201D10120EAE75D
:104D300000BF606B0099405C0028EFD100BFE2E744
:104D4000F4010020E40100202DE9FF4F8FB00F4651
:104D5000209DF87800F0010008B1F94800E0F9481A
:104D60000E90F87800F0010008B1F74800E0F7482D
:104D70000D90F87800F0010008B9F34800E0F3481E
:104D80000C9001200B90BEE000210B91002069885F
:104D9000B5F804C0A1EB0C010AB200261AE006EB3C
:104DA000860CE96801EB8C01097C01F0010141B935
:104DB00006EB860CE96801EB8C018989014408B295
:104DC00007E006EB860CE96801EB8C010989511AB2
:104DD0000AB2761C2969B142E1D800268EE006EBC2
:104DE000860CE96801EB8C01097C01F001010029C6
:104DF0007DD100BF18B900BF00BF00BFFEE700BFF4
:104E000092FBF0F80FFA88F306EB8609D5F80C80D0
:104E100008EB8908B8F80C8008FB03F80FFA88F152
:104E200006EB8609D5F80C8008EB8908B8F90490E0
:104E300006EB860AD5F80C8008EB8A08B8F90680DC
:104E4000884501DD884607E006EB860AD5F80C8028
:104E500008EB8A08B8F90680C14508DD06EB86092B
:104E6000D5F80C8008EB8908B8F9048013E006EB4C
:104E70008609D5F80C8008EB8908B8F906808845C2
:104E800001DD884607E006EB8609D5F80C8008EBC3
:104E90008908B8F90680C4468C450BD04FF001084C
:104EA00006EB860AD5F80C9009EB8A09C9F8108040
:104EB000CDF82C8006EB8609D5F80C8008EB890824
:104EC000A8F808C006EB8609D5F80C8008EB89081D
:104ED000B8F80C80A0EB08080FFA88F006EB8609FA
:104EE000D5F80C8008EB8908B8F8088000E004E0E9
:104EF000A2EB08080FFA88F200BF761C2969B142BC
:104F00003FF66DAF00BF0B9800287FF43DAF002146
:104F10000F981DF0ECF8012800D100E000200A9065
:104F200000200990089008A809A9CDE90010298956
:104F30000BB2B5F9022038781E9925F078F9F87887
:104F400000F0010048B10A9838B10F981CF081F9BF
:104F5000BDF82410084400B2099011990F981CF074
:104F6000D8F804468FE17A4920461EF0A4F840B1F3
:104F7000F878C0F3800111AA0F980BF00EFA0446DE
:104F800081E1002120461DF071F907900798002863
:104F900060D000200390002610E006EB8601E86850
:104FA00050F82100A04208D106EB8600E96801EB29
:104FB0008000B0F90800039003E0761C2869B04235
:104FC000EBD800BFF87800F0010050B1608C20F4FD
:104FD000006000F500606084608C20F48060608474
:104FE00009E0608C20F4806000F580606084608C53
:104FF00020F40060608404F114000D99884703993F
:10500000884226D020461EF00FFC00BFA08AADF8D3
:105010000400E08AADF80600208BADF80800608B34
:10502000ADF80A0000BF04F114000E9A03999047EE
:1050300001AA2921204616F053F820461CF0D0F989
:1050400022462221009016F04BF820461EF0ECFB81
:1050500000BF07E0608C20F400606084608C20F466
:1050600080606084002006907878012812D00228A1
:1050700019D104F114000C998847B5F90010491CA6
:1050800021F00101081A039000EBD070401000B22B
:10509000069009E004F114000C9988472988081A41
:1050A00000B2069000E000BF00BFF87800F00100F9
:1050B00050B10A9840B104F114000D998847BDF829
:1050C0002410081A00B20990002003906B22204699
:1050D00003991DF075FC029002980FFA80F800BF4A
:1050E000002003906C22204603991DF069FC029079
:1050F00002980FFA80F900BF20461DF074FF05905A
:1051000020461CF01DF9049008F4C040B0F5005F83
:1051100001D1012000E0002030B128F4C040B0F5FA
:10512000FA6F01DC012000E00020E0B128F4C0406B
:10513000B0F57A7F0EDD28F4C040C0F57A700BE040
:10514000CD440108C14401081B440108FD42010887
:105150000100060028F4C04005994843642190FBF3
:10516000F1F00FFA80F809F4C040B0F5005F01D10A
:10517000012000E0002030B129F4C040B0F5FA6F02
:1051800001DC012000E0002090B129F4C040B0F51E
:105190007A7F04DD29F4C040C0F57A7001E029F47B
:1051A000C04004994843642190FBF1F00FFA80F964
:1051B000A18A1C98401A40440FFA80FAE18A1D988F
:1051C000401A48440FFA80FBF87800F0010010B153
:1051D000BDF9240000E0069850440FFA80FAF878F0
:1051E00000F0010008B1069801E0BDF92400584420
:1051F0000FFA80FBBAF1000F02D1BBF1000F1BD0F8
:1052000020461EF011FBA08A504400B2A082208BE1
:10521000504401B22183E08A584401B2E182608B9C
:10522000584401B2618320461EF0FEFA00235A461C
:10523000514620461EF0D0FBF87800F0010008B17E
:105240000A9870B904F114000D9988471F99084411
:10525000BDF820100844BDF82410084400B209909D
:1052600008E0BDF820101F980844BDF82410081A63
:1052700000B20990F878C0F3800111AA0F980BF0E2
:105280008CF8044600BF24B1DDE9111081427FF49F
:105290006AAE13B0BDE8F08F2DE9F04F8DB0054632
:1052A0008946B9F1000F02D10DB0BDE8F08FA5F825
:1052B0001890286810B1286819F0F4FE09EB49012C
:1052C000062202EB410019F00FFE286000BF28689B
:1052D00018B900BF00BF00BFFEE700BF28686860C4
:1052E0000221286801FB0900801CE860042128686D
:1052F00001FB0900001DA860B9F1010F0CD1B42019
:10530000696808700020E96808800120E968488021
:105310000020A9680880C7E709F10101C80019F059
:105320002DFE074609F1010007EB80084FF0000A47
:105330004FEA890002B20BA90CA800F067F900241B
:10534000BDF930008010079000200390CCE00026CB
:1053500016E00BA90CA800F061F90CA800F04BF9BD
:1053600000B90FE0BDF93000801007A941F8260010
:10537000BDF8300000F0030003A941F82600761CB8
:10538000042EE6DB00BF042E00D0B3E00A99079894
:10539000884219D1079800B227F814000FFA8AF052
:1053A00028F81400DDE9030108440599084406992A
:1053B0000844696808556868005D0007000E696860
:1053C0000855601C04B28DE0DDE9070188422CD04D
:1053D000079800B227F814000FFA8AF028F8140092
:1053E0000398696808556868005D0007000E6968E1
:1053F0000855601C04B20798401E00B227F814003C
:105400000FFA8AF028F814000498001D0599084442
:1054100006990844696808556868005D0007000E31
:1054200069680855601C04B25CE0099907988842D5
:105430002CD0079800B227F814000FFA8AF028F849
:105440001400DDE903010844696808556868005DD7
:105450000007000E69680855601C04B20798401EDA
:1054600000B227F814000FFA8AF028F81400059803
:10547000083006990844696808556868005D0007A7
:10548000000E69680855601C04B22BE0079800B252
:1054900027F814000FFA8AF028F81400DDE9030158
:1054A000084405990844696808556868005D000764
:1054B000000E69680855601C04B20798401E00B2CF
:1054C00027F814000FFA8AF028F8140006980C3018
:1054D000696808556868005D0007000E696808552E
:1054E000601C04B20AF1010A0CA800F084F800283C
:1054F0007FF42DAF00BF40F2D32109FB01F00290F1
:10550000029880120190601E37F9101001988142B4
:1055100005D1601E38F910100198814226D0DDE9CE
:105520000121A1EB8220B0F5007F04DC00FB00F13B
:105530004800001407E0C0F5806000FB00F148005F
:105540000014C0F10F00019909B227F81410019955
:1055500009B228F814106A6810556968095D0907CE
:10556000090E6A681155611C0CB200BFA61E0EE040
:1055700038F8160027F8140037F8160028F8140039
:105580006868805D69680855761E601C04B2002E4C
:10559000EEDA4FF0000B00260020E968088023E0D7
:1055A000E96821F81B6037F81600A96821F81B008C
:1055B00010E0A86830F81B0037F91610884203DAAB
:1055C000A86830F81B0001E037F91600A96821F837
:1055D0001B00761C38F91600584501D1A642E8DBBD
:1055E0000BF101000FFA80FBA642D9DB384619F017
:1055F00041FD00BF58E60146B1F90200B1F90020B3
:10560000904201DC012070470020FCE7028000236B
:105610004380C2F101031BB20B807047B1F9002037
:10562000002A07DC0B8842885200D21C1A4412B2AE
:105630000A800CE042880388D21A5200521D0B885F
:105640001A4412B20A800288521E12B202804288A4
:10565000521C12B24280704737B582B01546022DF7
:1056600004DCBDF80C10084605B030BDBDF80C00D8
:10567000C00ABDF8081000EBD1241F2C01D220462F
:1056800000E01F20BDF8081060F3CF210291BDF8A3
:105690000C00C0F34510BDF80810C1F345114418C3
:1056A0003F2C01D2204600E03F20BDF8081060F3F7
:1056B0004A110291BDF80C0000F01F00BDF808105F
:1056C00001F01F0144181F2C01D2204600E01F20CA
:1056D000BDF8081060F304010291FF2D03D1BDF85D
:1056E00008100846C0E72A46DDE9020110F0C8FFAD
:1056F0000190BDF804100846B6E717B581B014460E
:10570000022C04DCBDF80810084604B010BDBDF83A
:105710000400C00ABDF80810C90A48434109BDF891
:10572000040061F3CF200190BDF8040000F01F00D9
:10573000BDF8081001F01F0148434109BDF80400FD
:1057400061F304000190BDF80400C0F34510BDF8FA
:105750000810C1F3451148438109BDF8040061F305
:105760004A100190FF2C03D1BDF804100846CCE785
:105770002246DDE9010110F083FF0090BDF8001022
:105780000846C2E737B582B01546022D04DCBDF8E5
:105790000C10084605B030BDBDF80C00C00ABDF8BD
:1057A0000810A0EBD124002C01DD204600E00020F1
:1057B000BDF8081060F3CF210291BDF80C00C0F3D2
:1057C0004510BDF80810C1F34511441A002C01DD45
:1057D000204600E00020BDF8081060F34A11029155
:1057E000BDF80C0000F01F00BDF8081001F01F010B
:1057F000441A002C01DD204600E00020BDF808100E
:1058000060F304010291FF2D03D1BDF80810084692
:10581000C0E72A46DDE9020110F032FF0190BDF831
:1058200004100846B6E708B50346009300984840C0
:1058300080EA620008BD2DE9FC5F8246504615F003
:1058400049FC0190504615F0E4FB064601981BF018
:10585000C7FD0746BB462B2E09D1384622F06DFA0C
:10586000044600222146384622F074FA5FE00A2EF0
:105870005DD117F0A3FB8046B8F1000F05D098F872
:105880000400012801D1BDE8FC9F694601981BF086
:1058900029FE9BF82C0000F00C00F8B101981BF0D9
:1058A000D8FC0546002138461CF015FC01280AD119
:1058B000284605EBD071BDF90020C2EB610191FBD8
:1058C000F5F10CB209E0284605EBD071BDF90020D6
:1058D00002EB610191FBF5F10CB20EE001981BF0B7
:1058E00099FC0546284605EBD071BDF9022002EB74
:1058F000610191FBF5F10CB200BF002C00DA00242D
:105900004FF00009384622F018FAA04201D04FF0BB
:10591000010901222146384622F01CFAB9F1000F94
:1059200004D000221C21384615F0DAFB00BF00BF6E
:10593000A9E710B58060C06000230361002110E07A
:10594000002400F1140343F82140002206E000F196
:105950003C0303EBC11343F82200521C202AF6DB60
:10596000491C0A29ECDB10BD2DE9FF4F87B0054625
:10597000DDE9178ADDF85890149F089CB9F1040FEF
:1059800002D0B9F1060F58D128460EF0E1FC83464B
:105990005946504619F093FDB5F90200784341008D
:1059A000B5F9000001EB4000044428460EF012FD5A
:1059B0000590059840000490780000B20390CDF85F
:1059C0000880B5F902600DE02146049A029819F0AA
:1059D000BDFB039804440599029800EB4100029036
:1059E000701C06B2B5F90600B042EDDAB9F1060F47
:1059F00022D14FF47F414FF0000C01F47C4E4CEA71
:105A00005E1CC1F3C40E4CEA0E0CCDF800C0BDF80C
:105A100000E0F446CDF804C04246BDF80430002052
:105A200007E032F81010994202D100210AF8001064
:105A3000401C5845F5D300BF88E0B9F1050F41D1AE
:105A4000B5F90200784300EB4000B5F9001001EB16
:105A500041010844044428460EF0BCFC381A00B248
:105A60000590059800EB400000B2049028460EF027
:105A700030FC039028460EF0ADFC834600261DE066
:105A80000020069010E0A17806980AF8001020780F
:105A9000617800EB012081B2069828F81010E41C10
:105AA0000698401C00B2069006985845EBDB08EBC0
:105AB0004B08DA4404980444701C06B203988642EA
:105AC000DEDB43E0B9F1140F40D1B5F902007843B1
:105AD0004100B5F9000001EB40000444780000B239
