:020000040800F2
:10000000280600204501000845040008CD0200082C
:1000100041040008B10100082F0A00080000000098
:10002000000000000000000000000000E5050008DE
:10003000B501000800000000CD040008D10600084A
:100040005F0100085F0100085F0100085F01000810
:100050005F0100085F0100085F0100085F01000800
:100060005F0100085F0100085F0100085F010008F0
:100070005F0100085F0100085F0100085F010008E0
:100080005F0100085F0100085F0100085F010008D0
:100090005F0100085F0100085F0100085F010008C0
:1000A0005F0100085F0100085F0100085F010008B0
:1000B0005F010008350700085F0100085F010008C4
:1000C0005F0100085F0100085F0100085F01000890
:1000D0005F0100087D0700085F0100081D08000897
:1000E0005F0100085F0100085F0100085F01000870
:1000F0005F0100085F0100085F0100085F01000860
:100100005F0100085F0100085F0100085F0100084F
:100110005F0100085F0100085F0100085F0100083F
:100120005F0100085F0100085F0100085F0100082F
:10013000DFF80CD000F02AF800480047950B0008C3
:10014000280600200648804706480047FEE7FEE7ED
:10015000FEE7FEE7FEE7FEE7FEE7FEE7FEE7FEE777
:10016000D506000831010008D2B201E000F8012BE9
:10017000491EFBD270470022F6E710B513460A4627
:1001800004461946FFF7F0FF204610BD064C074D08
:1001900006E0E06840F0010394E807009847103457
:1001A000AC42F6D3FFF7C8FF9C0B0008BC0B00085D
:1001B00000BFFEE770472DE9F0410246002500260A
:1001C000002000230024002791F803C00CF00F0545
:1001D00091F803C00CF0100CBCF1000F03D091F8A3
:1001E00002C04CEA050591F800C0BCF1000F31D007
:1001F000146800202BE04FF0010C0CFA00F3B1F86A
:1002000000C00CEA03069E4220D183004FF00F0C81
:100210000CFA03F7BC4305FA03FC4CEA040491F81A
:1002200003C0BCF1280F06D14FF0010C0CFA00FC02
:10023000C2F814C00AE091F803C0BCF1480F05D120
:100240004FF0010C0CFA00FCC2F810C0401C08284A
:10025000D1D31460B1F800C0BCF1FF0F34DD546895
:1002600000202EE000F1080C4FF0010808FA0CF312
:10027000B1F800C00CEA03069E4221D183004FF082
:100280000F0C0CFA03F7BC4305FA03FC4CEA040418
:1002900091F803C0BCF1280F05D100F1080C08FA51
:1002A0000CF8C2F8148091F803C0BCF1480F07D1D4
:1002B00000F1080C4FF0010808FA0CF8C2F81080A1
:1002C000401C0828CED35460BDE8F08100BFFEE793
:1002D00000B587B00121880300F00AF9012104204C
:1002E00000F006F918208DF81B004FF40070ADF8EF
:1002F000180003208DF81A0006A92148FFF75BFFBC
:1003000048208DF81B004FF48060ADF818000320E2
:100310008DF81A0006A91A48FFF74DFF4FF4E13097
:1003200002900020ADF814000C20ADF8120000205F
:10033000ADF81000ADF80E00ADF80C0002A91148A0
:1003400000F000FB012240F225510E4800F0D5FAE2
:100350004FF4A06000F0B0F825208DF804000120D3
:100360008DF807008DF805008DF8060001A800F053
:100370006BF80121034800F07DFA07B000BD0000D2
:10038000000801400038014000B587B00121880411
:1003900000F09EF80121082000F0AAF818208DF83E
:1003A0001B004FF48060ADF8180003208DF81A0090
:1003B00006A92148FFF7FFFE48208DF81B004FF4E7
:1003C0000060ADF8180003208DF81A0006A91A483D
:1003D000FFF7F1FE4FF4E13002900020ADF8140079
:1003E0000C20ADF812000020ADF81000ADF80E00A2
:1003F000ADF80C0002A9114800F0A4FA012240F265
:1004000025510E4800F079FA4FF4A06000F054F83E
:1004100027208DF8040001208DF807008DF80500D5
:100420008DF8060001A800F00FF80121034800F044
:1004300021FA07B000BD0000000C01400048004058
:1004400000BFFEE77047000070B5002100230F22B7
:10045000C47804B3154C246804F4E064C4F5E06483
:10046000210AC1F10403CA40447804FA03F18478F4
:100470001440214309010E4C0678A155047804F07C
:100480001F050124AC4005786D11AD0005F1E02594
:10049000C5F8004109E0047804F01F050124AC40D0
:1004A000044D0678761145F8264070BD0CED00E04D
:1004B00000E400E080E100E002490143024A1160EB
:1004C000704700000000FA050CED00E070470000E6
:1004D00029B1064AD2690243044BDA6104E0034AB7
:1004E000D2698243014BDA6170470000001002407C
:1004F00029B1064A92690243044B9A6104E0034A17
:1005000092698243014B9A617047000000100240DB
:1005100030B500210022002400232D4D6D6805F028
:100520000C0121B1042905D0082923D105E0294D6A
:10053000056022E0274D05601FE0254D6D6805F43C
:100540007012234D6D6805F48034022505EB92424C
:100550001CB9214D554305600BE01D4D6D6805F438
:1005600000351DB11C4D5543056002E0194D554342
:10057000056002E0174D056000BF00BF144D6D68B7
:1005800005F0F0010909154D6B5C0568DD4045601B
:100590000F4D6D6805F4E061090A104D6B5C45680C
:1005A000DD4085600A4D6D6805F46051C90A0B4D48
:1005B0006B5C4568DD40C560054D6D6805F44041E4
:1005C000890B074D6B5CC568B5FBF3F5056130BD64
:1005D0000010024000127A0000093D0000000020D7
:1005E00010000020704710B500F002F810BD0000A8
:1005F0000CB50020019000903348006840F4803032
:100600003149086000BF3048006800F400300090B5
:100610000198401C0190009818B90198B0F5A06F9E
:10062000F1D12948006800F4003010B10120009099
:1006300001E0002000900098012843D12348006881
:1006400040F01000214908600846006820F00700CB
:1006500008600846006840F0020008601A484068D8
:10066000194948600846406848600846406840F4B8
:10067000806048600846406820F47C104860084666
:10068000406840F4E81048600846006840F0807018
:10069000086000BF0C48006800F000700028F9D026
:1006A0000948406820F00300074948600846406850
:1006B00040F00200486000BF0348406800F00C00B2
:1006C0000828F9D10CBD00000010024000200240B3
:1006D0007047000010B51348006840F00100114950
:1006E000086008464068104908400E4948600846BE
:1006F00000680E4908400B4908600846006820F46D
:10070000802008600846406820F4FE0048604FF4EE
:100710001F008860FFF767FF4FF000600449086022
:1007200010BD0000001002400000FFF8FFFFF6FEC1
:1007300008ED00E010B50121054800F00EF830B1D9
:100740000121034800F006F8012000F015FA10BD61
:1007500000040040CA430282704730B502460020C0
:1007600000230024158A05EA0103958905EA01049E
:1007700013B10CB1012000E0002030BD10B540F2F3
:1007800025511D4800F08FF8012834D11A4800F097
:1007900045F9C4B219481A490988445418480088D0
:1007A000022822DB16480088401E1449085C0D28E8
:1007B0001BD1084612490988405C0A2815D100213E
:1007C0000E4A0F480088401C115400200C49088034
:1007D00011460CA000F034F9084800F035F84FF449
:1007E00080710648FFF7C7FC04E005480088401CFC
:1007F0000349088000BF10BD0038014024000020DC
:10080000140000200D0A434D445F524543494556AC
:1008100045443A2025730D0A0000000010B540F24F
:100820002551074800F03FF8012808D1044800F09E
:10083000F5F8C4B2214603A000F002F900BF10BDD4
:10084000004800402563000010B504460BE014F892
:10085000011B074800F0E7F800BF8021044800F0C2
:1008600015F80028F9D020780028F0D110BD00003C
:100870000048004021B1828942F40052828104E0A4
:1008800082894DF6FF731A4082817047024600202C
:10089000B1F5007F00D100BF13880B400BB10120E0
:1008A00000E00020704770B50246002400230025B8
:1008B000002040F66A16B14200D100BFC1F34215D4
:1008C00001F01F03012606FA03F3012D02D19689D8
:1008D000334006E0022D02D1168A334001E0968AA9
:1008E00033400C12012606FA04F41688344013B182
:1008F0000CB1012000E0002070BDF0B503460024DB
:1009000000260025002040F66A17B94200D100BF3A
:100910001846C1F3421401F01F06012707FA06F535
:10092000012C01D10C3004E0022C01D1103000E088
:1009300014301AB107682F43076002E00768AF431D
:100940000760F0BD2DE9F04786B005460E4600244D
:10095000A24600BFA1460027B08900B100BF2F46C4
:100960002C8A4CF6FF700440F08804432C82AC893A
:100970004EF6F3100440B08831890843718908436A
:100980000443AC81AC8A4FF6FF400440B089044375
:10099000AC8201A8FFF7BCFD1F48874202D1DDF8F9
:1009A00010A001E0DDF80CA0A88900F4004040B1DF
:1009B0000AEBCA0000EB0A1031684900B0FBF1F8FD
:1009C00007E00AEBCA0000EB0A1031688900B0FBAF
:1009D000F1F86420B8FBF0F004012009642101FB68
:1009E0001089A88900F4004040B1322000EBC90012
:1009F000B0FBF1F000F00700044308E0322000EB08
:100A000009106421B0FBF1F000F00F0004432C81C9
:100A100006B0BDE8F0870000003801400146888834
:100A2000C0F308007047C1F308028280704700BF1E
:100A3000FEE710B5FFF74CFCFFF7A6FC10BD000069
:100A40000FB4054B10B503A9044A029800F017F83B
:100A500010BC5DF814FB0000550B000820000020BE
:100A600002E008C8121F08C1002AFAD17047704777
:100A7000002001E001C1121F002AFBD170472DE9BF
:100A8000F84F9946924688460546002706E02528F5
:100A90000AD051464A4690476D1C7F1C2878002892
:100AA000F5D13846BDE8F88F002315F8011F184628
:100AB0002E2915D115F8011F04232A290DD06FF016
:100AC0002F022978A1F13004092C09D800EB80000D
:100AD00002EB400008446D1CF3E758F8040B6D1C52
:100AE0002A78002ADDD0632A07D0732A0FD0104657
:100AF00051464A4690477F1C2AE018F8042B8DF88F
:100B0000002000218DF801106E46012103E058F805
:100B1000046B4FF0FF315A074FF0000401D409E095
:100B2000641C84420BDA8C42FADB325D002AF7D176
:100B300005E0641C8C42FCDB305D0028F9D12744C1
:100B400004E016F8010B51464A469047641EF8D25D
:100B50006D1CA3E770B504460D4600BF8021054813
:100B6000FFF794FE0028F9D0E1B20248FFF75BFFDF
:100B7000204670BD003801400021044A117004492C
:100B800009680144024A1160704700001C000020FF
:100B900018000020FFF74DFF00BFFEE7BC0B000868
:100BA0000000002024000000600A0008E00B00089C
:100BB0002400002004060000700A00080000000065
:100BC00001020304010203040607080902040608DF
:100BD0000000000000000000000000000000000015
:0400000508000131BD
:00000001FF
