:020000040800F2
:1000000060B9002045010008391200082F0E0008D1
:10001000351200089B0C00087F1A00080000000041
:100020000000000000000000000000008114000833
:100030009F0C000800000000C11200086D150008A8
:100040005F0100085F0100085F0100085F01000810
:100050005F0100085F0100085F0100085F01000800
:100060005F0100085F0100085F0100085F010008F0
:100070005F0100085F0100085F0100085F010008E0
:100080005F0100085F0100085F0100085F010008D0
:100090005F0100085F0100085F0100085F010008C0
:1000A0005F0100085F0100085F0100085F010008B0
:1000B000D1150008151600085F0100085F0100084F
:1000C0005F0100085F0100085F0100085F01000890
:1000D0005F0100088D1700085F0100082D18000857
:1000E0005F0100085F0100085F0100085F01000870
:1000F0005F0100085F0100085F0100085F01000860
:100100005F0100085F0100085F0100085F0100084F
:100110005F0100085F0100085F0100085F0100083F
:100120005F0100085F0100085F0100085F0100082F
:10013000DFF80CD000F0C4FB00480047F5B202081D
:1001400060B900200648804706480047FEE7FEE702
:10015000FEE7FEE7FEE7FEE7FEE7FEE7FEE7FEE777
:1001600071150008310100082DE9F05F05460020F7
:1001700092469B4688460646814640241BE0284618
:1001800041464746224600F0EBFA53465A46C01A0B
:10019000914110D311461846224600F0D2FA2D1A8A
:1001A00067EB01084F4622460120002100F0C9FA02
:1001B00017EB00094E41201EA4F10104DFDC484684
:1001C00031462A464346BDE8F09F10B5431A934294
:1001D00009D28318881803E010F8011D03F8011DE7
:1001E000521EF9D210BD40EA01039B0703D009E07B
:1001F00008C9121F08C0042AFAD203E011F8013B13
:1002000000F8013B521EF9D210BDD2B201E000F855
:10021000012B491EFBD270470022F6E710B51346AA
:100220000A4604461946FFF7F0FF204610BD30B5D8
:1002300005462A460B4612F8010B13F8014B08B18C
:10024000A042F8D01CB1002802D06D1CF1E728466E
:1002500030BD421C10F8011B0029FBD1801A7047E9
:1002600010B5002200E0521C835C8C5CA34201D1DB
:10027000002BF8D1D8B2E1B2401A10BD034611F8F4
:10028000012B00F8012B002AF9D118467047000015
:100290000FB400B58DB010A909900B9000914FF0EC
:1002A000FF300A9000200C90054806900548079002
:1002B0006A4609A80F9900F077FA0DB05DF814FBB3
:1002C000C5070008E30700082DE9FF5F1D464FF052
:1002D000FF3BD5E9014691465F464FF00008A9690A
:1002E0007F1C01988847296A824688470028F6D1F2
:1002F000BAF1FF3F0CD024F4C064002E19DD600673
:1003000014D5BAF12B0F09D0BAF12D0F0ED103E09D
:10031000584604B0BDE8F09F44F48064A9697F1C8E
:1003200001988847761E8246002E02DDBAF1300F12
:1003300003D0B9F1000F26D032E0A969761E44F44B
:1003400000747F1C019888478246002E05DDBAF1B3
:10035000780F06D0BAF1580F03D0B9F1000F10D0C2
:100360001EE0B9F1000F02D0B9F1100F18D1A96940
:10037000761E24F400747F1C019888478246102062
:1003800002E0082000E00A20814609E008FB090895
:10039000A969761E44F400747F1C01988847824640
:1003A000002E05DD4946504600F0EAF90028EDDA56
:1003B000E96901988847A00502D46FF00100A8E719
:1003C000E00725D1600613D5600502D5C8F100000D
:1003D00000E0404629680A1D2A600968220501D507
:1003E000087015E0220701D5088011E008600FE0D1
:1003F0002868011D29600068210502D580F8008069
:1004000006E0210702D5A0F8008001E0C0F80080D6
:1004100038467EE72DE9FF5FD2E901A74FF00008DB
:10042000916999461446DDF838B0464601988847E8
:10043000054659EA0B0005D009E0A169761C019830
:1004400088470546216A284688470028F5D1681C58
:1004500003D05FEACA7005D015E04FF0FF3004B05A
:10046000BDE8F09F2068011D2160D0F800800AE0FF
:100470005FEACA7001D108F8015BA169761C7F1E92
:10048000019888470546002F1ADD681C18D0B9F17D
:10049000000F0DD0E81705EBD060421120F01F00CF
:1004A00059F822102A1A012090400142E0D107E0B9
:1004B000BBF1000FDCD1216A284688470028D7D03D
:1004C000E16901988847BBF1000F07D1002E05DDD7
:1004D0005FEACA7002D1002188F80010A068B84213
:1004E00003DDBBF1000F03D017B16FF00100B6E7D9
:1004F0003046B4E72DE9FE4F81EA030404F00044DE
:1005000021F0004100944FF0000B23F0004350EA2B
:1005100001045ED052EA03045BD0C3F30A54C1F372
:100520000A552C44A4F2F3340194A0FB0254C1F305
:10053000130141F48011C3F3130343F4801301FB4F
:10054000024400FB034E840A970A44EA815447EAB6
:100550008357A4FB076802958D0A05FB07854FEAC0
:10056000932C04FB0C542705029D4FEA065847EADA
:100570001637B5EB08056EEB070C870E920E47EAAF
:10058000811742EA8312A7FB0201B6EB0B0164EB71
:1005900000042B0D43EA0C335E1844EB1C50DA4682
:1005A0005146E7FB0201C5F313044FEA0B3343EA5C
:1005B00014534FEA0432019C43EA0603A4F10C04ED
:1005C0000294009CCDE900B400F02BF903B0BDE823
:1005D000F08F00200146F9E72DE9F04D81EA030490
:1005E00004F0004B21F0004514464FF0000A23F0C0
:1005F000004150EA050220D054EA01021DD0C5F3A3
:100600000A570246C5F31303C1F31300C1F30A5698
:1006100040F4801543F48013A7EB0608101BD64660
:1006200008F2FD3873EB050002D308F1010801E080
:1006300092185B41B8F1000F03DA00200146BDE8D3
:10064000F08D00204FF48011064684460EE0171B03
:1006500073EB050705D3121B63EB050306434CEA56
:10066000010C49084FEA300092185B4150EA01073B
:10067000EDD152EA030012D082EA040083EA0501B8
:10068000084305D0101BAB4106D20122002306E02F
:1006900000224FF0004302E06FF0010253101AEB0A
:1006A00006004CEB085110EB0A0041EB0B01BDE8D2
:1006B000F04D00F0A7B80EB5C10F80EAE070084415
:1006C000CA07002140F233438DE80E000A460B466C
:1006D00000F0A7F803B000BD70B5C1F30A5201F0F5
:1006E00000450024C1F3130140F2FF3341F48011AF
:1006F0009A4201DA002070BD40F233439A42A2F2DE
:10070000334203DC524200F02BF800E090402C43CF
:10071000F1D0404270BD30B50B460146002020228A
:10072000012409E021FA02F59D4205D303FA02F5FE
:10073000491B04FA02F52844151EA2F10102F1DC5E
:1007400030BD202A04DB203A00FA02F10020704775
:100750009140C2F1200320FA03F3194390407047FF
:10076000202A04DB203A21FA02F00021704721FA06
:1007700002F3D040C2F1200291400843194670476D
:100780003A2800D2303820F02002412A01D3A2F1C9
:100790003700884201D34FF0FF30704702681144A0
:1007A0001378016018467047D160044951610449CB
:1007B000116200211161114600F09AB89D070008EE
:1007C000E5080008426842B1016811F8013B23B115
:1007D000521EC0E90012184670470121C160881EF0
:1007E000704742685AB1C368016843B983688B4255
:1007F00005D0491E521CC0E90012002070474FF07E
:10080000FF30704710B5141E73F1000408DA401C65
:1008100041F1000192185B411A4301D120F001001F
:1008200010BD2DE9F04D92469B4611B1B1FA81F20F
:1008300002E0B0FA80F220329046FFF782FF0446D1
:100840000F4640EA0A0041EA0B0153465A46084364
:1008500013D0114653EA010019D0C8F140025046A6
:10086000FFF77EFF05460E46504659464246FFF7C3
:1008700068FF084305D0012004E020463946BDE862
:10088000F08D0020054346EAE0762C4337430A9872
:100890006305E40AA0EB08000022FD0A44EA47547D
:1008A0000A3002D500200146E9E701051019694127
:1008B000DDE9084500196941BDE8F04DA2E70000F7
:1008C000064C074D06E0E06840F0010394E807009D
:1008D00098471034AC42F6D3FFF72EFCD8B8060880
:1008E000F8B80608C0B24FF4F05100F097B9000014
:1008F0002DE9F34F8BB04FF0000801F10C000C46CE
:100900004FF0010B46460DF1080A01906269012182
:1009100001989047051E2DD0252D2CD0216A88479F
:10092000C0B16269012101989047216A8847002877
:10093000F7D1411E62690198904700E0761CA169D9
:100940000B988847216A88470028F7D1E1690B98FE
:100950008847DBE7A1690B9888470746A84201D181
:10096000761CD3E7E1690B9888477F1C02D1B8F168
:10097000000F6FD046E1002762693D463946019875
:1009800090472A2804D162690121019890470125E6
:10099000DFF884926269012101989047A0F130014B
:1009A0000A290AD24F45E5DC07EB870100EB410736
:1009B000303FDFD445F01005ECE7E90601D46FF0D5
:1009C00000476C280AD04C2814D0682815D06A2813
:1009D0000DD074281CD07A281AD01DE0626901213C
:1009E000019890476C2802D045F0040514E045F0CA
:1009F00002050DE045F020050AE062690121019839
:100A00009047682802D045F0080505E045F40065E8
:100A10006269012101989047C4E9015765283DD0DA
:100A200019DC58287AD00CDC452837D004DC25287E
:100A300026D0412831D131E046282FD047282CD16B
:100A40002CE05B2877D0612828D063287CD06428EC
:100A500023D15AE0D0E06F2848D008DC66281DD0AA
:100A600067281BD0692821D06E2816D127E070286E
:100A700045D0732868D0752847D078280DD14DE02F
:100A8000A1690B988847054625283FF469AFE169BD
:100A90000B9888476D1C3FF46AAFB3E023466A4663
:100AA0006FF001000B99AFF300809EE045F040002D
:100AB0006060A80723464FF0000236D43EE0E80706
:100AC0007FF447AF2068011D21600068290501D52A
:100AD00006701BE7290701D5068017E7A90703D58C
:100AE000F117C0E9006111E706600FE745F040002B
:100AF0006060A80723464FF0080216D41EE040F6B7
:100B00000E0125EA0100606016E045F040006060DB
:100B1000A80723464FF00A0207D40FE045F0400033
:100B20006060A80708D5234610226FF001000B99DA
:100B3000AFF3008059E007E0234610226FF0010078
:100B40000B99FFF7C1FB50E04FF000094F464B46B1
:100B5000632802D05B2806D040E0E80601D40120DB
:100B6000A06001273AE062690121019890475E2860
:100B700005D14FF001096269494601989047216902
:100B800039B900210A46534643F82120491C082957
:100B9000FADBB0B3216969B9C11700EBD162531117
:100BA0000AEB830122F01F02821A01200B68904099
:100BB00003430B6062690121019890475D28E8D1E9
:100BC000B9F1000F09D00020514651F82020D2433E
:100BD00041F82020401C0828F7DB02AB2246009792
:100BE0006FF001000B99FFF715FC00280CDA401C90
:100BF00008D1BBF1000F05D04FF0FF300DB0BDE8BC
:100C0000F08FFFE74046F9E7E90701D108F1010855
:100C100006444FF0000B79E6CCCCCC0C7F2801D9F0
:100C2000002208E0064A02EB5002C007127800D109
:100C3000120902F00F0201209040084070470000A6
:100C400080B3060870B58C1810F8015B15F0070327
:100C500001D110F8013B2A1106D110F8012B03E055
:100C600010F8016B01F8016B5B1EF9D12B0705D45D
:100C70000023521E0DD401F8013BFAE710F8013BA6
:100C8000CB1A921C03E013F8015B01F8015B521EC2
:100C9000F9D5A142D8D3002070BD00BFFEE7704750
:100CA00000B5034603E04FF47A7000F011F8181E07
:100CB000A3F10103F7D100BD10B5044603E04FF4E2
:100CC0007A70FFF7EDFF201EA4F10104F7D110BDEB
:100CD00000EBC001C9004FF0E02251610021916199
:100CE0000521116100BF4FF0E021096901F4803155
:100CF0000029F8D004214FF0E022116170472DE95E
:100D0000F041024600250026002000230024002791
:100D100091F803C00CF00F0591F803C00CF0100C13
:100D2000BCF1000F03D091F802C04CEA050591F820
:100D300000C0BCF1000F31D0146800202BE04FF050
:100D4000010C0CFA00F3B1F800C00CEA03069E4255
:100D500020D183004FF00F0C0CFA03F7BC4305FAC7
:100D600003FC4CEA040491F803C0BCF1280F06D13F
:100D70004FF0010C0CFA00FCC2F814C00AE091F824
:100D800003C0BCF1480F05D14FF0010C0CFA00FC78
:100D9000C2F810C0401C0828D1D31460B1F800C0BC
:100DA000BCF1FF0F34DD546800202EE000F1080C88
:100DB0004FF0010808FA0CF3B1F800C00CEA030682
:100DC0009E4221D183004FF00F0C0CFA03F7BC4375
:100DD00005FA03FC4CEA040491F803C0BCF1280FA7
:100DE00005D100F1080C08FA0CF8C2F8148091F84B
:100DF00003C0BCF1480F07D100F1080C4FF0010807
:100E000008FA0CF8C2F81080401C0828CED35460B1
:100E1000BDE8F0810246002093680B400BB1012031
:100E200000E000207047416170470161704700BFDA
:100E3000FEE770B505460E46144633462A4631464F
:100E4000284600F015F9201200F0FCF8E0B200F09E
:100E5000F9F870BD2DE9F05F05460E461746984635
:100E60000A9C4FF00009781B401C1FFA80FBA8EB7E
:100E70000600401C1FFA80FA43463A46314628468F
:100E800000F0F6F800BF09E02188081200F0DAF857
:100E9000207800F0D7F8A41C09F101090BFB0AF037
:100EA0004845F1D8BDE8F09F00B587B0012108039F
:100EB00000F018FA0121042000F014FA012110209A
:100EC00000F010FA10208DF81B008020ADF81800FB
:100ED00003208DF81A0006A94A48FFF710FF802169
:100EE0004848FFF7A2FF18208DF81B00A020ADF89E
:100EF000180003208DF81A0006A94348FFF7FFFEEB
:100F000048208DF81B004020ADF8180003208DF814
:100F10001A0006A93C48FFF7F2FE10208DF81B00CE
:100F2000ADF8180003208DF81A0006A93648FFF71F
:100F3000E6FE10208DF81B006020ADF8180003209D
:100F40008DF81A0006A92F48FFF7D9FE0020ADF84A
:100F500010004FF48270ADF806000020ADF80400D8
:100F6000ADF80800ADF80C00ADF80A00ADF81200BD
:100F70004FF40070ADF80E000720ADF8140001A981
:100F8000224800F05FFA0121204800F041FA2021B8
:100F90001C48FFF748FF0020009002E00098401C2A
:100FA00000901B4900988842F8DB20211548FFF784
:100FB0003CFF0020009002E00098401C0090144983
:100FC00000988842F8DB362000F026F8E82000F090
:100FD00039F83A2000F020F8552000F033F81120BD
:100FE00000F01AF80020009002E00098401C0090E9
:100FF000084900988842F8DB292000F00DF807B076
:1010000000BD000000100140000801400030014018
:1010100020A10700400D030010B504461021074829
:10102000FFF701FF40210648FFF7FDFE204600F0D4
:10103000D3F910210148FFF7F8FE10BD0008014068
:101040000010014010B5044610210748FFF7EBFEE1
:1010500040210648FFF7E9FE204600F0BDF91021C7
:101060000148FFF7E2FE10BD0008014000100140FA
:101070002DE9F04104460D4616461F462A20FFF78B
:10108000CBFF2012FFF7DEFFE0B2FFF7DBFF3012ED
:10109000FFF7D8FFF0B2FFF7D5FF2B20FFF7BCFF1B
:1010A0002812FFF7CFFFE8B2FFF7CCFF3812FFF7A7
:1010B000C9FFF8B2FFF7C6FF2C20FFF7ADFFBDE870
:1010C000F081000000B587B00121880300F00AF923
:1010D0000121042000F006F918208DF81B004FF4C0
:1010E0000070ADF8180003208DF81A0006A92148F9
:1010F000FFF705FE48208DF81B004FF48060ADF827
:10110000180003208DF81A0006A91A48FFF7F7FD0A
:101110004FF4E13002900020ADF814000C20ADF83F
:1011200012000020ADF81000ADF80E00ADF80C0074
:1011300002A9114800F02EFC012240F225510E4870
:1011400000F003FC4FF4A06000F0B0F825208DF80B
:10115000040001208DF807008DF805008DF80600C9
:1011600001A800F06BF80121034800F0ABFB07B0C9
:1011700000BD0000000801400038014000B587B004
:101180000121880400F09EF80121082000F0AAF84F
:1011900018208DF81B004FF48060ADF81800032074
:1011A0008DF81A0006A92148FFF7A9FD48208DF8FF
:1011B0001B004FF40060ADF8180003208DF81A00F2
:1011C00006A91A48FFF79BFD4FF4E130029000207A
:1011D000ADF814000C20ADF812000020ADF810009E
:1011E000ADF80E00ADF80C0002A9114800F0D2FBDA
:1011F000012240F225510E4800F0A7FB4FF4A060F9
:1012000000F054F827208DF8040001208DF8070025
:101210008DF805008DF8060001A800F00FF80121F7
:10122000034800F04FFB07B000BD0000000C014078
:101230000048004000BFFEE77047000070B5002185
:1012400000230F22C47804B3154C246804F4E0642E
:10125000C4F5E064210AC1F10403CA40447804FAE9
:1012600003F184781440214309010E4C0678A155FE
:10127000047804F01F050124AC4005786D11AD0021
:1012800005F1E025C5F8004109E0047804F01F05E8
:101290000124AC40044D0678761145F8264070BD17
:1012A0000CED00E000E400E080E100E002490143D1
:1012B000024A1160704700000000FA050CED00E0E2
:1012C0007047000029B1064AD2690243044BDA6133
:1012D00004E0034AD2698243014BDA61704700009F
:1012E0000010024029B1064A92690243044B9A61F8
:1012F00004E0034A92698243014B9A6170470000FF
:101300000010024030B500210022002400232D4DA2
:101310006D6805F00C0121B1042905D0082923D1FD
:1013200005E0294D056022E0274D05601FE0254DB1
:101330006D6805F47012234D6D6805F48034022544
:1013400005EB92421CB9214D554305600BE01D4D44
:101350006D6805F400351DB11C4D5543056002E074
:10136000194D5543056002E0174D056000BF00BFF1
:10137000144D6D6805F0F0010909154D6B5C0568A9
:10138000DD4045600F4D6D6805F4E061090A104DC0
:101390006B5C4568DD4085600A4D6D6805F4605101
:1013A000C90A0B4D6B5C4568DD40C560054D6D6835
:1013B00005F44041890B074D6B5CC568B5FBF3F53F
:1013C000056130BD0010024000127A0000093D00A6
:1013D0000C0000201C00002010B5044600BF0221B4
:1013E0000A4800F021F80028F9D02146074800F00B
:1013F00027F800BF0121054800F016F80028F9D0B1
:10140000024800F01AF8C0B210BD000000300140E0
:1014100021B1028842F04002028004E002884FF6C7
:10142000BF731A40028070470246002013890B40A8
:101430000BB1012000E00020704701468889704709
:101440008181704710B50022028802F441520B8856
:101450004C8823438C882343CC8823430C89234323
:101460004C8923438C892343CC8923431A4302802C
:10147000838B4FF2FF74234083830B8A038210BD5A
:10148000704710B500F002F810BD00000CB5002048
:10149000019000903348006840F480303149086082
:1014A00000BF3048006800F4003000900198401CF4
:1014B0000190009818B90198B0F5A06FF1D12948B2
:1014C000006800F4003010B10120009001E000201D
:1014D00000900098012843D12348006840F0100094
:1014E000214908600846006820F0070008600846A7
:1014F000006840F0020008601A48406819494860D6
:101500000846406848600846406840F4806048608B
:101510000846406820F47C1048600846406840F463
:10152000E81048600846006840F08070086000BF1E
:101530000C48006800F000700028F9D009484068A5
:1015400020F00300074948600846406840F0020068
:10155000486000BF0348406800F00C000828F9D13B
:101560000CBD000000100240002002407047000047
:1015700010B51348006840F00100114908600846A2
:101580004068104908400E494860084600680E4906
:1015900008400B4908600846006820F48020086075
:1015A0000846406820F4FE0048604FF41F00886041
:1015B000FFF767FF4FF000600449086010BD0000AE
:1015C000001002400000FFF8FFFFF6FE08ED00E00B
:1015D00010B501210C4800F06CF898B10B48006878
:1015E000401C0A49086008460068B0F5967F05DB94
:1015F000012007490860002004490860012188078C
:1016000000F048F810BD0000000400402400002055
:101610002000002010B50121054800F04AF830B143
:101620000121034800F036F8012028F0E5FF10BD45
:10163000000400401FB501210220FFF743FE0020F7
:10164000ADF80A00ADF8060040F2E730ADF808004A
:101650004720ADF8040001A90D4800F045F801222B
:1016600011460B4800F036F81D208DF800000120CF
:101670008DF8030000208DF801008DF80200684607
:10168000FFF7DCFD0121024800F007F81FBD000054
:1016900000040040CA430282704721B1028842F030
:1016A0000102028004E002884FF6FE731A400280B5
:1016B000704730B50246002000230024158A05EA51
:1016C0000103958905EA010413B10CB1012000E082
:1016D000002030BD1AB183890B43838102E08389E6
:1016E0008B43838170470000002202881D4B984283
:1016F0000ED01D4B98420BD0B0F1804F08D01B4B41
:10170000984205D01A4B984202D01A4B984204D105
:101710004FF68F731A404B881A43174B984207D0E5
:10172000164B984204D04FF6FF431A40CB881A4319
:1017300002808B8883850B8803850A4B98420BD0E7
:10174000094B984208D00E4B984205D00D4B984259
:1017500002D00D4B984201D10B7A0386012383827C
:1017600070470000002C014000340140000400409C
:1017700000080040000C0040001000400014004031
:1017800000400140004401400048014010B540F2D3
:1017900025511D4800F0AFF8012834D11A4800F057
:1017A00065F9C4B219481A49098844541848008890
:1017B000022822DB16480088401E1449085C0D28C8
:1017C0001BD1084612490988405C0A2815D100211E
:1017D0000E4A0F480088401C115411460DA000F01D
:1017E00039FB00200A490880084800F043FA4FF40A
:1017F00080710648FEF710FD04E005480088401C93
:101800000349088000BF10BD003801408C02002051
:101810002C0000200D0A434D445F52454349455674
:1018200045443A2025730D0A0000000010B540F22F
:1018300025511B4800F05FF801282FD1184800F00F
:1018400015F9C4B2214617A000F004FB1648008821
:10185000FF2807D214490888411C134A11801349F4
:101860000C5402E00020104908800A2C15D10021F8
:101870000E480D4A128881540DA1FEF7D8FC60B1C4
:1018800000F000F94FF480710848FEF7C5FC002015
:101890000549088001200A49086000BF10BD00000A
:1018A00000480040256300002E0000208C0300202B
:1018B0002B434950534E545054494D453A00000073
:1018C0002800002021B1828942F40052828104E084
:1018D00082894DF6FF731A408281704702460020CC
:1018E000B1F5007F00D100BF13880B400BB1012080
:1018F00000E00020704770B5024600240023002558
:10190000002040F66A16B14200D100BFC1F3421573
:1019100001F01F03012606FA03F3012D02D1968977
:10192000334006E0022D02D1168A334001E0968A48
:1019300033400C12012606FA04F41688344013B121
:101940000CB1012000E0002070BDF0B5034600247A
:1019500000260025002040F66A17B94200D100BFDA
:101960001846C1F3421401F01F06012707FA06F5D5
:10197000012C01D10C3004E0022C01D1103000E028
:1019800014301AB107682F43076002E00768AF43BD
:101990000760F0BD2DE9F04786B005460E460024ED
:1019A000A24600BFA1460027B08900B100BF2F4664
:1019B0002C8A4CF6FF700440F08804432C82AC89DA
:1019C0004EF6F3100440B08831890843718908430A
:1019D0000443AC81AC8A4FF6FF400440B089044315
:1019E000AC8201A8FFF78EFC1F48874202D1DDF8C8
:1019F00010A001E0DDF80CA0A88900F4004040B17F
:101A00000AEBCA0000EB0A1031684900B0FBF1F89C
:101A100007E00AEBCA0000EB0A1031688900B0FB4E
:101A2000F1F86420B8FBF0F004012009642101FB07
:101A30001089A88900F4004040B1322000EBC900B1
:101A4000B0FBF1F000F00700044308E0322000EBA7
:101A500009106421B0FBF1F000F00F0004432C8169
:101A600006B0BDE8F08700000038014001468888D4
:101A7000C0F308007047C1F308028280704700BFBE
:101A8000FEE7000010B586B01CA12048FEF7CFFB92
:101A90000446002C30D00D341D481E491E4A1F4BF1
:101AA000CDE90132CDE903101D481E4B1E4A1FA18E
:101AB00000902046FEF7ECFB07281AD11548037862
:101AC000154802781548017820A000F0C3F91148A4
:101AD000007811490978114A1278CDE90021029065
:101AE0000F4803780F4A0A4801881CA000F0B2F999
:101AF00002E025A000F0AEF906B010BD2B4349501E
:101B0000534E545054494D453A0000008C03002078
:101B10003000002036000020350000203400002076
:101B2000330000203B0000203700002025337320C5
:101B3000253373202568687520256868753A2568FF
:101B400068753A25686875202568750025642C201D
:101B50002025642C202025640D0A00005B5749468F
:101B6000492054494D455D20253034642D25732D81
:101B70002530326420253032643A253032643A25EB
:101B80003032640D0A0000005B4552524F525D2016
:101B90004661696C656420746F20706172736520A2
:101BA0006461746574696D652E0D0A0010B5FFF7E8
:101BB00089FAFFF7E3FA4FF47A70FFF771F811A092
:101BC00000F048F913A000F055F84FF4FA70FFF751
:101BD00067F812A000F04EF80A20FFF76DF81C48D5
:101BE00000F048F841F28830FFF75AF819A000F0E9
:101BF00041F80120FFF760F81B4A1C491C4830F0EF
:101C0000F9F910BD5749464920496E6974204F4B78
:101C10000D0A000041540D0A0000000041542B43FE
:101C2000574A41503D224641206950686F6E6520F9
:101C30004D6163696E746F7368205345222C2231A5
:101C4000323334353737383930220D0A000000007E
:101C5000C0B3060841542B434950534E5450544985
:101C60004D453F0D0A000000080000200400002040
:101C70000000002010B504460BE014F8011B0748D3
:101C8000FFF7F9FE00BF80210448FFF727FE002878
:101C9000F9D020780028F0D110BD000000480040A5
:101CA0002DE9FC4704468946902000F075F8A0F520
:101CB000A57A5046FEF7FFFC07460022144BFEF7BC
:101CC0008BFC05460022134BFEF714FCCDE9000106
:101CD000FEF702FD00B22080D02000F05DF8A0F1F8
:101CE000C80A5046FEF7E7FC054600220A4BFEF7FD
:101CF00073FC07460022094BFEF7FCFBCDE900010F
:101D0000FEF7EAFC00B2A9F80000BDE8FC8700007D
:101D100000E4AB40000074400098AC4000006E400E
:101D200008B501211020FFF7DDFA0720ADF800000B
:101D300010208DF8030003208DF8020069460E483C
:101D4000FEF7DDFF0820ADF8000048208DF8030005
:101D500069460948FEF7D3FF1020ADF8000048207F
:101D60008DF8030069460448FEF7C9FF02210248C6
:101D7000FFF75BF808BD00000010014010B510210E
:101D80000448FFF747F8012801D1002010BD0120C9
:101D9000FCE700000010014070B505460024022158
:101DA0000B48FFF740F8284600F032F800F012F830
:101DB00004464FF6FF7000EA042400F00BF80443D9
:101DC000E41002210248FFF730F8204670BD000001
:101DD0000010014070B50024002512E06006040EDA
:101DE00001210A48FFF721F808210848FFF712F8F7
:101DF00008B144F0010401210448FFF714F8681CFD
:101E0000C5B2082DEADB204670BD0000001001407D
:101E100070B50446002517E004F0800020B10421CD
:101E20000B48FFF702F803E004210948FEF7FBFF27
:101E30006006040E01210648FEF7F7FF0121044861
:101E4000FEF7F1FF681CC5B2082DE5DB70BD000090
:101E5000001001400FB4054B10B503A9044A0298C5
:101E600001F014FF10BC5DF814FB0000C10901086B
:101E70007402002002E008C8121F08C1002AFAD12B
:101E800070477047002001E001C1121F002AFBD1FA
:101E9000704770B50446002508E02168481C2060A2
:101EA0000878303805EB850100EB4105216808789A
:101EB00000F004F80028F0D1284670BD0146302912
:101EC00003DB392901DC012070470020FCE700001A
:101ED00010B54421074801F02AF800221E210648C7
:101EE00028F0F2FB0549086002F094FD0020044947
:101EF000087010BD941F0020F54A0008C0010020A2
:101F0000BC0100202DE9F04F87B007460C4615466E
:101F10002946204600F066F920B94FF0FF3007B09F
:101F2000BDE8F08F00222946204600F0FDF808B1F8
:101F30000020F4E70026204613F020FC401E00B2EB
:101F40000490204613F08BFB401E00B2039068887B
:101F50006188401A0FFA80FABAF1000F16DD208866
:101F6000ADF814006088ADF81600A088ADF8180030
:101F70006088504400B2ADF81A003046711C4EB271
:101F800007EBC0000599016006994160E888618807
:101F9000411A0398401A0FFA80FBBBF1000F1CDDB9
:101FA000B5F90600B4F90610884216DA2088ADF8B3
:101FB0001400E888ADF81600A088ADF81800E8888D
:101FC000584400B2ADF81A003046711C4EB207EB0F
:101FD000C0000599016006994160B5F90200B4F9A5
:101FE0000210884202DDB5F9020001E0B4F90200F6
:101FF0008046B5F90600B4F90610884202DAB5F950
:10200000060001E0B4F9060002900298A0EB080077
:102010000FFA80F928882188401A00B201900198AF
:1020200000281BDDB9F1000F18DD2088ADF8140081
:10203000ADF8168021880198084400B2ADF8180068
:1020400008EB090000B2ADF81A003046711C4EB220
:1020500007EBC0000599016006994160A8882188B6
:10206000411A0498401A00B200900098002818DD28
:10207000A888ADF81400ADF81680A9880098084427
:1020800000B2ADF8180008EB090000B2ADF81A0074
:102090003046711C4EB207EBC000059901600699ED
:1020A000416030463BE730B50346B1F90040B2F934
:1020B0000050AC4202DDB1F9004001E0B2F900404D
:1020C0001C80B1F90240B2F90250AC4202DDB1F914
:1020D000024001E0B2F902405C80B1F90440B2F97B
:1020E0000450AC4202DAB1F9044001E0B2F9044014
:1020F0009C80B1F90640B2F90650AC4202DAB1F95F
:10210000064001E0B2F90640DC800120B3F900404E
:10211000B3F90450AC4205DCB3F90240B3F9065000
:10212000AC4200DD002030BDF8B504460D46164631
:102130000027B4F90000B5F90010884212DBB4F9A9
:102140000200B5F9021088420CDBB4F90400B5F9BD
:102150000410884206DCB4F90600B5F9061088427E
:1021600000DC01270FB90020F8BD0EB90120FBE704
:102170002088ADF800006088ADF80200324669465C
:10218000284600F0A7F808B90020EDE7A088ADF8D0
:1021900000006088ADF8020032466946284600F02B
:1021A00099F808B90020DFE72088ADF80000E08842
:1021B000ADF8020032466946284600F08BF808B9AF
:1021C0000020D1E7A088ADF80000E088ADF802005B
:1021D00032466946284600F07DF808B90020C3E77A
:1021E0000120C1E70246B2F90000B1F9043098427B
:1021F00013DCB2F90400B1F9003098420DDBB2F9FA
:102200000200B1F90630984207DCB2F90600B1F9D4
:102210000230984201DB012070470020FCE7F8B54E
:1022200004460D461646B4F90400B5F9001088427C
:1022300011DBB4F90600B5F9021088420BDBB4F9E2
:102240000000B5F90410884205DCB4F90200B5F9C4
:102250000610884201DD0120F8BD0EB90020FBE721
:102260002088ADF800006088ADF80200324669466B
:10227000284600F02FF808B10020EDE7A088ADF85F
:1022800000006088ADF8020032466946284600F03A
:1022900021F808B10020DFE72088ADF80000E088D1
:1022A000ADF8020032466946284600F013F808B13E
:1022B0000020D1E7A088ADF80000E088ADF802006A
:1022C00032466946284600F005F808B10020C3E709
:1022D0000120C1E72DE9FC5F05460E4614464FF08C
:1022E000000AB6F90000B5F90010884213DBB6F910
:1022F0000000B5F9041088420DDCB6F90200B5F90A
:102300000210884207DBB6F90200B5F906108842D0
:1023100001DC4FF0010ABAF1000F02D10020BDE844
:10232000FC9F002C01DC0120F9E7284613F026FA77
:10233000834600EBDB704710284613F090F9834684
:1023400000EBDB704FEA6008474501DA384600E0F1
:10235000404681464C4500DD4C462888ADF80000DB
:102360002888204400B2ADF804006888ADF8020067
:102370006888204400B2ADF8060000223146684665
:10238000FFF7A8FF80B1BDF80400204400B2ADF80B
:102390000400BDF80600204400B2ADF80600314646
:1023A000684624F081FDBAE7E888001B00B2ADF86A
:1023B0000200E888ADF80600002231466846FFF7C3
:1023C00089FF80B1BDF80400204400B2ADF80400DC
:1023D000BDF80200001B00B2ADF8020031466846AD
:1023E00024F062FD9BE7A888001B00B2ADF8000056
:1023F000A888ADF80400002231466846FFF76AFF5E
:1024000080B1BDF80000001B00B2ADF80000BDF8BF
:102410000200001B00B2ADF802003146684624F00D
:1024200043FD7CE76888ADF802006888204400B26C
:10243000ADF80600002231466846FFF74BFF80B139
:10244000BDF80000001B00B2ADF80000BDF80600AA
:10245000204400B2ADF806003146684624F024FD61
:102460005DE701205BE710B5B1F90030B2F900403B
:10247000A34202DAB1F9003001E0B2F90030038082
:10248000B1F90230B2F90240A34202DAB1F90230E6
:1024900001E0B2F902304380B1F90430B2F90440EE
:1024A000A34202DDB1F9043001E0B2F904308380C7
:1024B000B1F90630B2F90640A34202DDB1F90630A7
:1024C00001E0B2F90630C38010BD0000F8B5054642
:1024D00028F082F807460020009035B14C49E868A2
:1024E0000860284628F008FA03E016F0B1F94849D8
:1024F000086047490968086924F06AFB4448006895
:10250000406920B142490968486924F061FB4049AB
:102510000968C86924F05CFB3D490968086A24F031
:1025200057FB3B480068006938B900203849096802
:10253000A1F8500100BF00BFF8BD24F07FFD2AF0D4
:102540006FFD2AF0A9F932480068B0F85001002860
:1025500056D02F4800680068007C00F0010040B3AE
:102560002B4800680068C068406810B3002419E078
:102570002748006800F59870005D00B110E024481D
:10258000006800F5AC7000F034FD06462048006895
:10259000303000EBC400016831604068706000BFFB
:1025A000601C84B21A480068B0F85001A042DFDC19
:1025B00000BF4FF480711648006830301EF09CFA5E
:1025C00020211348006800F598701EF095FA00204D
:1025D0000F490968A1F85001384627F0EFFF009035
:1025E0000B4800680068406A50B1094909680868EA
:1025F0000749096809684B6A06490A6800999847BB
:102600001DF0F2FF00F03EF800F006F800BF93E77F
:10261000780000207400002010B5002416E0C4EB00
:10262000C4000C4951F8200030B1C4EBC401094A80
:1026300052F821001EF08AF8C4EBC401054A02EBEF
:1026400081001C211EF058FA601CC4B2042CE6DB89
:1026500010BD0000702000200146094A10680BE000
:1026600042688A4202D002688A4204D1027E22F085
:102670000102521C027640690028F1D17047000027
:102680004C0000207047000010B50421014800F004
:102690004EFC10BD881F002010B52021014800F01D
:1026A00046FC10BDA01F00202DE9FF4704460D4643
:1026B00016461F46DDE90C896FB9B8F5807F0AD14F
:1026C000002020806080681E00B2A080701E00B2D2
:1026D000E080BDE8FF870020009001900290039009
:1026E000ADF80450ADF80A60ADF80C50ADF80E60CE
:1026F0004B4642463946684624F00CFB4B46424660
:10270000394601A824F006FB4B464246394602A84A
:1027100024F000FB4B464246394603A824F0FAFA5F
:10272000BDF90000BDF90410884202DABDF90000CD
:1027300001E0BDF90400BDF90810BDF90C2091427B
:1027400002DABDF9081001E0BDF90C1088420BDA7D
:10275000BDF90000BDF90410884202DABDF900009D
:102760000DE0BDF904000AE0BDF90800BDF90C1048
:10277000884202DABDF9080001E0BDF90C00801EB4
:1027800000B22080BDF90000BDF90410884202DDCE
:10279000BDF9000001E0BDF90400BDF90810BDF964
:1027A0000C20914202DDBDF9081001E0BDF90C10CA
:1027B00088420BDDBDF90000BDF90410884202DD3E
:1027C000BDF900000DE0BDF904000AE0BDF9080004
:1027D000BDF90C10884202DDBDF9080001E0BDF929
:1027E0000C00801C00B2A080BDF90210BDF90600EB
:1027F000814202DABDF9020001E0BDF90600BDF92F
:102800000A20BDF90E108A4202DABDF90A1001E071
:10281000BDF90E1088420BDABDF90210BDF90600B1
:10282000814202DABDF902000DE0BDF906000AE0BE
:10283000BDF90A10BDF90E00814202DABDF90A00A5
:1028400001E0BDF90E00801E00B26080BDF90210EB
:10285000BDF90600814202DDBDF9020001E0BDF9CB
:102860000600BDF90A20BDF90E108A4202DDBDF94D
:102870000A1001E0BDF90E1088420BDDBDF902100F
:10288000BDF90600814202DDBDF902000DE0BDF98F
:1028900006000AE0BDF90A10BDF90E00814202DD12
:1028A000BDF90A0001E0BDF90E00801C00B2E08015
:1028B00000BF0EE72DE9F743054616460024134CEA
:1028C00027F08AFE8046334629462046019A1BF0AF
:1028D00087FB07465FB900BF00BF2C2120461EF0D2
:1028E0000BF94FF00040A0620020BDE8FE830020FD
:1028F000A062E06918B9404627F060FEE061E06937
:1029000008B90120E0612046EFE70000C41F002065
:1029100010B51421114800F00AFB1BF013FB04460C
:1029200000BF1CB900BF00BF00BFFEE700BF14B965
:1029300000BF00BF10BD0A4920461BF0EBFB094950
:1029400020461BF0E9FB084920461BF0E7FB07493E
:1029500020461BF0DDFB00BFECE70000AC1F0020B1
:10296000F5D60108C9DB010851DE0108BDD6010812
:1029700070B504460D46102128461EF0BDF82068AB
:102980000078012804D1A08A2880E08A68800CE0C1
:1029900020680078022802D1E068686005E02068BD
:1029A0000078042801D10A2068602068406820B1BE
:1029B000206829464268904701E000BF00BF70BD13
:1029C0002DE9FE4F0446A08A18B9E08A08B9BDE88F
:1029D000FE8FE66A96B920460DF0A8F9064606B9BC
:1029E000F5E7204610F02CFC00220921304619F0B2
:1029F000CBFE6078C0F3400000B1E8E700274FF459
:102A00008078B14616E00021484621F0CAFC3844DF
:102A100007B20021484621F000FD8246C0170AEBAC
:102A20001060001200FB08F00FFA80F8484620F012
:102A30002BF88146B9F1000FE5D117B9B8F5807FC1
:102A400011D0784207B24FF4803090FBF8F00FFAC3
:102A500080F8002000906B464246394604F114008D
:102A600024F058F900BF00200290019094F8400033
:102A700000F00F00032812D1304620F023F98246DF
:102A8000304620F0A7F8834603200090B4F91410D4
:102A900053465A4630460CF033FC029012E0304662
:102AA00020F092F98246304620F006F883460C204A
:102AB0000090B4F916105B46524630460CF020FCEC
:102AC000019000BF304620F057F8054605F00100A0
:102AD00028B9BDF90800002801DD0020029005F0AA
:102AE000020028B9BDF90800002801DA0020029090
:102AF00005F0040028B9BDF90400002801DD00201C
:102B0000019005F0080028B9BDF90400002801DA99
:102B10000020019001AA02A920462AF0BBFFBDF9BE
:102B20000420BDF90810304600F0FCFA6078C0F3CC
:102B3000400000B14BE7208BBDF80810084401B2FB
:102B40002183608BBDF80410084401B2618300BF8B
:102B50003DE72DE9F84F0446D4F82CB0BBF1000F47
:102B600001D1BDE8F88F94F8400000F00F0000B9E3
:102B7000F7E71BF077FD06463068477E4021584650
:102B800021F011FE10B90021E183A183584620F005
:102B900007F98046584620F00DF9054694F84000A4
:102BA00000F00F000C2843D10021A1831DBBB4F914
:102BB0001E00C7F164014843642190FBF1F001B2AB
:102BC000E18358461FF078FF8146584620F0FCF814
:102BD00082460C200090B4F91E104B4652465846CF
:102BE0000CF08EFBE083B4F91E20002319465846F2
:102BF00023F0AEF969E020462AF0A3FF00900021FF
:102C0000E1836A4620462AF045FFBDF9003041F6CF
:102C1000FF72514258460DF07BFA8146BDF8000024
:102C2000484402B201230021584623F091F94CE0B8
:102C300094F8400000F00F00032846D10021E18302
:102C4000B8F1000F23D1B4F91C00C7F16401484367
:102C5000642190FBF1F001B2A18358461FF0BAFF46
:102C60008146584620F02EF8824603200090B4F9A1
:102C70001C1053464A4658460CF042FBA083B4F958
:102C80001C1000231A46584623F062F91DE0204626
:102C90002AF03CFF00900021A183002269462046D3
:102CA0002AF0F8FEBDF9003041F6FF725142584655
:102CB0000DF094F98146BDF80000484401B20123AB
:102CC0000022584623F044F900BFA08B002860D1B1
:102CD000E08B00285DD11DBB584620F075F8814679
:102CE00058461FF0E9FE8246B9F1000F02DCBAF146
:102CF000000F14DDB9F1000F06DA01234A46002166
:102D0000584623F025F90AE0BAF1000F07DA01234B
:102D1000CAF1000002B20021584623F019F900BFA1
:102D2000B8F1000F23D158461FF054FF8146584692
:102D30001FF0C8FF8246B9F1000F02DCBAF1000FA4
:102D400014DDB9F1000F06DA012300224946584686
:102D500023F0FEF80AE0BAF1000F07DA012300229F
:102D6000CAF1000001B2584623F0F2F800BF324623
:102D70000A21584619F008FD6078C0F3400000B100
:102D8000EFE694F8400020F00F0184F84010002195
:102D9000E16200BFE5E62DE9FF4104460F4614B9A4
:102DA00015F056FD04460CB9BDE8FF81204615F02C
:102DB000E8FD00B9F8E794F82800C0F3800010B1EE
:102DC00000BF00BFF0E71FB90020A4F85001EBE7F7
:102DD0000020ADF80800ADF80A00204615F050FDBF
:102DE000401E00B2ADF80C00204615F0AFFD401EAD
:102DF00000B2ADF80E0002AA39466846FFF753F953
:102E0000064606B9D0E72068007CC0F3400060B1F8
:102E100002982063039860630120A4F85001606861
:102E200010B1606827F074FDBEE72068806918B1B2
:102E3000206869468269904700250BE004F1300064
:102E400000EBC50100226846FFF76EF900B1ABE761
:102E5000681C85B2B4F85001A842EFDCB4F8500108
:102E6000202809DAB4F8502104F1300101EBC20046
:102E7000694612F05BFB0BE00020A4F85001B4F8A7
:102E8000502104F1300101EBC20002A912F04EFB07
:102E9000B4F85001401CA4F85001606810B160689B
:102EA00027F036FD00BF7FE770B50546284600F0E5
:102EB00013F8044600260CE02146284600F024F8CA
:102EC00006462146284600F0C0F820461DF03EFC8C
:102ED0003446002CF0D170BD014609B9002070477E
:102EE0004868FCE770B5064600243046FFF7F4FF5B
:102EF000054605E0641C2946304600F005F8054605
:102F0000002DF7D1204670BD02460B461068001D0B
:102F100003441868704702460B461068034418685B
:102F20007047014609B9002070478868FCE7002215
:102F300042608260CA1C22F003010160704770B5D4
:102F40000446216801F108001DF022FB0546A5B1E9
:102F500000222946204628F03DFF29462046626887
:102F600028F02AFF606820B12A462046616828F0D0
:102F700031FF6560A06800B9A560284670BD2DE9E5
:102F8000F04106460D4606B115B90020BDE8F081B6
:102F90003046FFF7A1FFA84206D13046FFF7CFFF2A
:102FA000044624BB0020F1E7316801F108001DF060
:102FB000EFFA04460CB90020E8E729463046FFF74F
:102FC000AAFF074622463946304628F0F5FE3A4623
:102FD0002146304628F0FEFE22462946304628F09B
:102FE000F9FE2A462146304628F0E6FE00BF20467C
:102FF000CCE770B50446216801F108001DF0C8FA5D
:103000000546A5B100222946204628F0D5FE2946CE
:103010002046A26828F0DEFEA06820B12A4620469D
:10302000A16828F0C9FEA560606800B965602846FF
:1030300070BD014609B901207047486818B9886811
:1030400008B90120F8E70020F6E72DE9F041044631
:103050000D460CB9BDE8F0812046FFF73DFFA842C0
:103060000FD129462046FFF74FFF6060606810B916
:103070000020A0602FE000222046616828F0AAFE10
:1030800029E02046FFF74DFFA8420FD129462046F0
:10309000FFF741FFA060A06810B9002060601AE04F
:1030A00000222046A16828F087FE14E02946204629
:1030B000FFF731FF064629462046FFF725FF074662
:1030C0003A463146204628F077FE324639462046B9
:1030D00028F080FE00BF00BFBCE710B504462068A2
:1030E000806818B12068214682689047206800688F
:1030F00028B12068006820602046FFF7EEFF10BD71
:103100000146886818B18868B0F916007047002039
:10311000FCE70146886818B18868807E800970479E
:103120000020FCE72DE9F04104460D4616461DB986
:1031300016B90120BDE8F08120461EF0F1FBA06821
:10314000008A284400B2A1680882A068408A3044FE
:1031500001B2A0684182012332462946204621F06F
:10316000E6FF00220B21204619F00EFB0746012F37
:1031700001D03846DEE7204621F0D9FE0120D9E70C
:10318000F7B582B004460E4614B9049805B0F0BDF8
:1031900000BF62223146204620F066FF0190019D6B
:1031A00000BFBDB12868A8B100BF632231462046E8
:1031B00020F05AFF01900198C0B207464FB13A463D
:1031C0002B682846049998470190BDF80400ADF893
:1031D000100000BF0498D9E72DE9F04F95B00446E0
:1031E0008B4691469A461E9D608C20F00800083060
:1031F0006084A4F820902A895946204620F034FFA4
:103200001490A4F820A02A895946204620F02CFFCB
:103210001390608C20F008006084DDE91310884270
:103220000CD1DDE91310884208D1BDF85000BDF87B
:103230004C10884202D115B0BDE8F08FA4F8209060
:103240002A895946204620F00FFF1490A4F820A0A8
:10325000594620460EF05AFD12902989129A10689C
:10326000149A25F077FE28890B2833D147F6FF7191
:103270001498884202D0139888422BD1204621F01E
:1032800035FA009000EBD070471020461FF0ACFBE1
:10329000009000EBD0704FEA600847F6FF71149879
:1032A000884208D1781C08F10101884200DA01E067
:1032B00008F10100149047F6FF711398884208D175
:1032C000781C08F10101884200DA01E008F10100F0
:1032D000139000BF2348FFF732FE064600BF1EB919
:1032E00000BF00BF00BFFEE700BF06B9A3E7149808
:1032F000F0601398306134602889B080C6F808B057
:1033000001A811F0CFF9314601A811F08AFA164947
:1033100001A811F04FFA1548039000BF144901A805
:1033200011F056FAFF22002101A811F068FA29884D
:1033300001A811F056FA698801A811F034FAE8687A
:10334000089000BF01A8002190F8422061F300021C
:1033500080F8422000BF2869079001A811F078FA90
:1033600000BF68E7B81F002049160308F1180308DA
:103370002118030810B514210148FFF7D8FD10BD2E
:10338000B81F00202DE9FE4F04460F4690464FF02F
:10339000000900254CE1E06800EBC5004068C0F37F
:1033A000406000B143E1E16801EBC501496821F0EB
:1033B0007F4023F0D3FB064626EA070008B9012028
:1033C00000E00020029026EA080008B9012000E091
:1033D00000200190DDE90101814270D0E06850F8E1
:1033E00035A04FF0000B6A461021504625F08AF9AF
:1033F00010B14FF0010B98E06A461121504625F0BC
:1034000081F910B14FF0010B8FE06A46122150464E
:1034100025F078F910B14FF0010B86E06A461321D0
:10342000504625F06FF910B14FF0010B7DE06A4670
:103430001521504625F066F910B14FF0010B74E0EC
:103440006A461421504625F05DF910B14FF0010B8A
:103450006BE06A460A21504625F054F910B14FF04E
:10346000010B62E06A466B21504625F04BF910B122
:103470004FF0010B59E06A466C21504625F042F9A5
:1034800010B14FF0010B50E06A460121504625F083
:1034900039F910B14FF0010B47E06A46042150465C
:1034A00025F030F910B14FF0010B3EE06A460221E1
:1034B000504625F027F918B14FF0010B35E0B5E083
:1034C0006A460321504625F01DF910B14FF0010B5B
:1034D0002BE06A460521504625F014F910B14FF053
:1034E000010B22E06A460621504625F00BF910B187
:1034F0004FF0010B19E06A463221504625F002F9DF
:1035000010B14FF0010B10E06A466E21504625F0D5
:10351000F9F810B14FF0010B07E06A466D215046F3
:1035200025F0F0F808B14FF0010BBBF1000F02D00D
:103530000320BDE8FE8F6A466921504625F0E2F877
:1035400010B14FF0020970E06A466A21504625F03A
:10355000D9F810B14FF0020967E06A466E21504673
:1035600025F0D0F810B14FF002095EE06A466D21F7
:10357000504625F0C7F810B14FF0020955E06A46F1
:103580003721504625F0BEF810B14FF002094CE04B
:103590006A463821504625F0B5F810B14FF00209BF
:1035A00043E06A463521504625F0ACF810B14FF0A3
:1035B00002093AE06A464021504625F0A3F810B1CE
:1035C0004FF0020931E06A464521504625F09AF84D
:1035D00010B14FF0020928E06A464121504625F01B
:1035E00091F810B14FF002091FE06A46422150469F
:1035F00025F088F810B14FF0020916E06A46432121
:10360000504625F07FF810B14FF002090DE06A46F0
:103610004921504625F076F810B14FF0020904E038
:10362000B9F1000F01D14FF0010900BF00BF6D1CBF
:10363000608CC0F30510A8423FF6ADAE484678E76F
:10364000014800687047000078000020704701467C
:10365000C1F30412072A00DD0722D0B27047000030
:1036600001464FF6FF70814201D11F20704709B912
:103670000020FBE7712902DA0948405CF6E7A1F176
:10368000710081B20748006838B10748006881427C
:1036900003D204480068405CE8E70020E6E7000049
:1036A00030600308E4010020F801002010B5182163
:1036B0000348FFF73CFC012027F042F810BD000052
:1036C000641F00202DE9F04105460F4616460DB94E
:1036D000BDE8F0812846FCF7BCFD80463946284607
:1036E0000A4A126890470746E8193146074A1268A5
:1036F000904706463C4603E0A019285C2855641C08
:10370000A8EB0600A042F7D200BFE1E728020020A4
:103710002DE9F04106460C4617461D46294630461F
:10372000084A126890472060206830B129688819DB
:103730000021044A1268904700E000203860BDE88C
:10374000F0810000200200202DE9F04F87B00446F0
:103750000F4692469846DDE910560DB100202880AC
:103760001CB9002007B0BDE8F08F207808B9002010
:10377000F8E70FB90020F5E74FF0000906F0020066
:1037800010B906F0040098B1002000E0401C215C54
:103790000A2905D0215C0D2902D0215C0029F5D130
:1037A000215C01B1401C15B14FF0FF312980D9E7F0
:1037B00006F0020008B141F6FF780020069005905F
:1037C00038E000200490059808B9012000E00020AE
:1037D00006A904AACDE90062CDE902100599601896
:1037E00043465246394627F013FA83460498A8EB1D
:1037F00000000FFA80F8049848440FFA80F9BBF1F2
:10380000000F00D11CE005985844059020780A2844
:1038100002D020780D2800D112E00598205C0A28FB
:1038200003D00598205C0D2803D10598401C059015
:1038300006E000BF0598205C10B1B8F1000FC0DCB5
:1038400000BF059870B905A92046094A126890473B
:10385000834635B100225946384619F019F90FFA56
:1038600080F900BF0DB1A5F8009005987AE7000037
:10387000200200202DE9F04706468846174606B18B
:103880000FB9BDE8F0873046FCF7E3FC81463846C7
:10389000FCF7DFFC044604B9F3E704EB090A4146F0
:1038A00030460B4A126890478046554603E0281B75
:1038B000305C70556D1E08EB0400A842F7D906EB8A
:1038C0000800224639461DF0D1F800BFD9E70000B4
:1038D00028020020024600200FA31B788B4211D142
:1038E00013781BB90123137001200BE01378012B0F
:1038F00002D10023137005E01378022B02D10023BC
:10390000137001201378012B04D1202901D1022347
:1039100013700120704700002300000073B582B0CF
:10392000064603980190324600210846019B27F085
:103930008FFC0546002001900024681C1CF028FE26
:10394000044600BF1CB900BF00BF00BFFEE700BFB8
:1039500014B9002004B070BD002060553246691CC7
:103960002046039B27F074FC2046F3E72DE9F0473F
:1039700081460E4614461F46DDF820A035461BE062
:10398000600800FB075529464846D047B0F10008BB
:1039900009DD04F0010080F00100C0EB5404E819D7
:1039A0000546064608E0B8F1000F02DA640835461D
:1039B00002E02846BDE8F087002CE1D10020F9E7BD
:1039C0002DE9FF4F85B08346DDE9158ADDE913490E
:1039D000DDE91775129E05F00200F8B94FB105F048
:1039E000010030B1B9F1000F02D105F00C0000B1B7
:1039F0007F1E03E030222046641C3254544501D21D
:103A0000202CF7D303E030222046641C325405F00A
:103A1000010018B1BC4201D2202CF4D305F01000F3
:103A2000B0B305F4806050B94CB1544501D0BC42EC
:103A300005D1641E1CB1B8F1100F00D1641EB8F19D
:103A4000100F09D105F0200030B9202C04D27822C3
:103A50002046641C325415E0B8F1100F09D105F06E
:103A6000200030B1202C04D258222046641C32544D
:103A700008E0B8F1020F05D1202C03D262222046C3
:103A8000641C3254202C03D230222046641C325451
:103A9000202C16D2B9F1000F04D02D222046641C30
:103AA00032540EE005F0040020B12B222046641CA5
:103AB000325406E005F0080018B120222046641CAC
:103AC0003254CDE90275CDE90064584606A90EC905
:103AD00000F0A2F809B0BDE8F08F2DE9FF4F8FB0DC
:103AE0008046DDE91FABDDE91D96219D1C9C00276A
:103AF0000CB925F0100505F4806000B1E4B100BFF9
:103B0000B4FBF6F106FB1141C8B20A2802DA00F153
:103B1000300107E005F0200109B1412100E06121F9
:103B200001440A39CBB239467F1C07AA5354B4FB6F
:103B3000F6F40CB1202FE3D307A8CDE904AB8DE850
:103B4000810203960695404610A90EC9FFF738FF7B
:103B500013B0BDE8F08F2DE9FF4F8FB0DDE9217B79
:103B6000DDF89080209EDDE91C454FF00009002122
:103B700084EA01006940084301D128F0100808F4E4
:103B8000806028B1002184EA0100694008432DD0FB
:103B900000BF32463B4620462946FCF7E5FA02F0D4
:103BA000FF0ABAF10A0F02DA0AF1300007E008F062
:103BB000200008B1412000E0612050440A38C2B220
:103BC000484609F1010907A90A5432463B462046F6
:103BD0002946FCF7C9FA04460D46002184EA010093
:103BE0006940084302D0B9F1200FD2D32398CDE920
:103BF000036BCDE9050807A91E98CDE900190290CD
:103C00000FA80FC8FFF7DCFE13B0BDE8F08F9A4293
:103C100000D28854704770472DE9FF5F054614466F
:103C2000DDE90EA6DDE91087A34607F0020078B9AA
:103C300007F0010060B9B14607E02246641C20206D
:103C4000039B0199A84709F10109C145F5D300BFBC
:103C500008E02246641C711E0E461AF80100039B00
:103C60000199A847002EF4D107F0020050B105E0F9
:103C70002246641C2020039B0199A847A4EB0B005B
:103C80004045F5D3204604B0BDE8F09F2DE9FF4F35
:103C90008BB088460546002606E025280BD0DDE9D6
:103CA0000D1290476D1C761C28780028F5D10FB0B6
:103CB0003046BDE8F08F0024A146A2460122AE495D
:103CC00000E0044315F8013F203B02FA03F00842EC
:103CD000F7D128782A2810D06FF02F022878A0F189
:103CE0003001092915D809EB890102EB410144F0A3
:103CF000020400EB01096D1CF0E758F8041B5FEAB1
:103D0000010903D544F40054C9F1000944F0020448
:103D10006D1C28782E2817D115F8010F44F00404E3
:103D20002A280ED06FF02F022878A0F1300109293F
:103D30000AD80AEB8A0102EB410100EB010A6D1C73
:103D4000F2E758F804AB6D1C28786C280FD006DC1D
:103D50004C2817D068280DD06A2814D104E07428A4
:103D600010D07A280FD10DE044F400140AE044F496
:103D7000801401E044F440146978814202D104F5D2
:103D800080146D1C6D1C2878692865D006DC00281D
:103D90008DD0632827D0642806D15DE06E2808D036
:103DA00073282AD0752877D0DDE90D129047761C4C
:103DB000E0E0C4F30250022809D003280DD0D8F85F
:103DC000001004280DD00E6008F10408D2E0D8F8E5
:103DD0000010F217C1E90062F6E7D8F800100E8073
:103DE000F2E70E70F0E718F8041B8DF800100020C1
:103DF0008DF80100EB46012003E058F804BB4FF0BA
:103E0000FF3061074FF0000701D40AE07F1C5745DF
:103E10000DDA8742FADB1BF807100029F6D106E01D
:103E20007F1C8742FCDB1BF807100029F8D1DDE975
:103E30000D23A9EB07008146214600F0B1F830447C
:103E4000C61904E0DDE90D121BF8010B90477F1E37
:103E5000F8D22146484688E058F8040BC4F30251D2
:103E60004FF00A0B032900D100B2042900D140B25F
:103E7000002802DA40422D2102E0210505D52B2140
:103E80008DF82410012104E006E0E10710D0202184
:103E9000F6E708AF089113E058F8040BC4F3025199
:103EA0004FF00A0B032900D180B2042900D1C0B21F
:103EB0000021EEE75946FCF72EFC303107F8011DD2
:103EC0000028F7D1ADEB070000F1200B600702D509
:103ED00024F4803401E04FF0010ADA4502DDAAEB58
:103EE0000B0000E00020824600EB0B010898014423
:103EF000A9EB01000A90E00306D4DDE90D23214679
:103F00000A9800F04DF806444FF0000908E009A9AE
:103F100011F80900DDE90D12904709F10109761C3D
:103F200008998945F3DBE0030CD5DDE90D23214633
:103F30000A9800F035F8064404E0DDE90D1230205F
:103F40009047761CBAF10001AAF1010AF5DC05E000
:103F5000DDE90D1217F8010B9047761CBBF100014B
:103F6000ABF1010BF4DC0A982146DDE90D2300F0EA
:103F700005F806446D1C97E6092801002DE9F0417B
:103F8000044600251E461746880404D405E0394639
:103F90002020B0476D1C641EF9D52846BDE8F0818D
:103FA0002DE9F041044600251E469046C80301D580
:103FB000302700E02027880404D505E04146384634
:103FC000B0476D1C641EF9D52846BDE8F08100009D
:103FD0002DE9FF4F8BB0074600250C9800B9FA4F2A
:103FE000EAE20E98007825280AD02A466D1C0E9920
:103FF0000878DDE90C13B8470E98401C0E90DBE200
:104000000E98401C0E90002400BF0E9800782B28BC
:1040100019D004DC20281ED023282CD123E02D2801
:1040200009D0302827D144F001040E98401C0E908E
:1040300001200A9022E044F002040E98401C0E90E9
:1040400001200A901AE044F004040E98401C0E90DF
:1040500001200A9012E044F008040E98401C0E90D3
:1040600001200A900AE044F010040E98401C0E90C3
:1040700001200A9002E000200A9000BF00BF0A98C9
:104080000028C2D180460E990878FDF717FF20B1AD
:104090000EA8FDF7FEFE804612E00E9800782A2852
:1040A0000ED1189901C91891002804DA44F00204CD
:1040B000C0F1000800E080460E99491C0E9100BF37
:1040C0004FF000090E9800782E281FD144F4806428
:1040D0000E98401C0E900E990878FDF7EFFE20B167
:1040E0000EA8FDF7D6FE814610E00E9800782A282B
:1040F0000CD1189901C91891002801DD014600E092
:10410000002189460E99491C0E9100BF0E98007837
:104110006C280AD004DC682816D06A2835D128E03B
:10412000742820D07A2830D129E044F480740E9885
:10413000401C0E900E9800786C2804D144F4007452
:104140000E98401C0E9021E044F080040E98401C14
:104150000E900E980078682804D144F040040E9820
:10416000401C0E9012E044F480740E98401C0E9097
:104170000CE044F400740E98401C0E9006E044F4E9
:1041800080740E98401C0E9000E000BF00BF0E9897
:10419000007869281DD00EDC622821D006DC252895
:1041A0007ED050281AD058287BD115E0632879D0CA
:1041B0006428F9D10CE0732875D004DC6F280ED088
:1041C0007028F1D109E0752804D07828ECD102E0FC
:1041D00000BF00BF00BF00BF00BF00BF00BF00BFE7
:1041E0000E980078782803D00E980078582801D1CE
:1041F000102623E00E980078702803D00E980078DF
:1042000050280CD1102644F0100444F480740E9809
:104210004078562812D10E98401C0E900EE00E9851
:1042200000786F2801D1082608E00E9800786228EF
:1042300001D1022602E00A2624F010040E9800782C
:10424000582803D00E980078502801D144F020045B
:104250000E980078692805D00E980078642801D05F
:1042600024F00C0404F4806008B124F001040E98DA
:104270000078692803D00E98007864287CD104F473
:104280000070B8B31898C01D20F007001890D0E94E
:1042900000AB189A083218920020CDE9069803E086
:1042A00073E17CE1F2E01CE1CDE904600894BAEB33
:1042B00000017BEB000001DA012000E0002000217A
:1042C00002900846B1EB0A0170EB0B0002DA50468F
:1042D000594605E000200146B0EB0A0061EB0B01F6
:1042E000CDE900012A463846DDE90C13FFF733FC1F
:1042F0000546C7E0FFE704F48070D0B1189850F885
:1043000004AB18904FEADA70CDE903980296059451
:10431000BAF1000F01DD514601E0CAF10001CDE91B
:1043200000102A463846DDE90C13FFF7D6FB054698
:10433000A8E004F0400028B1189810F8041B189069
:10434000C8B20DE004F0800028B1189830F8041BC2
:10435000189008B204E0189800681899091D18917F
:1043600082464FEADA70CDE9039802960594BAF1D5
:10437000000F02DD514602E00BE0CAF10001CDE979
:1043800000102A463846DDE90C13FFF7A6FB054668
:1043900078E00E980078562818D1189850F804AB99
:1043A0001890DAF804000068099009980090DAF88B
:1043B00000300D98421B0C9841193846FFF708FE53
:1043C0000544002009905DE0173C000804F40070EB
:1043D000D0B11898C01D20F00700CDE906980894C8
:1043E00018900020CDE904600290189903C9189A2A
:1043F00008321892CDE900012A463846DDE90C134F
:10440000FFF7A9FB05463DE004F4807098B1002257
:10441000CDE9039802960594189800681899091D2B
:10442000CDE9000218912A463846DDE90C13FFF762
:1044300054FB054626E004F0400028B1189810F817
:10444000041B1890C8B20DE004F0800028B1189841
:1044500030F8041B189088B204E018980068189986
:10446000091D189182460020CDE900A0CDE90398EE
:10447000029605942A463846DDE90C13FFF72DFB1A
:10448000054600BF0E98401C0E9093E0012604F0F4
:10449000020050B905E02A466D1C2020DDE90C130E
:1044A000B8473046761C4045F5D3189911F8043BBF
:1044B000D8B22A466D1C1891DDE90C13B84704F0F8
:1044C000020050B105E02A466D1C2020DDE90C13E6
:1044D000B8473046761C4045F5D30E98401C0E90E8
:1044E00068E0189850F804AB18905046B9F1000FE6
:1044F00001D0494601E04FF0FF310A46014600E095
:10450000491C0B781BB1131EA2F10102F8D10E1A3F
:1045100004F4806028B14E4501D2304600E04846A0
:10452000064604F0020050B905E02A466D1C202022
:10453000DDE90C13B8473046761C4045F5D306E05C
:104540001AF8010B2A466D1CDDE90C13B8479AF8DE
:10455000000040B104F480600028F1D0B9F10000FF
:10456000A9F10109ECD104F0020050B105E02A469E
:104570006D1C2020DDE90C13B8473046761C404501
:10458000F5D30E98401C0E9014E02A466D1C252091
:10459000DDE90C13B8470E98401C0E900AE02A463D
:1045A0006D1C0E990878DDE90C13B8470E98401C75
:1045B0000E9000BF00BF00BF0E98007800287FF467
:1045C00010AD0D98854201D2284601E00D98401E9D
:1045D00002460020DDE90C13B84728460FB0BDE8BD
:1045E000F08F2DE9F04104460E46002774B13146A4
:1045F000204600F02DF80546B5F5004F05D20C2DEC
:1046000001D9284600E00C20074600BF3846BDE827
:10461000F081024600BF481E084018B100BF00BF2D
:1046200000BFFEE700BF481E1040101A704710B5CB
:1046300002464B1E13444C1E23EA040000BF4B1ECF
:104640000B401BB100BF00BF00BFFEE700BF10BDA5
:10465000024600BF481E084018B100BF00BF00BF9F
:10466000FEE700BF481E10444B1E984370470000F1
:104670002DE9F04180460E46444601206086002523
:1046800000270DE056F8270025A1FBF7E9FD10B142
:10469000681C85B202E0608E401C6086781C87B280
:1046A00056F8270020B156F8270000780028E9D1F5
:1046B000208EA84201D1BDE8F081A06A20B1A06A95
:1046C0001CF044F80020A062E06A20B1E06A1CF00F
:1046D0003DF80020E062E8001BF05AFFA06200BF36
:1046E000A06A18B900BF00BF00BFFEE700BF6800A6
:1046F0001BF04EFFE06200BFE06A18B900BF00BFC8
:1047000000BFFEE700BFA06A08B1E06A00B900255B
:104710006900E06A1CF0F0F9258600BFCBE70000D5
:104720000A0000002DE9F84F81460E46924699F89E
:10473000090000F00700022801D1304600E0504691
:104740008346564501DD304600E0504607460320CB
:1047500000EB470020F0030000F110053948006825
:1047600039490968A0EB0108002405EB0800374926
:104770000968884206D233480468606820F0004027
:1047800060603AE031480068854221D813E04FF07C
:10479000FF300090002269462D480FF0D5FA002224
:1047A00069462C480FF0D0FA264800682649096867
:1047B000A0EB010800BF08EB050024490968884206
:1047C000E5D820480468606820F00040606014E08C
:1047D00028461BF0DDFE044600BF1CB900BF00BF29
:1047E00000BFFEE700BF14B90020BDE8F88F606885
:1047F00020F0004000F100406060324659464846D3
:1048000002F0E8F82060606800F04040401C606002
:10481000606820F080406060A781A4F80EB06068F6
:10482000C00F20B1204600F11001A16008E005484A
:1048300000681030A06003480068284401490860FF
:104840002046D2E780000020E00100207C0000200C
:104850000FFD0008C93D0108F0B585B006460D46BC
:104860003446002004900390029065480088A842D6
:1048700002D0FF20634908706148058094F83C002D
:1048800000F0030020B1012838D0022866D000BF14
:1048900094F83C0000F003005A49097888421BD084
:1048A0002620005D00EB001000EB4000142190FB7F
:1048B000F1F0554908702720005D00EB001000EB77
:1048C0004000142190FBF1F05049087094F83C002E
:1048D00000F003004B49087002A803A9CDE90010BD
:1048E00005EB45014FF6FF7202EA410004AB474970
:1048F0000A78454909780AF0DDFE5FE094F83C004B
:1049000000F003003F49097888421AD0A08C00EBE0
:10491000400040024FF4B471B0FBF1F03C49088014
:104920002720005D00EB001000EB4000142190FBFD
:10493000F1F03649087094F83C0000F0030031496A
:10494000087002A803A9CDE90010E9B204AB2F4812
:1049500002782F4800880AF0ADFE2FE094F83C0062
:1049600000F003002749097888421AD0A08C00EB98
:10497000400040024FF4B471B0FBF1F024490880CC
:104980002620005D00EB001000EB4000142190FB9E
:10499000F1F01D49087094F83C0000F0030019493B
:1049A000087002A803A9EAB204ABCDE900101648CA
:1049B0000178174800880AF07DFE00BF00BF9DF80F
:1049C00010009DF80C109DF80820D708BDF80030A5
:1049D00067F304038F080093BDF8003067F34A13B0
:1049E000C7080093BDF8003067F3CF230093BDF8EC
:1049F00000703B460193BDF80410084605B0F0BDB9
:104A0000FC000020FA000020F8000020F90000203F
:104A1000F600002010B50120074908700748FEF78E
:104A20005BFA20B90648006825F066FF03E00448F9
:104A3000006825F06DFF10BDBC010020941F002010
:104A4000C001002010B5044694F84200C0F34000B5
:104A500070B9B4F8400000280ADDB4F840004FF601
:104A6000FF71884204D0B4F84000401EA4F8400012
:104A7000B4F84000D0B9A06B20B194F84200C0F364
:104A8000400098B121461A48FEF7DFFAFFF7C2FF4F
:104A9000E06810B12046E1688847206910B12046DF
:104AA0002169884720461BF051FE1FE0E06B404221
:104AB0002063A06BD0B194F84210C1F3400111B94A
:104AC000616B4942216394F842104908C94394F844
:104AD000422061F3410284F84220206AA16A2162E7
:104AE000A062E06AA16BE162A06300BF10BD00009C
:104AF000941F00202DE9F04180464248006825F0CF
:104B00005DFD06464048007880F001003E4908708F
:104B10003E48FEF7E1F904466BE000203C4908708E
:104B200094F84200C0F3800037490978884253D096
:104B3000354801783034A07C61F38200A07420688D
:104B40008719A07C303CC0F3C00010BB206B00284C
:104B50001FDC002F1DDB94F8420000F0010060B95B
:104B6000606950B12046616988470546206A28443B
:104B70002062A06A2844A06200BFA06810B120464D
:104B8000A168884794F8420020F00800083084F8B3
:104B90004200206B30442063206B00281BDBD4E9EB
:104BA0000B10884201DDE06A20632046E1698847F6
:104BB0000546606AA84206D06562606818B1294659
:104BC000D4E900029047D4E90B10884202DB20466A
:104BD000FFF738FF00BF00BF0D48007820B10B4839
:104BE000FEF77AF9044604E021460848FEF78CF9FE
:104BF0000446002C91D125F0EFFC02490860BDE885
:104C0000F0810000B8010020BD010020941F0020A9
:104C1000BC01002070B504460D46606818B12946F5
:104C20006068FFF7F7FF206818B129462046226820
:104C3000904770BD70B505460C46A1B2284610F0ED
:104C4000A2FB70BD70B505460C46A1B2284610F017
:104C5000EBFB70BD2DE9FF4F8FB01F46DDF888805C
:104C60001C980E901D980D9000200B9023980428FE
:104C700006D0052809D006280CD014281AD114E033
:104C800000200C904FF0020917E001200C904FF02B
:104C9000030912E001200C904FF00209FEF7D0FC4E
:104CA00005462868008F0B9007E001200C904FF01C
:104CB000020902E013B0BDE8F08F00BF002489E1D3
:104CC0001E9860430E9901EB20201C901F986043B2
:104CD0000D9901EB20201D901C9805121D980612BD
:104CE000002D07DB1098854204DA002E02DB1198B4
:104CF000864203DB002008F8040069E11C98C0B27A
:104D00000A901D9800F0FF0A0A98802807DA4FF0F1
:104D1000FF3B0A98C0F17F0040000A9005E04FF089
:104D2000010B0A98803840000A90BAF1800F07DA28
:104D30004FF0FF300990CAF17F004FEA400A05E0CA
:104D400001200990AAF180004FEA400A0F980890CC
:104D500006FB07F000FB09F005FB09010898084471
:104D6000089005EB0B0000287EDB05EB0B0110988B
:104D7000401E814278DC099830440028F4DB099811
:104D800031181198401E8142F4DC08980790089869
:104D90000BFB09000690099800FB07F1089801FB3E
:104DA000090005900C9800287FD0239B052B06D185
:104DB000079B9878059B9978069B9A783BE0239B04
:104DC000142B18D1DDF844C007FB0CFCDDF83CE0E7
:104DD0000EEB4C0306FB073C1CF8050006FB073CEA
:104DE000AC441CF80B20DDF824C0B4440CFB073C99
:104DF0001CF805101FE0239B062B19D1079B1B886D
:104E0000BDF82CC063450BD0059B1B88BDF82CC09A
:104E1000634505D0069B1B88BDF82CC0634503D1B4
:104E2000002308F80430D3E0FF20FF21FF2202E036
:104E3000FF20FF21FF22814207D001FB0AF3CAF5C0
:104E4000807C00FB0C33C3F30721824209D00A9B0C
:104E50005343DDF828C0CCF5807C00FB0C33C3F352
:104E600007228B185B1000E059E008F8043018F8AE
:104E7000043003B9ACE0079B93F800C05B780CEBFF
:104E800003239BB20493059B93F800C05B780CEB63
:104E900003239BB20393069B93F800C05B780CEB53
:104EA00003239BB202930CE0FFE70798008804906D
:104EB000069800880290059800880390FF2008F863
:104EC0000400BDF81000BDF80C1088420CD1BDF8EC
:104ED0001000BDF80810884206D1219800EB44006C
:104EE000BDF81010018019E00AF0FF02DDE90301AE
:104EF00012F0B4FD03900A98C2B20499029812F01D
:104F0000ADFD02907F22DDE9020112F0A7FD0190C4
:104F1000219800EB4400BDF80410018057E0089987
:104F20000A78497802EB01218AB2219921F81420EC
:104F30002399052904D0062905D0142919D10EE09A
:104F40000899887817E0219931F81410BDF82C20C1
:104F5000914201D1002100E0FF2108460BE0119AA7
:104F600007FB02F10F9A02EB410106FB0711485DB6
:104F700001E0FF2000BF00BF15B9BBF1000F06DB49
:104F80001099491EA9420BD1BBF1000F08DD0A9907
:104F9000C1F1FF014143C1F3072108F8041015E0F6
:104FA00016B90999002906DB1199491EB1420AD1A7
:104FB0000999002907DDCAF1FF014143C1F3072127
:104FC00008F8041002E0002108F8041000BF00BF38
:104FD000601C04B220988442FFF672AE00BF69E6FE
:104FE0002DE9F84F04468C4690469946109FDDE91E
:104FF0000A56AA460096002032E00C9941430AEB7B
:1050000021250D994143DDF800B00BEB21262A1232
:105010003312002A05DB624503DA002B01DB43452E
:1050200002DB0021395419E0214603FB09FB0BEB9D
:105030004B0B02EB420EF344594491F800B091F847
:1050400001E00BEB0E2B1FFA8BFEDDF83CB02BF8CA
:1050500010E091F802B007F800B000BF411C08B2A0
:105060000E998842C9DBBDE8F88F000030B591B0D9
:1050700004462546A88F18B9204627F089F81EE077
:1050800068460FF00FFB294668460FF0CEFB0D492E
:1050900068460FF095FBA98F68460FF0A6FB01222A
:1050A000002168460FF0B7FB074968460FF08CFBFC
:1050B0000648039000BF68460FF0CAFB00BF11B05E
:1050C00030BD000019C202088F4701081BC2020848
:1050D00070B504460D4600BF204600F03BF818B1FD
:1050E00000BF00BF00BFFEE700BF284600F050F938
:1050F000001D616808446060204600F03AF82046D0
:1051000070BD70B505460C46284600F041F904F123
:105110001001884201D3012070BD0020FCE7014648
:10512000A1F1080070477CB505460C46204600F00A
:105130002FF906466A4601A926F06CFC214628464E
:10514000DDE900320EF04EF97CBD0146087900F031
:105150000100704710B50446204600F019F908B95F
:10516000012010BD0020FCE70146087900F0020094
:10517000704770B50446204600F097F805462C604D
:10518000284670BD7CB506460C4600200190009074
:1051900000256CB16A4601A9204626F058FC01980A
:1051A000092805DA6A4601A9304628F0FBFD0546C4
:1051B00085B100BF284600F0EBF8A04203D200BF43
:1051C00000BF00BFFEE700BF29463046DDE90032E0
:1051D00028F0D2F828467CBD70B504462046FFF77B
:1051E000C8FF0546284600F0BEF8204600F0B6F895
:1051F00070BD70B50446204600F057F805462846B5
:1052000000F0B6F8204600F0BEF870BD70B5064656
:105210000D46284600F049F8044600BF1CB900BFFF
:1052200000BF00BFFEE700BF2046FFF78EFF90B132
:1052300000BF2846FFF78EFF18B100BF00BF00BFB8
:10524000FEE700BF2146304600F076F821462846AA
:10525000FFF73EFF0546284670BD70B506460D4671
:105260002846FFF781FFF0B1284600F057F80446C2
:1052700000BF1CB900BF00BF00BFFEE700BF00BFFA
:105280002046FFF762FF18B900BF00BF00BFFEE76E
:1052900000BF2146304600F04FF829462046FFF770
:1052A00017FF054600BF284670BD2DE9F0410446B2
:1052B000204600F06DF8061F204600F0B8F80746BB
:1052C000314626F064FE054600BF2046FFF742FF48
:1052D00018B100BF00BF00BFFEE700BF2846BDE811
:1052E000F0812DE9F04106460C461546002794B1A1
:1052F00000BF1DB900BF00BF00BFFEE700BF2A46C8
:105300002146304600F097F82046FFF772FF20460E
:1053100000F08DF807463846BDE8F08110B5044628
:1053200000BF2046FFF720FF18B900BF00BF00BF35
:10533000FEE700BF206810BD7CB505460C46204640
:1053400000F026F806466A4601A926F063FB2146CE
:105350002846DDE9003228F00FF87CBD416841F0B5
:10536000010141607047416841F0020141607047AE
:10537000416821F0020141607047426802F0030376
:105380000B4343607047416821F001014160704761
:105390000146486820F0030070472DE9F0470646B3
:1053A0000C46304600F043F88046211F26F0EFFD02
:1053B00007463046FFF7ECFF211D451A00BF38466F
:1053C00000F035F88146384600F031F88046042177
:1053D000FFF72DF9814503D000BF00BF00BFFEE7F6
:1053E00000BF00BF3046FFF7D3FF2919091D8842CF
:1053F00003D000BF00BF00BFFEE700BF294638460C
:10540000FFF7BBFF00BF3846FFF7C2FF0C2803D2EF
:1054100000BF00BF00BFFEE700BF21463046FFF7D8
:10542000ACFF3846FFF7D8FE3846BDE8F0870146A6
:1054300001F1080070472DE9F04106460C4615467B
:1054400000BF2046FFF781FE18B900BF00BF00BFB4
:10545000FEE700BF29462046FFF753FE78B12946F4
:105460002046FFF79AFF07462046FFF782FE3846A0
:10547000FFF779FF39463046FFF755FE00BFBDE81C
:10548000F0812DE9F04106460C46154600BF204646
:10549000FFF75BFE18B100BF00BF00BFFEE700BF13
:1054A00029462046FFF72DFE88B129462046FFF702
:1054B00074FF07463846FFF75BFF39463046FFF773
:1054C000A5FE074639463046FFF72DFE00BFBDE872
:1054D000F0812DE9F8430646344619F0C3F88046BA
:1054E000404619F004F978BB304616F05CFE38B33C
:1054F000304616F0C8FC208FE18E884212D0E08E34
:105500002087E08E00906A461C21304617F03CF957
:105510000746012F02D03846BDE8F88330461FF019
:1055200006FD00BF404619F0F2F80546042D06D1ED
:1055300030461DF04FFA0746002117F0FBFF09E047
:10554000304616F093FE05E0FFE7208FE0863046F8
:105550001FF0EDFC0120DFE72DE9F0410446204675
:1055600017F00CF9054628461DF08EFA0646284627
:1055700010F0F4FF074600223946304624F014FAB2
:10558000BDE8F0810146C1F3002070470146C1F338
:10559000C01070470146C1F3002070470146C1F3B7
:1055A000402070470146C1F3001070470146C1F327
:1055B000801070470146C1F3802070470146C1F357
:1055C000C02070470146C1F3401070472DE9F04FED
:1055D00089B004460D46002120461DF0EEF830B992
:1055E0001C2128461BF088FA09B0BDE8F08F294637
:1055F000204600F00BFB2946204600F07DF80021F4
:1056000020461EF015FB0890002120461EF06CFC81
:105610000790002120461EF0CAF8012800D100E0C2
:1056200000208146002120461EF027FF074600216A
:1056300020461EF0A3F9064642F2D170874205D1FA
:10564000608CC0F3C02008B9012000E00020824631
:1056500020461DF052F9069000BF4FF00008244884
:105660000288414620461EF0FFFC03900398C0B21A
:1056700000BF8346AA6829692868CDE90209CDE9F7
:1056800000125A465146089B06980CF0CBFB288323
:1056900042F2D170864205D1608CC0F3802008B9F7
:1056A000012000E00020059020461DF007F904903D
:1056B00000BF4FF000080F480288414620461EF008
:1056C000D3FC03900398C0B200BF83460023EA686E
:1056D00069686869CDE90213CDE900025A46079B63
:1056E000DDE904010CF09EFB688300BF7CE700004D
:1056F00084010020880100202DE9F34F87B00C467B
:1057000007980BF0E1FB804607981DF0F6F806902D
:10571000404601F0F5FA2061216948001AF082FF45
:105720002060216948001AF07DFFA060002548E054
:105730005848029038F9150041F69A7188423FD1D5
:105740000020019029E0019907981DF036F800909B
:10575000514900981FF032F800B11BE000980BF09F
:10576000D1FB8246BAF1010F00D013E000980BF094
:10577000B9FB8346AB4500D00CE000981EF0B6FFA5
:105780000299884201DA029802E000981EF0AEFF0A
:10579000029000BF0198401C019007981DF02BF863
:1057A00001998842CFD80298002804DB0298A168AA
:1057B00021F8150003E00021A06820F8151000BFB3
:1057C0006D1C2069A842B3D80026B14600251BE015
:1057D00038F9150041F69B71884202DB411A0E44EC
:1057E00011E041F69A71884206D1A16831F815108E
:1057F00049440FFA81F906E0A16821F8150009EB88
:1058000000010FFA81F96D1C2069A842E0D800213F
:1058100007981EF00DFA05902169491EDDE9050281
:1058200000FB112000B206900698A0EB090007B219
:10583000002F00DA00274FF0FF3004900020039083
:10584000002513E038F9150041F69B7188420CDB06
:10585000421A11B207FB01F2B2FBF6F212B2A368D0
:1058600023F815200495039100BF6D1C2069A84200
:10587000E8D8049800280ADB0398301A7843B0FB74
:10588000F6F0381A01B2A268049822F8101009B094
:10589000BDE8F08F01E0FFFF010006002DE9FC5F8D
:1058A000054600221146284620F0E2FC0021284649
:1058B0001DF0D9FF8146002128461EF039FB4844DF
:1058C00007B2002128461EF017F948440FFA80FA63
:1058D00028461DF0CDFE384450440FFA80FB3B4E65
:1058E00028461CF088FF01904FF000085CE0A86893
:1058F000006850F82840364920461EF05FFF00B18E
:1059000050E020461FF08AFB002839D100212046B4
:105910001DF0DFFE0090009830B1012807D002286A
:1059200004D0032815D100E000BF00BF00BFB4F9C8
:105930001A10B5F91600081A401CB04201DA3046B8
:1059400005E0B4F91A10B5F91600081A401C06B2A1
:1059500014E0002120461EF0C0FD70B904F11400CF
:105960000FF045FE3844B04201DA304604E004F15D
:1059700014000FF03CFE384406B200BF00BF10E038
:10598000B4F91A10B5F91600081A401CB04201DA31
:10599000304605E0B4F91A10B5F91600081A401C93
:1059A00006B200BF08F10108019880459FD307485F
:1059B000864209D006EB0A0006B25E4502DD30469B
:1059C000BDE8FC9F5846FBE75846F9E701E0FFFFBA
:1059D000010004002DE9FC5F05460022114628461F
:1059E00020F02AFC002128461DF03DFF82460021C0
:1059F00028461EF0E9F950440FFA80F800212846A5
:105A00001EF046F950440FFA80F928461DF040FE7A
:105A10004844404400B20190724C28461CF0EBFE12
:105A20008346002128461DF092FE012866D10026FB
:105A30005BE0A868006850F826706B4938461EF095
:105A4000BDFE00B150E038461FF0E8FA002839D119
:105A5000002138461DF03DFE0090009830B103282B
:105A600005D0062804D0082815D102E000BF00BFE9
:105A700000BFB5F91800B7F91410401A401CA04235
:105A800001DA204605E0B5F91800B7F91410401AFC
:105A9000401C04B214E0002138461EF012FD70B91B
:105AA00007F114000FF016FE4044A04201DA204630
:105AB00004E007F114000FF00DFE404404B200BFF3
:105AC00000BF10E0B5F91800B7F91410401A401CD7
:105AD000A04201DA204605E0B5F91800B7F9141024
