:020000040800F2
:10000000884B002065020008F90400088F040008EE
:10001000F50400086B0300089906000800000000C2
:10002000000000000000000000000000CD010008FA
:100030006F03000800000000110200080506000818
:100040007F0200087F0200087F0200087F0200088C
:100050007F0200087F0200087F0200087F0200087C
:100060007F0200087F0200087F0200087F0200086C
:100070007F0200087F0200087F0200087F0200085C
:100080007F0200087F0200087F0200087F0200084C
:100090007F0200087F0200087F0200087F0200083C
:1000A0007F0200087F0200087F0200087F0200082C
:1000B0007F0200087F0200087F0200087F0200081C
:1000C0007F0200087F0200087F0200087F0200080C
:1000D0007F0200087F0200087F0200087F020008FC
:1000E0007F0200087F0200087F0200087F020008EC
:1000F0007F0200087F0200087F0200087F020008DC
:100100007F0200087F0200087F0200087F020008CB
:100110007F0200087F0200087F0200087F020008BB
:100120007F0200087F0200087F0200087F020008AB
:1001300000F002F800F03AF80AA090E8000C8244BF
:100140008344AAF10107DA4501D100F02FF8AFF29C
:10015000090EBAE80F0013F0010F18BFFB1A43F0A5
:1001600001031847B4110000D4110000103A24BF55
:1001700078C878C1FAD8520724BF30C830C144BF0C
:1001800004680C607047000000230024002500264E
:10019000103A28BF78C1FBD8520728BF30C148BFEA
:1001A0000B6070471FB51FBD10B510BD00F0A4F85F
:1001B0001146FFF7F7FF00F071FA00F0C2F803B440
:1001C000FFF7F2FF03BC00F0C9F80000224B1968EA
:1001D0000868B0E8F00F80F30988BFF36F8F4FF025
:1001E000000080F311884EF00D0E704700000000F3
:1001F00006480068006880F3088862B661B6BFF3FD
:100200004F8FBFF36F8F00DF00BF00BF08ED00E02E
:10021000EFF30980BFF36F8F0F4B1A6820E9F00FDF
:10022000106008B54FF0BF0080F31188BFF34F8F07
:10023000BFF36F8F00F078FE4FF0000080F311885D
:10024000BDE8084019680868B0E8F00F80F3098835
:10025000BFF36F8F704700BF00000020EFF30580F1
:10026000704700000948804709480047FEE7FEE75D
:10027000FEE7FEE7FEE7FEE7FEE7FEE7FEE7FEE756
:1002800004480549054A064B704700003906000836
:100290003101000888450020884B00208847002055
:1002A000884700204FF0000200B51346944696465A
:1002B000203922BFA0E80C50A0E80C50B1F1200179
:1002C000BFF4F7AF090728BFA0E80C5048BF0CC027
:1002D0005DF804EB890028BF40F8042B08BF704785
:1002E00048BF20F8022B11F0804F18BF00F8012BF7
:1002F0007047704770477047754600F02BF8AE4660
:1003000005006946534620F00700854618B020B521
:10031000FFF7B6FFBDE820404FF000064FF00007A2
:100320004FF000084FF0000B21F00701AC46ACE89D
:10033000C009ACE8C009ACE8C009ACE8C0098D460A
:10034000704710B50446AFF300802046BDE810406A
:10035000FFF735BF004870472845002001491820A5
:10036000ABBEFEE726000200704700BFFEE7704705
:100370002DE9F0410246002500260020002300243C
:10038000002791F803C00CF00F0591F803C00CF0A2
:10039000100CBCF1000F03D091F802C04CEA050527
:1003A00091F800C0BCF1000F31D0146800202BE0A0
:1003B0004FF0010C0CFA00F3B1F800C00CEA030690
:1003C0009E4220D183004FF00F0C0CFA03F7BC4380
:1003D00005FA03FC4CEA040491F803C0BCF1280FB1
:1003E00006D14FF0010C0CFA00FCC2F814C00AE070
:1003F00091F803C0BCF1480F05D14FF0010C0CFA85
:1004000000FCC2F810C0401C0828D1D31460B1F819
:1004100000C0BCF1FF0F34DD546800202EE000F175
:10042000080C4FF0010808FA0CF3B1F800C00CEA10
:1004300003069E4221D183004FF00F0C0CFA03F704
:10044000BC4305FA03FC4CEA040491F803C0BCF178
:10045000280F05D100F1080C08FA0CF8C2F8148036
:1004600091F803C0BCF1480F07D100F1080C4FF020
:10047000010808FA0CF8C2F81080401C0828CED3F6
:100480005460BDE8F081416170470161704700BF71
:10049000FEE700001CB50121082000F02FF8012123
:1004A000402000F02BF810208DF807002020ADF838
:1004B000040003208DF8060010208DF80300202092
:1004C000ADF8000003208DF8020001A90748FFF7EE
:1004D0004FFF69460648FFF74BFF20210348FFF70F
:1004E000D4FF20210248FFF7D0FF1CBD000C0140C3
:1004F0000018014000BFFEE77047000029B1064A1E
:1005000092690243044B9A6104E0034A9269824370
:10051000014B9A61704700000010024010B500F0D6
:1005200001F810BD0CB50020019000903348006820
:1005300040F480303149086000BF3048006800F462
:10054000003000900198401C0190009818B9019863
:10055000B0F5A06FF1D12948006800F4003010B167
:100560000120009001E0002000900098012843D174
:100570002348006840F010002149086008460068E0
:1005800020F0070008600846006840F0020008609C
:100590001A4840681949486008464068486008465B
:1005A000406840F4806048600846406820F47C1051
:1005B00048600846406840F4E81048600846006813
:1005C00040F08070086000BF0C48006800F00070C8
:1005D0000028F9D00948406820F003000749486026
:1005E0000846406840F00200486000BF0348406889
:1005F00000F00C000828F9D10CBD000000100240EA
:100600000020024010B500BFBF2080F31188BFF367
:100610004F8FBFF36F8F00BF00F0F0FC18B14FF0A9
:1006200080500449086000BF002080F3118800BF9B
:1006300010BD000004ED00E010B51348006840F064
:1006400001001149086008464068104908400E49F9
:100650004860084600680E4908400B490860084693
:10066000006820F4802008600846406820F4FE00FE
:1006700048604FF41F008860FFF750FF4FF00060A4
:100680000449086010BD0000001002400000FFF89F
:10069000FFFFF6FE08ED00E000BFFEE71CB5FFF728
:1006A000F9FE002001210BA38022CDE900100EA14C
:1006B0000F4800F087FC0020012106A38022CDE92D
:1006C00000100CA10D4800F07DFC00F0FFFB00BF06
:1006D000FEE700005461736B20302069732072754F
:1006E0006E6E696E670000005461736B300000002D
:1006F000250D00085461736B310000004D0D00089A
:100700002DE9F04705460E46294807682948D0F8E4
:1007100000802948D0F8009028480068001D00F0AB
:1007200029FB50B92548006890F82C10012088401A
:1007300023490968814322480160681CE0B9DEB1A1
:1007400000BF204948681D49096888601B498268C4
:100750000968CA6019490968091D8268516017490A
:100760000968091D8160174A144909684A611146E0
:100770000968491C116018E07C1910480068446041
:10078000BC4206D20D480168091D484600F016FB20
:100790000BE00A480168091D404600F00FFB0A48BB
:1007A0000068844201D208480460BDE8F087000078
:1007B0001400002004000020080000200000002099
:1007C00018000020140100203000002010B504465D
:1007D00000F00EFB32480068401C31490860314887
:1007E000006840B92F4804600846006801280DD110
:1007F00000F07AF90AE02C48006838B92948006806
:10080000C06AE16A884201D8264804602748006827
:10081000401C2649086000BF94F82C100120884035
:100820002349096808432249086000BFE16A01EBD7
:100830008101204A02EB81014868A0608268E26081
:10084000211D826851608160E16A01EB8101194AD2
:1008500002EB81026261E16A01EB8101154A52F803
:100860002110491CE26A02EB8202124B43F822106B
:1008700000BF00BF00F0CEFA0B48006878B100BF9F
:1008800008480068C06AE16A884207D24FF0805089
:1008900009490860BFF34F8FBFF36F8F00BF10BDD2
:1008A00010000020000000201C0000202C00002070
:1008B000180000206000002004ED00E010B516E0F4
:1008C00000F096FA0C48C068C468201D00F052FA87
:1008D0000A480068401E0949086009480068401E2F
:1008E0000749086000F096FA204600F06CF80448CA
:1008F00000680028E4D110BD000100201000002095
:100900000C000020F0B587B001260027002408E085
:1009100012A0005D03A9085503A8005D00B902E01C
:10092000641C102CF4DB00BF002510E00D4F0E48B6
:1009300000EB850000210B468022CDE9001003A9C1
:10094000384600F03FFB064606B902E06D1C012D5B
:10095000ECDB00BF304607B0F0BD000049444C4519
:1009600000000000450A0008340000202DE9FF5F68
:100970000746884616469946DDE90EABB00000F002
:100980003FF9054675B14C2000F03AF904462CB108
:100990004C212046FFF786FC256304E0284600F042
:1009A00049FA00E0002454B100204B46324641464B
:1009B000CDE900ABCDE90240384600F057F82046BB
:1009C00004B0BDE8F09F10B50446206B00F032FA89
:1009D000204600F02FFA10BD30B54FF4884314487C
:1009E00000F007042CB1C01D20F00700104C041BC0
:1009F0001B1B104C206000240E4D6C60C218083A7E
:100A000022F007020C4C226000240B4D2D686C6014
:100A1000094D2D682C600146541A4C60064C246820
:100A20000C60064D4C682C60054D4C682C6030BD48
:100A30002801002040000020480000205000002035
:100A40004C00002000BFFFF739FF0648006801286E
:100A5000F9D94FF0805004490860BFF34F8FBFF3BE
:100A60006F8FF0E76000002004ED00E02DE9FF5FEC
:100A700080460E469146DDE90E7A109CA9F10100F0
:100A8000216B01EB800B2BF0070B7EB1002507E0FB
:100A9000715D04F134004155705D00B902E06D1CD8
:100AA000102DF5D300BF002143200155052F00D3A1
:100AB0000427E762201D00F07EF904F1180000F021
:100AC0007AF92461C7F10500A06164624146584685
:100AD000039A00F015F92060BAF1000F01D0CAF8AE
:100AE0000040BDE8FF9F000010B5002407E004EBC4
:100AF00084010F4A02EB810000F050F9641C052CC0
:100B0000F5D30C4800F04AF90B4800F047F90B48C0
:100B100000F044F90A4800F041F90A4800F03EF9B3
:100B200004480949086004480849086010BD0000ED
:100B300060000020C4000020D8000020EC0000204D
:100B40000001002014010020040000200800002003
:100B500010B50146164800E0006803688B42FBD3DD
:100B60000246436813448B4204D143684C682344D3
:100B7000436001460A464B6813440468A34211D1FE
:100B80000C4C03682468A34208D04B68046864686E
:100B900023444B6003681B680B6005E0054B1B6832
:100BA0000B6001E003680B60884200D0016010BD5B
:100BB000400000204800002009480068006808B98B
:100BC000012000E0002020B14FF0FF30054908600F
:100BD00005E003480068C068006802490860704783
:100BE000040000203000002000BFBF2080F31188E7
:100BF000BFF34F8FBFF36F8F00BF00BFFEE7000052
:100C00002DE9F04704464FF00009DCB114F1090F5B
:100C100001D9012000E0002098B9083404F0070051
:100C200080B104F00700C0F10808C8F1FF30A0420D
:100C300001D2012000E0002008B9444402E0002471
:100C400000E0002400F068F92848006808B9FFF7C0
:100C5000C3FE012000EBE470002841D0002C3FD0FF
:100C60002348006884423BD8224E3046056801E0A4
:100C70002E462D686868A04202D228680028F7D165
:100C80001A48006885422BD0306800F108092868AE
:100C900030606868001B102807D92F196868001B8E
:100CA00078606C603068386037601149686809683E
:100CB000081A0F490860084600680F490968884209
:100CC00003D20B4800680C490860686840F0004097
:100CD00068600020286009480068401C07490860D7
:100CE00000F05CFA4846BDE8F087000048000020AC
:100CF0004C00002040000020500000205400002044
:100D0000001F4FF080730360001F21F00103036098
:100D1000001F034B03601438026020387047000046
:100D2000E90B00080FE020210748FFF7ACFB4FF468
:100D3000FA7000F0B1F820210348FFF7A6FB4FF44A
:100D4000FA7000F0A9F8EEE7000C01400FE0202156
:100D50000748FFF798FB4FF4FA7000F09DF8202148
:100D60000348FFF792FB4FF4FA7000F095F8EEE7B6
:100D70000018014001460A69D1E901309860D1E9C3
:100D8000010358605068884201D188685060002093
:100D900008611068401E10601068704700F108017B
:100DA00041604FF0FF31816000F10801C1600161D5
:100DB00000210160704700210161704710B50246B3
:100DC0000B685C1C0CB9106907E002F1080000E038
:100DD0004068446824689C42FAD944684C604C6876
:100DE000A160886041600A611468641C146010BDD1
:100DF00000BFBF2080F31188BFF34F8FBFF36F8F09
:100E000000BF03480068401C0149086070470000AB
:100E10005C00002006480068401E0549086008463E
:100E2000006820B9002080F3118800BF00BF704720
:100E30005C00002070B506463546E6B1083D2C46FC
:100E40006068C00FB8B12068A8B9606820F00040A1
:100E5000606000F061F80849606809680844064964
:100E600008602046FFF774FE04480068401C0349F0
:100E7000086000F093F970BD4C000020580000207D
:100E800000204FF0E0210861886102484861072096
:100E9000086170473F19010070B50446002544B150
:100EA00000F03AF800212046FFF72AFC00F076F91E
:100EB00005463DB94FF0805003490860BFF34F8F9E
:100EC000BFF36F8F70BD000004ED00E010B5FFF7B9
:100ED00019FD0446012C14D100BFBF2080F31188F6
:100EE000BFF34F8FBFF36F8F00BF4FF0FF30064946
:100EF000086001200549086000200549086000F0ED
:100F000047F80448006810BD300000201C00002095
:100F1000140000203800002002480068401C0149ED
:100F2000086070473C0000201448006818B1012098
:100F30001349086021E000201149086000BF1148F2
:100F40000068B0FA80F0C0F11F0100BF01EB810220
:100F50000D4B03EB820042685268426000F10802C8
:100F60004368934201D1C26842604268D268074B2D
:100F70001A6000BF00BF1846006870473C000020A0
:100F80002400002018000020600000200000002045
:100F900010B50A48006840F47F0008490860084618
:100FA000006840F07F400860FFF76AFF00200449B6
:100FB0000860FFF71DF9002010BD000020ED00E0E3
:100FC0005C0000202DE9FC5F06460F4690469946DE
:100FD000DDE90CAB4B46424639463046CDE900AB25
:100FE000FFF7C4FC054625B12846FFF7EFFB0124B7
:100FF00001E04FF0FF342046BDE8FC9F2DE9F041B1
:1010000000275B48006800287DD15A480068451CCD
:101010005848056095B900BF5748D0F80080574838
:101020000068554908605548C0F800805448006879
:10103000401C53490860FFF7BFFD00BF51480068DE
:1010400085427DD300BF4C480068006808B9012084
:1010500000E0002020B14FF0FF304A4908606EE008
:1010600045480068C068C4686668B54202D2454811
:10107000066064E000BF6069D4E902128A60D4E9C6
:1010800002214A60211D42688A4201D1E168416023
:10109000002262610168491E016000BFA06AA0B120
:1010A00000BFA06AD4E907128A60D4E907214A6028
:1010B00004F1180142688A4201D1216A416000228C
:1010C000A2620168491E016000BF00BF94F82C10A5
:1010D000012088402C49096808432B49086000BF5B
:1010E000E16A01EB8101294A02EB81014868A060B5
:1010F0008268E260211D826851608160E16A01EBD3
:101100008101224A00E02BE002EB81026261E16A88
:1011100001EB81011D4A52F82110491CE26A02EBE1
:1011200082021A4B43F8221000BF00BF1849E06A40
:101130000968C96A884286D9012784E700E000BFB0
:1011400013480068C06A00EB8000104951F8200085
:10115000012800D901270F48006800B1012704E0E9
:101160000D480068401C0C4908603846BDE8F08115
:101170003C00002014000020040000200800002093
:10118000280000203000002018000020600000200F
:101190000000002024000020200000202DE9F04164
:1011A00000240027FFF724FE002552480068401E57
:1011B000504908600846006800286ED14E48006813
:1011C00000286AD064E04D48C068C46800BFA06AC7
:1011D000D4E907128A60D4E907214A6004F11801B2
:1011E00042688A4201D1216A41600022A2620168FC
:1011F000491E016000BF00BF6069D4E902128A6025
:10120000D4E902214A60211D42688A4201D1E16885
:101210004160002262610168491E016000BF00BF99
:1012200094F82C1001208840354909680843344956
:10123000086000BFE16A01EB8101324A02EB8101E3
:101240004868A0608268E260211D82685160816008
:10125000E16A01EB81012B4A02EB81026261E16AE2
:1012600001EB8101274A52F82110491CE26A02EB86
:101270008202244B43F8221000BF00BF2249E06ADB
:101280000968C96A884203D90120204941F825002C
:101290001A48006810B9012001E026E0002000286B
:1012A00091D00CB1FFF788FC194806686EB100BFF9
:1012B000FFF7A4FE18B10120144941F82500761E5D
:1012C000002EF5D1002012490860104850F8250082
:1012D00058B1012700BF0C48006838070D49086065
:1012E000BFF34F8FBFF36F8F00BFFFF793FD3846FB
:1012F000BDE8F0813C00002010000020EC00002040
:1013000018000020600000200000002024000020C1
:101310002000002004ED00E0381300080000002049
:10132000600000006C0100089813000860000020B5
:10133000284B0000880100080000000000000000A9
:10134000000000000000000000000000000000009D
:10135000000000000000000000000000000000008D
:10136000000000000000000000000000000000007D
:101370000400000000000000000000000000000069
:10138000000000000000000000000000000000005D
:0813900000000000AAAAAAAAAD
:0400000508000131BD
:00000001FF
