:020000040800F2
:100000002004002045010008A5050008B1020008F1
:10001000A10500088D010008D90B000800000000B0
:10002000000000000000000000000000D9070008E8
:10003000910100080000000019060008C50800082A
:100040005F0100085F0100085F0100085F01000810
:100050005F0100085F0100085F0100085F01000800
:100060005F0100085F0100085F0100085F010008F0
:100070005F0100085F0100085F0100085F010008E0
:100080005F0100085F0100085F0100085F010008D0
:100090005F0100085F0100085F0100085F010008C0
:1000A0005F0100085F0100085F0100085F010008B0
:1000B0005F010008290900085F0100085F010008CE
:1000C0005F0100085F0100085F0100085F01000890
:1000D0005F0100085F0100085F0100085F01000880
:1000E0005F0100085F0100085F0100085F01000870
:1000F0005F0100085F0100085F0100085F01000860
:100100005F0100085F0100085F0100085F0100084F
:100110005F0100085F0100085F0100085F0100083F
:100120005F0100085F0100085F0100085F0100082F
:10013000DFF80CD000F018F800480047510C000818
:10014000200400200648804706480047FEE7FEE7F7
:10015000FEE7FEE7FEE7FEE7FEE7FEE7FEE7FEE777
:10016000C908000831010008064C074D06E0E068A8
:1001700040F0010394E8070098471034AC42F6D3EE
:10018000FFF7DAFF980C0008B80C000800BFFEE784
:1001900070472DE9F041024600250026002000238B
:1001A0000024002791F803C00CF00F0591F803C05C
:1001B0000CF0100CBCF1000F03D091F802C04CEA17
:1001C000050591F800C0BCF1000F31D01468002083
:1001D0002BE04FF0010C0CFA00F3B1F800C00CEA70
:1001E00003069E4220D183004FF00F0C0CFA03F758
:1001F000BC4305FA03FC4CEA040491F803C0BCF1CB
:10020000280F06D14FF0010C0CFA00FCC2F814C004
:100210000AE091F803C0BCF1480F05D14FF0010C82
:100220000CFA00FCC2F810C0401C0828D1D314609E
:10023000B1F800C0BCF1FF0F34DD546800202EE09F
:1002400000F1080C4FF0010808FA0CF3B1F800C0F7
:100250000CEA03069E4221D183004FF00F0C0CFAEA
:1002600003F7BC4305FA03FC4CEA040491F803C00D
:10027000BCF1280F05D100F1080C08FA0CF8C2F8FF
:10028000148091F803C0BCF1480F07D100F1080CAD
:100290004FF0010808FA0CF8C2F81080401C08283A
:1002A000CED35460BDE8F081416170470161704771
:1002B00000BFFEE72DE9F04704460D4616461F46EF
:1002C000DDF820803B4632462946204600F0FAF809
:1002D0004FF0000909E04FEA282000F0DFF808F0AD
:1002E000FF0000F0DBF809F10109301B401C791B0D
:1002F000491C48434845EED8BDE8F08770B5044630
:10030000EF2340F23F120021084600F0DBF8002501
:1003100006E0201200F0C2F8E0B200F0BFF86D1C59
:10032000B5F5963FF5D370BD00B587B00121080340
:1003300000F084F90121042000F080F910208DF8EC
:100340001B000820ADF8180003208DF81A0006A93C
:100350004448FFF71EFF08214248FFF7A7FF182077
:100360008DF81B00A020ADF8180003208DF81A00AE
:1003700006A93C48FFF70DFF48208DF81B004020E0
:10038000ADF8180003208DF81A0006A93548FFF7CC
:1003900000FF10208DF81B001620ADF81800032078
:1003A0008DF81A0006A92F48FFF7F3FE0020ADF8DC
:1003B00010004FF48270ADF806000020ADF8040084
:1003C000ADF80800ADF80C00ADF80A00ADF8120069
:1003D0004FF40070ADF80E000720ADF8140001A92D
:1003E000214800F0DBF901211F4800F0BDF904218C
:1003F0001C48FFF759FF0020009002E00098401CC5
:1004000000901A4900988842F8DB04211548FFF74C
:100410004DFF0020009002E00098401C009013491E
:1004200000988842F8DB362000F024F8E82000F03D
:1004300035F83A2000F01EF8552000F02FF8112072
:1004400000F018F80020009002E00098401C009096
:10045000074900988842F8DB292000F00BF807B024
:1004600000BD0000000801400030014020A107004D
:10047000400D030010B5044610210748FFF714FF94
:1004800002210548FFF710FF204600F051F9102126
:100490000148FFF70BFF10BD0008014010B50446EE
:1004A00010210748FFF700FF02210548FFF7FEFE75
:1004B000204600F03DF910210148FFF7F7FE10BD7E
:1004C000000801402DE9F04104460D4616461F463E
:1004D0002A20FFF7CFFF2012FFF7E0FFE0B2FFF77F
:1004E000DDFF3012FFF7DAFFF0B2FFF7D7FF2B2066
:1004F000FFF7C0FF2812FFF7D1FFE8B2FFF7CEFFEA
:100500003812FFF7CBFFF8B2FFF7C8FF2C20FFF738
:10051000B1FFBDE8F081000000B585B0012188037E
:1005200000F08CF80121042000F088F818208DF8E4
:1005300013004FF40070ADF8100003208DF8120086
:1005400004A91548FFF725FE48208DF813004FF445
:100550008060ADF8100003208DF8120004A90E4849
:10056000FFF717FE4FF4E13000900020ADF80C00CB
:100570000C20ADF80A000020ADF80800ADF8060028
:10058000ADF804006946054800F0B6FA01210348B9
:1005900000F098FA05B000BD0008014000380140A5
:1005A00000BFFEE77047000070B5002100230F2256
:1005B000C47804B3154C246804F4E064C4F5E06422
:1005C000210AC1F10403CA40447804FA03F1847893
:1005D0001440214309010E4C0678A155047804F01B
:1005E0001F050124AC4005786D11AD0005F1E02533
:1005F000C5F8004109E0047804F01F050124AC406F
:10060000044D0678761145F8264070BD0CED00E0EB
:1006100000E400E080E100E07047000029B1064AF4
:10062000D2690243044BDA6104E0034AD26982438F
:10063000014BDA61704700000010024029B1064A00
:1006400092690243044B9A6104E0034A926982432F
:10065000014B9A61704700000010024030B5002144
:100660000022002400232D4D6D6805F00C0121B1FE
:10067000042905D0082923D105E0294D056022E091
:10068000274D05601FE0254D6D6805F47012234D60
:100690006D6805F48034022505EB92421CB9214DAA
:1006A000554305600BE01D4D6D6805F400351DB127
:1006B0001C4D5543056002E0194D5543056002E0AD
:1006C000174D056000BF00BF144D6D6805F0F001C7
:1006D0000909154D6B5C0568DD4045600F4D6D687F
:1006E00005F4E061090A104D6B5C4568DD408560EA
:1006F0000A4D6D6805F46051C90A0B4D6B5C456885
:10070000DD40C560054D6D6805F44041890B074D1E
:100710006B5CC568B5FBF3F5056130BD00100240A8
:1007200000127A0000093D000000002010000020A7
:1007300010B5044600BF02210A4800F021F8002845
:10074000F9D02146074800F027F800BF01210548ED
:1007500000F016F80028F9D0024800F01AF8C0B2EC
:1007600010BD00000030014021B1028842F040027B
:10077000028004E002884FF6BF731A40028070477F
:100780000246002013890B400BB1012000E000203D
:1007900070470146888970478181704710B50022F3
:1007A000028802F441520B884C8823438C882343EF
:1007B000CC8823430C8923434C8923438C892343CE
:1007C000CC8923431A430280838B4FF2FF7423406A
:1007D00083830B8A038210BD704710B500F002F8C6
:1007E00010BD00000CB50020019000903348006857
:1007F00040F480303149086000BF3048006800F4A0
:10080000003000900198401C0190009818B90198A0
:10081000B0F5A06FF1D12948006800F4003010B1A4
:100820000120009001E0002000900098012843D1B1
:100830002348006840F0100021490860084600681D
:1008400020F0070008600846006840F002000860D9
:100850001A48406819494860084640684860084698
:10086000406840F4806048600846406820F47C108E
:1008700048600846406840F4E81048600846006850
:1008800040F08070086000BF0C48006800F0007005
:100890000028F9D00948406820F003000749486063
:1008A0000846406840F00200486000BF03484068C6
:1008B00000F00C000828F9D10CBD00000010024027
:1008C000002002407047000010B51348006840F057
:1008D00001001149086008464068104908400E4967
:1008E0004860084600680E4908400B490860084601
:1008F000006820F4802008600846406820F4FE006C
:1009000048604FF41F008860FFF767FF4FF00060FA
:100910000449086010BD0000001002400000FFF80C
:10092000FFFFF6FE08ED00E010B501210C4800F0D5
:100930005CF898B10B480088401C0A4908800846BA
:100940000088B0F5FA6F05D1012007490870002032
:10095000044908800121024800F038F810BD000069
:100960000004004016000020140000201FB50121E3
:100970000220FFF753FE0020ADF80A00ADF8060094
:1009800040F2E730ADF808004720ADF8040001A9B7
:100990000D4800F045F8012211460B4800F036F8EA
:1009A0001D208DF8000001208DF8030000208DF837
:1009B00001008DF802006846FFF7F6FD01210248AC
:1009C00000F007F81FBD000000040040CA43028287
:1009D000704721B1028842F00102028004E00288DF
:1009E0004FF6FE731A400280704730B50246002071
:1009F00000230024158A05EA0103958905EA01040C
:100A000013B10CB1012000E0002030BD1AB1838980
:100A10000B43838102E083898B438381704700000D
:100A2000002202881D4B98420ED01D4B98420BD0DD
:100A3000B0F1804F08D01B4B984205D01A4B98421A
:100A400002D01A4B984204D14FF68F731A404B884C
:100A50001A43174B984207D0164B984204D04FF6D2
:100A6000FF431A40CB881A4302808B8883850B880A
:100A700003850A4B98420BD0094B984208D00E4B85
:100A8000984205D00D4B984202D00D4B984201D1AF
:100A90000B7A03860123838270470000002C0140FB
:100AA000003401400004004000080040000C0040F9
:100AB000001000400014004000400140004401408C
:100AC0000048014021B1828942F40052828104E051
:100AD00082894DF6FF731A408281704702460020DA
:100AE000B1F5007F00D100BF13880B400BB101208E
:100AF00000E00020704700002DE9F04786B0054671
:100B00000E460024A24600BFA1460027B08900B1CE
:100B100000BF2F462C8A4CF6FF700440F088044337
:100B20002C82AC894EF6F3100440B088318908431A
:100B3000718908430443AC81AC8A4FF6FF400440FE
:100B4000B0890443AC8201A8FFF788FD1F488742A3
:100B500002D1DDF810A001E0DDF80CA0A88900F4B6
:100B6000004040B10AEBCA0000EB0A1031684900AE
:100B7000B0FBF1F807E00AEBCA0000EB0A1031689D
:100B80008900B0FBF1F86420B8FBF0F00401200903
:100B9000642101FB1089A88900F4004040B1322093
:100BA00000EBC900B0FBF1F000F00700044308E0DF
:100BB000322000EB09106421B0FBF1F000F00F00CF
:100BC00004432C8106B0BDE8F087000000380140E6
:100BD000C1F308028280704700BFFEE7014A024964
:100BE00000F013B82D0C00081800002002E008C81F
:100BF000121F08C1002AFAD170477047002001E097
:100C000001C1121F002AFBD170472DE9F0411646A1
:100C10000F460446002503E03946B047641C6D1CAE
:100C200020780028F8D12846BDE8F08170B5044648
:100C30000D4600BF80210548FFF750FF0028F9D07E
:100C4000E1B20248FFF7C4FF204670BD0038014002
:100C500008B5FFF761FCFFF767FB0020FFF74EFBCD
:100C60004FF478408C232822002100900846FFF79B
:100C700021FBFFF77BFE09E005480078012805D13C
:100C800004A0FFF7ABFF002001490870F4E7000063
:100C9000140000206F6B0A00B80C00080000002050
:100CA0001C000000EC0B0008D40C00081C00002005
:100CB00004040000FC0B0008000000000102030413
:100CC00001020304060708090204060800000000E8
:040CD0000000000020
:0400000508000131BD
:00000001FF
