:020000040800F2
:1000000018040020450100082906000865040008BE
:10001000250600082F020008710A000800000000F1
:10002000000000000000000000000000C9070008F8
:1000300033020008000000002B060008B508000885
:100040005F0100085F0100085F0100085F01000810
:100050005F0100085F0100085F0100085F01000800
:100060005F0100085F0100085F0100085F010008F0
:100070005F0100085F0100085F0100085F010008E0
:100080005F0100085F0100085F0100085F010008D0
:100090005F0100085F0100085F0100085F010008C0
:1000A0005F0100085F0100085F0100085F010008B0
:1000B0005F010008190900085F0100085F010008DE
:1000C0005F0100085F0100085F0100085F01000890
:1000D0005F0100085F0100085F0100085F01000880
:1000E0005F0100085F0100085F0100085F01000870
:1000F0005F0100085F0100085F0100085F01000860
:100100005F0100085F0100085F0100085F0100084F
:100110005F0100085F0100085F0100085F0100083F
:100120005F0100085F0100085F0100085F0100082F
:10013000DFF80CD000F04AF8004800473D0F0008F7
:10014000180400200648804706480047FEE7FEE7FF
:10015000FEE7FEE7FEE7FEE7FEE7FEE7FEE7FEE777
:10016000B9080008310100082DE9F05F05460020BC
:1001700092469B4688460646814640241BE0284618
:1001800041464746224600F042F853465A46C01AB6
:10019000914110D311461846224600F029F82D1A35
:1001A00067EB01084F4622460120002100F020F8AD
:1001B00017EB00094E41201EA4F10104DFDC484684
:1001C00031462A464346BDE8F09F0000064C074DE5
:1001D00006E0E06840F0010394E807009847103417
:1001E000AC42F6D3FFF7A8FF4C0F00086C0F0008D5
:1001F000202A04DB203A00FA02F1002070479140E7
:10020000C2F1200320FA03F3194390407047202ADB
:1002100004DB203A21FA02F00021704721FA02F3B0
:10022000D040C2F12002914008431946704700BFF8
:10023000FEE7704751B18200A2F1C042126842F05D
:1002400001038200A2F1C042136009E08200A2F122
:10025000C0421268034B1A408300A3F1C0431A60E6
:1002600070470000FEFF0F00D0E901121143C26881
:100270001143026911434269114382691143C26902
:100280001143026A1143426A1143826A1143C26AEE
:100290001143026B114302689200A2F1C042116047
:1002A000816808290BD101688900A1F1C041096862
:1002B00041F0400201688900A1F1C0410A60416B30
:1002C0000968426B526841EA0211426B926841EA46
:1002D0000221426B928941EA0241426B128A41EA51
:1002E0000251426B127D41EA0261426B92691143F5
:1002F0000268521C9200A2F1C0421160C16AB1F5BD
:10030000804F1BD1816B0968826B526841EA0211F0
:10031000826B926841EA0221826B128A41EA0251A1
:10032000826B127D41EA0261826B9269114302681D
:100330009200A2F1C042C2F8041107E06FF07042CF
:1003400001688900A1F1C041C1F8042170472DE97D
:10035000F04102460025002600200023002400274B
:1003600091F803C00CF00F0591F803C00CF0100CCD
:10037000BCF1000F03D091F802C04CEA050591F8DA
:1003800000C0BCF1000F31D0146800202BE04FF00A
:10039000010C0CFA00F3B1F800C00CEA03069E420F
:1003A00020D183004FF00F0C0CFA03F7BC4305FA81
:1003B00003FC4CEA040491F803C0BCF1280F06D1F9
:1003C0004FF0010C0CFA00FCC2F814C00AE091F8DE
:1003D00003C0BCF1480F05D14FF0010C0CFA00FC32
:1003E000C2F810C0401C0828D1D31460B1F800C076
:1003F000BCF1FF0F34DD546800202EE000F1080C42
:100400004FF0010808FA0CF3B1F800C00CEA03063B
:100410009E4221D183004FF00F0C0CFA03F7BC432E
:1004200005FA03FC4CEA040491F803C0BCF1280F60
:1004300005D100F1080C08FA0CF8C2F8148091F804
:1004400003C0BCF1480F07D100F1080C4FF00108C0
:1004500008FA0CF8C2F81080401C0828CED354606B
:10046000BDE8F08100BFFEE700B597B001210802AA
:1004700000F0DCF801214FF4F07000F0E7F81820EC
:100480008DF85B004CF20370ADF8580003208DF836
:100490005A0016A93D48FFF75AFF18208DF85B0057
:1004A0004FF68070ADF8580003208DF85A0016A959
:1004B0003748FFF74CFF18208DF85B0040F2FF3003
:1004C000ADF8580016A93348FFF741FF18208DF802
:1004D0005B003F20ADF8580016A92F48FFF737FF03
:1004E00018208DF85B004FF46050ADF8580016A945
:1004F0002648FFF72CFF18208DF85B003020ADF860
:10050000580016A92148FFF722FF18208DF85B003C
:100510000320ADF8580016A91D48FFF718FF182052
:100520008DF85B004FF48060ADF8580016A91A48AA
:10053000FFF70DFF012000900020019004200290A1
:10054000002003900490059006900420079000205E
:100550000890099010200A9000200B900C900D90AC
:100560000E900F904FF48050109000201190129038
:100570001390CDF850D0CDF854D007A8FFF774FEF3
:1005800001210420FFF756FE17B000BD0014014002
:1005900000180140001C01400020014000B585B05A
:1005A0000121880300F052F80121042000F04EF8E8
:1005B00018208DF813004FF40070ADF810000320E0
:1005C0008DF8120004A91548FFF7C1FE48208DF8E8
:1005D00013004FF48060ADF8100003208DF8120076
:1005E00004A90E48FFF7B3FE4FF4E130009000205D
:1005F000ADF80C000C20ADF80A000020ADF80800A2
:10060000ADF80600ADF804006946054800F0C0F9F1
:100610000121034800F0A2F905B000BD0008014027
:100620000038014000BFFEE77047704729B1064A15
:1006300052690243044B5A6104E0034A52698243FF
:10064000014B5A61704700000010024029B1064A70
:1006500092690243044B9A6104E0034A926982431F
:10066000014B9A61704700000010024030B5002134
:100670000022002400232D4D6D6805F00C0121B1EE
:10068000042905D0082923D105E0294D056022E081
:10069000274D05601FE0254D6D6805F47012234D50
:1006A0006D6805F48034022505EB92421CB9214D9A
:1006B000554305600BE01D4D6D6805F400351DB117
:1006C0001C4D5543056002E0194D5543056002E09D
:1006D000174D056000BF00BF144D6D6805F0F001B7
:1006E0000909154D6B5C0568DD4045600F4D6D686F
:1006F00005F4E061090A104D6B5C4568DD408560DA
:100700000A4D6D6805F46051C90A0B4D6B5C456874
:10071000DD40C560054D6D6805F44041890B074D0E
:100720006B5CC568B5FBF3F5056130BD0010024098
:1007300000127A0000093D00000000201000002097
:1007400070B54FF0D045002616E0012000FA06F4FF
:100750004AF25A5025F8140035F81420214608A012
:1007600000F088F9601C35F81020601E35F8101074
:100770000DA000F07FF9761C132EE6D370BD0000AB
:1007800041646472203078253038583A2057726FAF
:100790007465203078413535412C205265616420E4
:1007A0003078253034580A00416464722D313A2083
:1007B0003078253034582C20416464722B313A2033
:1007C0003078253034580A00704710B500F002F830
:1007D00010BD00000CB50020019000903348006867
:1007E00040F480303149086000BF3048006800F4B0
:1007F000003000900198401C0190009818B90198B1
:10080000B0F5A06FF1D12948006800F4003010B1B4
:100810000120009001E0002000900098012843D1C1
:100820002348006840F0100021490860084600682D
:1008300020F0070008600846006840F002000860E9
:100840001A484068194948600846406848600846A8
:10085000406840F4806048600846406820F47C109E
:1008600048600846406840F4E81048600846006860
:1008700040F08070086000BF0C48006800F0007015
:100880000028F9D00948406820F003000749486073
:100890000846406840F00200486000BF03484068D6
:1008A00000F00C000828F9D10CBD00000010024037
:1008B000002002407047000010B51348006840F067
:1008C00001001149086008464068104908400E4977
:1008D0004860084600680E4908400B490860084611
:1008E000006820F4802008600846406820F4FE007C
:1008F00048604FF41F008860FFF767FF4FF000600B
:100900000449086010BD0000001002400000FFF81C
:10091000FFFFF6FE08ED00E010B50121044800F0ED
:100920000CF818B10121024800F004F810BD0000D5
:1009300000040040CA430282704730B502460020DE
:1009400000230024158A05EA0103958905EA0104BC
:1009500013B10CB1012000E0002030BD21B182892B
:1009600042F40052828104E082894DF6FF731A40FE
:100970008281704702460020B1F5007F00D100BFA0
:1009800013880B400BB1012000E0002070470000ED
:100990002DE9F04786B005460E460024A24600BF6A
:1009A000A1460027B08900B100BF2F462C8A4CF623
:1009B000FF700440F08804432C82AC894EF6F3109B
:1009C0000440B08831890843718908430443AC81ED
:1009D000AC8A4FF6FF400440B0890443AC8201A8C2
:1009E000FFF744FE1F48874202D1DDF810A001E066
:1009F000DDF80CA0A88900F4004040B10AEBCA0061
:100A000000EB0A1031684900B0FBF1F807E00AEB8F
:100A1000CA0000EB0A1031688900B0FBF1F86420CD
:100A2000B8FBF0F004012009642101FB1089A889BA
:100A300000F4004040B1322000EBC900B0FBF1F0FF
:100A400000F00700044308E0322000EB09106421A5
:100A5000B0FBF1F000F00F0004432C8106B0BDE8BC
:100A6000F087000000380140C1F30802828070471F
:100A700000BFFEE70FB4054B10B503A9044A029866
:100A800000F018F810BC5DF814FB0000190F000806
:100A90001400002002E008C8121F08C1002AFAD181
:100AA00070477047002001E001C1121F002AFBD1EE
:100AB000704700002DE9FF4F8DB00F460546002618
:100AC00006E025280BD0DDE90F1290476D1C761C3F
:100AD00028780028F5D111B03046BDE8F08F002409
:100AE000A246A1460122EC4900E0044315F8013F6B
:100AF000203B02FA03F00842F7D128782A2810D0C8
:100B00006FF02F022878A0F13001092914D80AEBE0
:100B10008A0102EB410144F0020400EB010A6D1C62
:100B2000F0E701CF5FEA000A03D544F40054CAF1AC
:100B3000000A44F002046D1C28782E2817D115F8FD
:100B4000010F44F004042A280ED06FF02F022878F9
:100B5000A0F1300109290AD809EB890102EB410112
:100B600000EB01096D1CF2E757F8049B6D1C287817
:100B70006C280FD006DC4C2817D068280DD06A28C6
:100B800014D104E0742810D07A280FD10DE044F479
:100B900000140AE044F4801401E044F4401469783D
:100BA000814202D104F580146D1C6D1C2A786E2AD6
:100BB0001FD00CDC632A31D004DC002A8BD0582AE9
:100BC00011D1A3E0642A68D0692A0CD165E0732AA8
:100BD0002ED004DC6F2A73D0702A04D19BE0752AD2
:100BE0006FD0782A6ED01046DDE90F129047761C40
:100BF00050E1C4F30250022806D0032809D004288B
:100C000001CF09D0066045E101CFF117C0E90061CD
:100C100040E101CF06803DE106703BE117F8040B8F
:100C20008DF8000000208DF80100EB46012003E064
:100C300057F804BB4FF0FF3061074FF0000102D4BA
:100C40000DE008F10101884649450FDA8045F8DBDF
:100C50001BF808100029F4D108E008F101018846CA
:100C60008142FADB1BF808100029F6D1DDE90F23D9
:100C7000AAEB08008146214600F036F9304400EB2B
:100C8000080604E0DDE90F121BF8010B9047B8F1EC
:100C90000108F7D221464846F7E00A21C4F302537F
:100CA0004FF0000B0891022B04D001CFC117032B8A
:100CB00009D00AE0FF1D27F00707F7E8020108E066
:100CC00032E01FE020E000B2C117042B01D140B296
:100CD000C117031E71F1000307DA4FF0000CD0EBCF
:100CE0000C006CEB01012D2302E0230504D52B231E
:100CF0008DF82430012303E0E30701D02023F7E738
:100D0000984658E00A2110E010210EE010204FF024
:100D1000000B08900CE010214FF0000B44F004048D
:100D20004FF00809089103E008214FF0000B0891EB
:100D3000C4F30253022B04D001CF0021032B06D0B1
:100D400006E0FF1D27F00707F7E8020103E080B285
:100D5000042B00D1C0B24FF0000823072BD5702A16
:100D600007D0DDF820C08CF0100C5CEA0B0C05D02D
:100D70000EE040238DF82430012308E050EA0103FF
:100D800006D030238DF824308DF825200223984694
:100D9000DDF820C08CF0080C5CEA0B0C0BD150EA9B
:100DA000010301D1630706D530238DF824304FF0BD
:100DB0000108A9F10109582A04D038A20B9208AA07
:100DC0000A920BE03AA2F9E75B46089AFFF7CCF9E2
:100DD0000B9B9B5C0A9A521E0A92137050EA010206
:100DE000F2D10A98ADEB000000F1200B600702D5AC
:100DF00024F4803401E04FF00109D94502DDA9EB6C
:100E00000B0000E0002000EB0B0141440890AAEB2E
:100E1000010AE00306D4DDE90F232146504600F025
:100E200063F806444FF0000908E009A911F8090029
:100E3000DDE90F12904709F10109761CC145F4DB89
:100E4000E0030CD5DDE90F232146504600F04CF8B5
:100E5000064404E0DDE90F1230209047761C089923
:100E6000481E08900029F5DC08E00A980A990078E5
:100E7000491C0A91DDE90F129047761CBBF1000175
:100E8000ABF1010BF1DC21465046DDE90F2300F008
:100E900019F806446D1C1BE6092801003031323375
:100EA00034353637383961626364656600000000A6
:100EB0003031323334353637383941424344454690
:100EC000000000002DE9F041044600251E461746AB
:100ED000880404D405E039462020B0476D1C641E08
:100EE000F9D52846BDE8F0812DE9F04104460025FA
:100EF0001E469046C80301D5302700E0202788040D
:100F000004D505E041463846B0476D1C641EF9D54E
:100F10002846BDE8F081000070B504460D4600BFCC
:100F200080210548FFF726FD0028F9D0E1B20248EC
:100F3000FFF79AFD204670BD00380140FFF794FA94
:100F4000FFF72CFBFFF7FCFB00BFFEE76C0F000870
:100F50000000002018000000940A0008840F000818
:100F60001800002000040000A40A0008000000008F
:100F7000010203040102030406070809020406082B
:040F8000000000006D
:0400000508000131BD
:00000001FF
